:020000040800F2
:10000000480500209D010008831C00086D190008A8
:10001000811C0008DB0700082D24000800000000F8
:10002000000000000000000000000000871C000825
:10003000DD07000800000000851C0008891C00087E
:10004000B7010008B7010008B7010008B7010008B0
:10005000B7010008B7010008B7010008B7010008A0
:10006000B7010008B7010008B7010008B701000890
:10007000B7010008B7010008B7010008B701000880
:10008000B7010008B7010008B7010008B701000870
:10009000B7010008B7010008B7010008B701000860
:1000A000B7010008B7010008B7010008B701000850
:1000B000B7010008B701000800000000B701000800
:1000C000B70100080000000000000000B7010008B0
:1000D00000000000B7010008B7010008B7010008E0
:1000E000B7010008B7010008000000000000000090
:1000F0000000000000000000000000000000000000
:1001000000000000000000000000000000000000EF
:100110000000000000000000B7010008B70100085F
:1001200000000000000000000000000000000000CF
:1001300000000000000000000000000000000000BF
:10014000B7010008B701000800000000000000002F
:10015000000000000000000000000000000000009F
:10016000000000000000000000000000000000008F
:10017000000000000000000000000000000000007F
:1001800000000000B7010008DFF80CD000F006FB0B
:100190000048004795310008480500200648804780
:1001A00006480047FEE7FEE7FEE7FEE7FEE7FEE75C
:1001B000FEE7FEE7FEE7FEE7F11C00088901000804
:1001C0002DE9F05F0546002092469B46884606468C
:1001D000814640241BE0284641464746224600F01F
:1001E00020F853465A46C01A914110D3114618467A
:1001F000224600F094F92D1A67EB01084F4622467B
:100200000120002100F08BF917EB00094E41201E60
:10021000A4F10104DFDC484631462A464346BDE8E6
:10022000F09F202A04DB203A21FA02F000217047D7
:1002300021FA02F3D040C2F120029140084319464E
:100240007047D2B201E000F8012B491EFBD2704783
:100250000022F6E710B513460A4604461946FFF792
:10026000F0FF204610BD2DE9FE4F804681EA0300D5
:10027000C00F0C46009021F0004123F00045B8EB80
:100280000200A94105D24046214690461C460B4635
:10029000024623F00040104347D0270DC7F30A0061
:1002A000C3F30A510290401A019040286BDAC3F35D
:1002B000130040F4801B0098924620B10023D2EB3B
:1002C000030A63EB0B0B01985946C0F140025046FC
:1002D00000F025F906460D4650465946019A00F0B1
:1002E0002DF910EB08006141002487EA115284EADD
:1002F000E7731A4340D0009A62B3019A012A4FEA89
:10030000075215DC001B61EB02014FF0004202EACC
:100310000752CDE90042001C41F5801132462B46C0
:1003200000F02DF903B0BDE8F08F40462146F9E713
:10033000001B61EB0201001C41F5801300185B41BA
:100340002018A2F5001747EB030140EAD570B61953
:100350006D4111E06D084FEA360645EAC0754FEA77
:100360000752001B61EB0201001C41F58011490896
:100370004FEA30000019514132462B4603B0BDE828
:10038000F04F00F0EDB80098012240000023D0EBC0
:10039000020263EBE073009821464FEAE074B8EB89
:1003A000000061EB0401E9E783F000435BE781F0C3
:1003B000004158E72DE9FE4F81EA030404F00044B0
:1003C00021F0004100944FF0000B23F0004350EA6D
:1003D00001045ED052EA03045BD0C3F30A54C1F3B4
:1003E0000A552C44A4F2F3340194A0FB0254C1F347
:1003F000130141F48011C3F3130343F4801301FB91
:10040000024400FB034E840A970A44EA815447EAF7
:100410008357A4FB076802958D0A05FB07854FEA01
:10042000932C04FB0C542705029D4FEA065847EA1B
:100430001637B5EB08056EEB070C870E920E47EAF0
:10044000811742EA8312A7FB0201B6EB0B0164EBB2
:1004500000042B0D43EA0C335E1844EB1C50DA46C3
:100460005146E7FB0201C5F313044FEA0B3343EA9D
:1004700014534FEA0432019C43EA0603A4F10C042E
:100480000294009CCDE900B400F079F803B0BDE817
:10049000F08F00200146F9E70EB5C10F80EAE07049
:1004A0000844CA07002140F233438DE80E000A4693
:1004B0000B4600F064F803B000BD70B5C1F30A52FA
:1004C00001F000450024C1F3130140F2FF3341F471
:1004D00080119A4201DA002070BD40F233439A4203
:1004E000A2F2334203DC5242FFF79BFE00E0904051
:1004F0002C43F1D0404270BD00F0004230F000408B
:100500000AD0C10D01F56071C0F3160042EA015135
:10051000C208400711437047002001467047202A57
:1005200004DB203A00FA02F1002070479140C2F14A
:10053000200320FA03F3194390407047202A06DB7A
:10054000CB17203A41FA02F043EAE07306E041FAA1
:1005500002F3D040C2F1200291400843194670478F
:1005600010B5141E73F1000408DA401C41F10001BB
:1005700092185B411A4301D120F0010010BD2DE912
:10058000F04D92469B4611B1B1FA81F202E0B0FA09
:1005900080F220329046FFF7C2FF04460F4640EA41
:1005A0000A0041EA0B0153465A46084313D011464C
:1005B00053EA010019D0C8F140025046FFF731FE5E
:1005C00005460E46504659464246FFF7A8FF0843E7
:1005D00005D0012004E020463946BDE8F08D00201A
:1005E000054346EAE0762C4337430A986305E40A5C
:1005F000A0EB08000022FD0A44EA47540A3002D565
:1006000000200146E9E7010510196941DDE90845C7
:1006100000196941BDE8F04DA2E72DE9F04D81EAEE
:10062000030404F0004B21F0004514464FF0000A8B
:1006300023F0004150EA050220D054EA01021DD007
:10064000C5F30A570246C5F31303C1F31300C1F300
:100650000A5640F4801543F48013A7EB0608101BDC
:10066000D64608F2FD3873EB050002D308F1010805
:1006700001E092185B41B8F1000F03DA0020014657
:10068000BDE8F08D00204FF48011064684460EE050
:10069000171B73EB050705D3121B63EB050306431A
:1006A0004CEA010C49084FEA300092185B4150EACD
:1006B0000107EDD152EA030012D082EA040083EA76
:1006C0000501084305D0101BAB4106D201220023CF
:1006D00006E000224FF0004302E06FF001025310E9
:1006E0001AEB06004CEB085110EB0A0041EB0B0132
:1006F000BDE8F04DFFF734BF2DE9F04D00231A4659
:100700001B1A8A4103DB00200146BDE8F08DC1F3CE
:100710000A52C1F3130141F480154FF0000BD107C9
:1007200002D100186D41521E0027044640F2FF110D
:10073000384601EB620A3E468046024600204FF4EE
:100740008011FFF76EFDC2197141BB1846EB010025
:10075000B4EB030C75EB000C04D3E41A65EB000555
:1007600017460E46241908F101006D4180463428D1
:10077000E3DDF91946EB0600091BA84103D24FF04F
:10078000FF32134601E0002213461BEB070046EB45
:100790000A51BDE8F04DFFF7E3BE0000064C074DDF
:1007A00006E0E06840F0010394E807009847103441
:1007B000AC42F6D3FFF7ECFC2034000840340008CC
:1007C0000EB540F2334102910021CDE900110A46F5
:1007D0000B46FFF7D4FE03B000BDFEE770470000F4
:1007E0002DE9F84FDFF860B100234FF0010C4FF016
:1007F000030A4FF00F090BF1040E9DE00CFA03F60B
:10080000344022007ED04C68022C01D0122C0ED134
:10081000DC0800EB8408D8F820405D07EF0E09FAE9
:1008200007F5AC430D69BD402543C8F82050076863
:100830005D0091F804800AFA05F408F00308A74364
:1008400008FA05F848EA0708C0F800804F68012F49
:1008500005D0022F03D0112F01D0122F11D187689C
:10086000D1F80C80A74308FA05F848EA0708C0F851
:1008700008804768B7430E79C6F300169E403E4392
:100880004660C668A6438C68AC403443C4604C687C
:10089000E40050D52D4CA56945F00105A561A4697A
:1008A00023F0030504F001040094294C2E19B468C8
:1008B0009D072F0F09FA07F5AC43B0F1904F04D014
:1008C000244DA84203D101250CE000250AE0224D69
:1008D000A84201D1022505E0204DA84201D10325FF
:1008E00000E00525BD402543B560DBF800405D46CE
:1008F0004E689443F60300D514432C607546DEF829
:10090000004000E017E04E689443B60300D514435E
:100910002C600D4D08352C684E689443F60200D5C6
:1009200014432C60084D0C352C684E689443B60275
:1009300000D514432C605B1C0A681446DA407FF42F
:100940005DAFBDE8F88F00000004014000100240D8
:10095000000001400004004800080048000C004866
:1009600001488068704700000400002090F8412092
:10097000202A24D190F84020012A20D0012280F89A
:100980004020242280F841200268136823F00103EC
:1009900013600268136823F48053136002681368BD
:1009A0000B43136001680A6842F001020A602021CB
:1009B00080F84110002180F840100846704702205E
:1009C000704790F84120202A22D190F84020012A37
:1009D0001ED0012280F84020242280F841200268A5
:1009E000136823F0010313600268136823F4706333
:1009F00043EA0121116001680A6842F001020A60BD
:100A0000202180F84110002180F8401008467047EE
:100A100002207047074908B58A6942F001028A61DD
:100A2000896901F00101009103490A6802430A60E3
:100A300008BD0000001002400000014070B5040035
:100A400004D094F84100002510B106E0012070BDEB
:100A500084F84050204600F0ABF9242084F841008F
:100A60002068016821F0010101606068216820F0C0
:100A7000706008612068816821F400418160E0684D
:100A80000128A06807D040F4044021688860E0682D
:100A9000022803D006E040F40040F6E721684FF456
:100AA0000060486020684168114A11434160206835
:100AB000C16821F40041C160D4E904010843A1697F
:100AC00040EA01202168C860D4E907010843216891
:100AD00008602068016841F0010101606564202020
:100AE00084F84100256384F84250002070BD000066
:100AF000008000022DE9FF4F83B00446DDE9108736
:100B000090F84100DDF848909A469346202874D129
:100B10005FEA080014D09FB194F8400001286CD01F
:100B2000012084F84000FFF71BFF064601220090D9
:100B30001923D103204600F0E7FF002871D103E01C
:100B40004FF4007060646CE0222084F84100402083
:100B500084F8420000256564C4F8248067856563D5
:100B6000CDE9009653465A462046049900F052FFBC
:100B700010B184F8405054E0618D3548FF274FF0A4
:100B800080784FF0007AFF2904D927853A464346FA
:100B9000009005E0618D2185009094F8282053464F
:100BA0002046049900F09AFF4B460022042120467B
:100BB000009600F0A9FFA0BB2068406A616A087037
:100BC000606A401C6062208D401E81B22185608D6C
:100BD000401E6085608DD8B1D1B94B46002280217E
:100BE0002046009600F090FFD8B9608DFF2805D907
:100BF00027853A464346009506E026E0608D20852D
:100C0000009594F8282053462046049900F066FF8A
:100C1000608D0028C8D132464946204600F0A0FF2A
:100C200018B1012007B0BDE8F08F21682020C8610D
:100C300021684A68074B1A404A6084F8410084F8EA
:100C4000425084F840500020ECE70220EAE7000020
:100C50000024008000E800FE2DE9FF4F83B0044629
:100C6000DDE9108790F84100DDF848909A469346F8
:100C7000202871D15FEA080014D09FB194F8400099
:100C8000012869D0012084F84000FFF769FE06467C
:100C9000012200901923D103204600F035FF0028DF
:100CA0006ED103E04FF40070606469E0212084F8A5
:100CB0004100402084F8420000256564C4F8248087
:100CC00067856563CDE9009653465A4620460499E8
:100CD00000F0D2FE10B184F8405051E0608DFF2743
:100CE0004FF080784FF0007AFF2804D927853A46E4
:100CF0004346009505E0608D2085009594F82820F6
:100D000053462046049900F0E9FE32464946204603
:100D100000F04CFFA0BB606A216800788862606ABE
:100D2000401C6062608D401E6085208D401E80B238
:100D30002085618DD9B1D0B94B4600228021204653
:100D4000009600F0E1FED8B9608DFF2805D927850F
:100D50003A464346009506E026E0608D20850095E2
:100D600094F8282053462046049900F0B7FE608D81
:100D70000028CAD132464946204600F0F1FE18B19B
:100D8000012007B0BDE8F08F20682021C1612068F4
:100D90004268064B1A40426084F8411084F8425081
:100DA00084F840500020ECE70220EAE700E800FE6B
:100DB00010B586B0044614216846FFF749FA164973
:100DC0002068884226D1154C606940F4802060611B
:100DD0006069694600F480200590C02000901220D0
:100DE00001900120029003200390042004900C48FD
:100DF000FFF7F6FC4FF48030FFF70CFE4FF40030A5
:100E0000FFF708FEE06940F40010E061E06900F4DB
:100E10000010059006B010BD0054004000100240C4
:100E200000040048024881680278114481607047DC
:100E300004000020074810B5016841F0100101606E
:100E4000032000F05FF8002000F006F800F024F81E
:100E5000002010BD0020024070B50D4D04464FF437
:100E60007A712878B1FBF0F00A490968B1FBF0F01B
:100E700000F002FD48B9102C07D200222146501E76
:100E800000F020F800206C6070BD012070BD0000F3
:100E90000400002010000020094808B5816941F0D5
:100EA00001018161816901F001010091C16941F095
:100EB0008051C161C06900F08050009008BD000001
:100EC00000100240F0B40E4B1B680C46C3F3022323
:100ED000C3F10705042D00D90425191D072901D2E6
:100EE000002300E0DB1E012606FA05F1491E214021
:100EF00099409E40761E16403143F0BC01F0AFBAD7
:100F00000CED00E0064900F0070208684FF6FF0309
:100F1000184040EA0220034A10430860704700006E
:100F20000CED00E00000FA052DE9F84F04460068DA
:100F3000574DC0036FD5E8690026C00008D4E869A2
:100F400040F08050E861E869012600F08050009090
:100F500050480168C90512D40168804641F4807187
:100F60000160FFF7FDFC074605E000BFFFF7F8FC56
:100F7000C01B642835D8D8F80000C005F6D5286A0B
:100F800010F4407053D0A18801F4407181424ED0DA
:100F9000286A4FF4803191FAA1F2B2FA82F29700F6
:100FA0003D4A4FF00108174420F44070C7F8008410
:100FB00091FAA1F1B1FA81F102EB81010023C1F8AC
:100FC00000342862C00732D0FFF7CAFC074641F25E
:100FD000883A4FF0020907E0FFF7C2FCC11B5145F8
:100FE00002D90320BDE8F88F99FAA9F1B1FA81F18D
:100FF00041F040014846B8EB511F01D129680CE08F
:1010000090FAA0F1B1FA81F141F04001B0EB511F2B
:1010100002D1296A01E015E0696A99FAA9F0B0FAEB
:1010200080F000F01F0008FA00F21142D4D0286AC4
:10103000616820F44070084328621EB1E86920F01E
:101040008050E8612078C00705D0286BA16820F0A7
:101050000300084328632078800605D5286BE168E3
:1010600020F01000084328632078000605D5E86AC0
:10107000216920F4F8700843E8622088C00405D58F
:10108000286B616920F48070084328630020A9E779
:101090000010024000700040000042422DE9F0477D
:1010A0000F46050069D04A4E306800F00700B8428C
:1010B00009D2306820F0070038433060306800F013
:1010C0000700B84259D12878424C800705D560689E
:1010D000A96820F0F000084360602878C0073DD080
:1010E0006968012001290DD0022923D05FF0020395
:1010F00093FAA3F2B2FA82F242F02002520904D02B
:10110000226803E04FF40033F2E7626A93FAA3F334
:10111000B3FA83F303F01F03984002422DD06068B6
:1011200020F0030008436060FFF71AFC804641F29C
:1011300088390CE04FF00073DAE700BFFFF710FCCE
:10114000A0EB0801494502D90320BDE8F08760689B
:10115000696800F00C00B0EB810FEFD1306800F04F
:101160000700B8420BD9306820F0070038433060E0
:10117000306800F00700B84201D00120E5E7287888
:10118000400705D56068E96820F4E06008436060C6
:101190002878000706D56068296920F4605040EA85
:1011A000C100606000F04EF86168F02292FAA2F28D
:1011B00001F0F001B2FA82F2D140074A515CC84016
:1011C0000649086006480068FFF746FE0020BCE7B5
:1011D000002002400010024096320008100000205B
:1011E0000800002008480949006849684FF4E06297
:1011F00092FAA2F201F4E061B2FA82F2D140044A1A
:10120000515CC840704700001000002000100240F0
:10121000A632000808480949006849684FF460523E
:1012200092FAA2F201F46051B2FA82F2D140044A79
:10123000515CC840704700001000002000100240C0
:10124000A6320008164A10B55168164801F00C0382
:10125000042B20D0082B1ED14FF4701494FAA4F460
:1012600001F47013B4FA84F4E3400F4CD26AE45CE6
:101270000F2393FAA3F302F00F02B3FA83F3DA40D9
:10128000094B1033C9039A5C06D500231946FEF7B3
:1012900097FFA0FB040110BD0448A4FB000110BD92
:1012A0000010024000127A007632000800093D006A
:1012B0002DE9F84F050071D02878FC4EC0074FF09B
:1012C000010425D070686704C0F38100012807D0AD
:1012D0007068C0F3810002281BD17068C00318D564
:1012E00097FAA7F0B0FA80F040F02000400901D052
:1012F000306800E0706A97FAA7F1B1FA81F101F065
:101300001F0104FA01F1084265D068680028D2D0B4
:1013100061E06868B0F5803F0BD010B1B0F5A02F48
:1013200017D0306820F480303060306820F480209E
:1013300002E0306840F480303060F06AA96820F044
:101340000F000843F062686820B3FFF709FB80468E
:101350000AE0306840F480203060EAE7FFF700FBE5
:10136000A0EB0800642871D897FAA7F0B0FA80F0D3
:1013700040F02000400901D0306800E0706A97FA20
:10138000A7F1B1FA81F101F01F0104FA01F108425D
:10139000E4D020E0FFF7E4FA804607E0C2E000BFB7
:1013A000FFF7DEFAA0EB08006428DCD897FAA7F074
:1013B000B0FA80F040F02000400901D0306800E031
:1013C000706A97FAA7F1B1FA81F101F01F0104FAEE
:1013D00001F10842E4D12878DFF8D48280074FF089
:1013E000000A4FF0020730D570684FF0F80B10F08C
:1013F0000C0F07D07068C0F38100022827D17068F5
:10140000C00324D497FAA7F0B0FA80F040F020008F
:10141000400901D0306800E0706A97FAA7F1B1FA8C
:1014200081F101F01F0104FA01F1084202D028699C
:10143000012877D130689BFAABF220F0F801686997
:10144000B2FA82F29040014331605AE064E12869C7
:1014500088B394FAA4F0B0FA80F048F82040FFF77F
:101460007FFA814606E000BFFFF77AFAA0EB090099
:1014700002289AD897FAA7F0B0FA80F040F020003E
:10148000400901D0306800E0706A97FAA7F1B1FA1C
:1014900081F101F01F0104FA01F10842E4D0306843
:1014A0009BFAABF26969B2FA82F220F0F80091403F
:1014B0000843306025E0FFE794FAA4F0B0FA80F02A
:1014C00048F820A0FFF74CFA814605E0FFF748FAFC
:1014D000A0EB09000228CCD897FAA7F0B0FA80F068
:1014E00040F02000400901D0306800E0706A97FAAF
:1014F000A7F1B1FA81F101F01F0104FA01F10842EC
:10150000E4D1287800076CD5A869A8B394FAA4F0B0
:10151000B0FA80F008EB8000C0F88044FFF720FAB2
:10152000814607E0A4E100BFFFF71AFAA0EB09002B
:1015300002289ED897FAA7F0B0FA80F040F0600039
:10154000B4EB501F01D130680BE097FAA7F0B0FA66
:1015500080F040F06000B7EB501F01D1306A00E02E
:10156000706A97FAA7F1B1FA81F101F01F0104FA4C
:1015700001F21042D8D034E0FFE794FAA4F1B1FAB6
:1015800081F108EB8101C1F880A4FFF7E9F98146F8
:1015900006E000BFFFF7E4F9A0EB090002289AD8A3
:1015A00097FAA7F0B0FA80F040F06000B4EB501F5B
:1015B00001D130680BE097FAA7F0B0FA80F040F064
:1015C0006000B7EB501F01D1306A00E0706A97FAF3
:1015D000A7F1B1FA81F101F01F0104FA01F2104202
:1015E000D8D12878400768D5F0694FF00009C000CD
:1015F00009D4F06940F08050F061F0694FF00109C2
:1016000000F0805000902B480168C90512D4016891
:1016100041F480710160FFF7A3F9834606E000BF43
:10162000FFF79EF9A0EB0B00642875D821480068ED
:10163000C005F5D5E86801280AD008B1052811D001
:10164000306A20F001003062306A20F0040002E0CD
:10165000306A40F001003062E86868B3FFF780F953
:1016600083460DE0306A40F004003062F0E700BFCE
:10167000FFF776F9A0EB0B0141F2883081424BD89D
:1016800097FAA7F0B0FA80F040F04000B4EB501F9A
:1016900001D1306813E097FAA7F0B0FA80F040F07B
:1016A0004000B7EB501F09D1306A08E0001002403B
:1016B00000004242007000400CE040E0706A97FA7F
:1016C000A7F1B1FA81F101F01F0104FA01F2104211
:1016D000CED02DE0FFF744F9834607E0FFF740F94D
:1016E000A0EB0B0141F28830814215D897FAA7F0A0
:1016F000B0FA80F040F04000B4EB501F01D13068E8
:101700000CE097FAA7F0B0FA80F040F04000B7EB99
:10171000501F02D1306A01E083E0706A97FAA7F1A6
:10172000B1FA81F101F01F0104FA01F21042D5D1A2
:10173000B9F1000F03D0F06920F08050F061E86942
:1017400080B37168C1F38101022977D04FF08071B5
:101750004F000228504609D091FAA1F1B1FA81F167
:1017600048F82100FFF7FCF805465DE0894691FA4C
:10177000A1F1B1FA81F1C24648F82100FFF7F0F873
:10178000804605E0FFF7ECF8A0EB0800022848D8F7
:1017900097FAA7F0B0FA80F040F02000400902D09C
:1017A000306801E066E0706A97FAA7F1B1FA81F15A
:1017B00001F01F0104FA01F10842E3D1D5E9081054
:1017C0000843716821F474110843706099FAA9F014
:1017D000B0FA80F04AF82040FFF7C2F8054604E06E
:1017E000FFF7BEF8401B02281BD897FAA7F0B0FA03
:1017F00080F040F02000400901D0306800E0706ABD
:1018000097FAA7F1B1FA81F101F01F0104FA01F191
:101810000842E5D02EE000BFFFF7A2F8401B0228E7
:1018200002D90320BDE8F88F97FAA7F0B0FA80F04C
:1018300040F02000400902D0306801E00BE0706AFF
:1018400097FAA7F1B1FA81F101F01F0104FA01F151
:101850000842E1D10EE00128E4D070682A6A00F461
:101860008031914204D1696A00F47010884201D03D
:101870000120D7E70020D5E710B5401EB0F1807FEA
:1018800001D3012010BD4FF0E02460610F216017EB
:1018900000F0E5FD0020A06107202061002010BDC0
:1018A00010B5040002D0606F10B107E0012010BD38
:1018B000002084F87000204600F026F8242060679D
:1018C0002068016821F001010160204600F0AEFCB3
:1018D0000128ECD0606A10B1204600F017FC2068A7
:1018E000416821F4904141602068816821F02A011B
:1018F00081602068016841F0010101602046BDE877
:10190000104000F067BC000010B586B004461421FA
:101910006846FEF79DFC13492068884220D1124892
:10192000C16941F40031C161C16901F4003105911F
:10193000416941F4003141614069694600F4003079
:10194000059048F2040000900220019000200290CF
:1019500003200390072004904FF09040FEF740FFD3
:1019600006B010BD0044004000100240FEE70168D0
:101970008A69D243920701D400228A620068816991
:10198000C943C90703D0816941F0010181617047F2
:101990002DE9F0410446006890460E468069C04338
:1019A000C00633D40025202720688069C043800604
:1019B00015D5701CF8D0FEF7D3FFA0EB0800B0429D
:1019C00001D8002EF0D154F8440F40F0200044F824
:1019D00004096770A57025700120BDE8F0812168B9
:1019E0001020C8612068C7612046FFF7C0FF54F887
:1019F000440B4168064A11404160206840F00400F1
:101A000044F820096777A5772577E5E70020E4E724
:101A100000E800FE2DE9F84304461646DDE9089784
:101A200014489846DAB200900023204600F056F899
:101A30003A464946204600F0B9F8B8B9F5B2B8F1CF
:101A4000010F08D02168300A88623A46494620468C
:101A500000F0ACF850B9206885624B460022402166
:101A60002046009700F050F8002800D00120BDE883
:101A7000F8830000002000802DE9F8430446164654
:101A800015489846DDE90897DAB2C302009020466F
:101A900000F024F83A464946204600F087F8B8B9E5
:101AA000F5B2B8F1010F08D02168300A88623A46D1
:101AB0004946204600F07AF850B9206885624B46C6
:101AC000002280212046009700F01EF8002800D058
:101AD0000120BDE8F883000000200080F0B5056813
:101AE000059C68684FF48066064FC1F3090106EA59
:101AF000545641EA02413E431943B043214308434F
:101B00006860F0BDFF63FF032DE9F0411D461746F5
:101B10000E460446DDF8188008E0681C06D0FEF783
:101B20001FFFA0EB0800A8420BD855B120688069C0
:101B300036EA000012D00020B842EED00020BDE806
:101B4000F08154F8440F40F0200044F804092020AC
:101B500060700020A07020700120F0E70120EBE70A
:101B600070B516460D4604460DE03246294620461D
:101B7000FFF70EFF08B1012070BDFEF7F1FE801BDC
:101B8000A84207D835B120688069C0438006ECD4EC
:101B9000002070BD54F8440F40F0200044F80409C0
:101BA000202060700020A0702070E4E770B5164619
:101BB0000D4604460FE0324629462046FFF7E8FE70
:101BC00008B1012070BD681C05D0FEF7C9FE801B5E
:101BD000A84207D835B120688069C0438007EAD49D
:101BE000002070BD54F8440F40F0200044F8040970
:101BF000202060700020A0702070E2E7114810B52E
:101C00000F49016040F20B21416000210122C0E92F
:101C10000212016141618161C1610162FEF70EFF43
:101C200000B1FEE700210748FEF7A0FE00B1FEE785
:101C300000210448FEF7C5FE002800D0FEE710BDD5
:101C400000540040180000200C4810B50A490160FB
:101C50004FF416414160002181600C22C160C0E94F
:101C600004128161C16101624162FFF719FE00281F
:101C700000D0FEE710BD00000044004064000020DA
:101C8000FEE7704770477047FFF7CCB810B596B0C5
:101C900028216846FEF7DCFA14210AA8FEF7D8FAD4
:101CA00018210FA8FEF7D4FA02200090012004901A
:101CB00010200024059007946846FFF7F9FA00B158
:101CC000FEE70F20CDE90A040C940D9400210AA828
:101CD0000E94FFF7E3F900B1FEE720200F90129475
:101CE0000FA8FFF721F9002800D0FEE716B010BDBD
:101CF0000548016841F47001016003494FF000603C
:101D0000803908607047000088ED00E070B5144C21
:101D100000254FF4FA660021114800F05BF8B4F991
:101D20001210E0696D1C0844E061B4F91410206AD7
:101D3000B54208442062B4F91610606A0844606233
:101D4000E9DBE06990FBF6F0E061206A90FBF6F0D9
:101D50002062606A90FBF6F06062002070BD0000B7
:101D6000E80000202DE9FF41044641F0D00020703A
:101D700000208DF80C00012603AF64250097CDE903
:101D80000165217833466B221148FEF765FFD0B913
:101D900010208DF80C000097CDE901652178012312
:101DA0001C220B48FEF758FF68B908208DF80C007C
:101DB0000097CDE90165217801231B220448FEF735
:101DC0004BFF002800D0012004B0BDE8F0810000E6
:101DD0001800002010B588B041F0D0010446017011
:101DE0004FF47A730E2203A88DE80D0001233B22E5
:101DF0001748FEF77FFEBDF80C009FED161A40BA9B
:101E0000A081BDF80E0040BAE081BDF8100040BAD4
:101E10002082BDF8120040BA00B200EE100AB8EEFF
:101E2000C00AC0EE010A9FED0C0A30EE800A84ED74
:101E3000060ABDF8140040BA6082BDF8160040BA28
:101E4000A082BDF8180040BAE08208B0002010BDA2
:101E5000180000200000AA43B81E124270B50021ED
:101E60002DED088B9748FFF7B5FF964C608AA18B44
:101E7000401A00B26082A18A228C891A0EB2A68210
:101E8000E18AA28C891A0DB2E582FEF705FB9FED6F
:101E90008E8B53EC182BFEF78DFA94ED0C1B53EC44
:101EA000112BFEF7E0F9C4E90C013046FEF7F4FA15
:101EB00053EC182BFEF77EFA94ED0E1B53EC112B0E
:101EC000FEF7D1F9C4E90E012846FEF7E5FA9FEDC9
:101ED000808B53EC182BFEF76DFA41EC100B00F0E1
:101EE0007FFC94ED0E1B51EC100B53EC112BFEF705
:101EF00061FA94ED0C1B53EC112BFEF7B4F9C4E915
:101F00000C01B4F91600FEF7C7FA53EC182BFEF7D4
:101F100051FA41EC100B00F063FC94ED0C1B51ECFA
:101F2000100B53EC112BFEF745FA94ED0E1B53ECFE
:101F3000112BFEF73CFAC4E90E01A08910FB00F159
:101F4000E08910FB0011208A10FB0010FEF7A4FAB4
:101F500041EC100B00F0A8FC51EC100BFEF7ADFAB1
:101F600000EE100AA062B4F90E00B8EEC01A00EE3E
:101F7000900AF8EEE00A80EE810A10EE100AFEF7F1
:101F8000BBFA41EC100B00F07BFA9FED531B51ECB8
:101F9000100B53EC112BFEF70DFAC4E91201B4F942
:101FA0000C0000EE100AF8EEC00A94ED0A0AB8EE32
:101FB000C01A80EE810A10EE100AFEF79DFA41EC7D
:101FC000100B00F05DFA9FED461B51EC100B53EC2B
:101FD000112BFEF7EFF941EC180B434884ED108B01
:101FE00094ED120B006880B39FED40AB51EC100BE9
:101FF00053EC1A2BFEF7DEF994ED0C0B9FED3DBB75
:1020000041EC190B53EC1B2B51EC100BFEF7D2F9E2
:1020100053EC192BFEF727F9C4E90C0153EC1A2BEA
:1020200051EC180BFEF7C6F994ED0E0B41EC180BB2
:1020300053EC1B2B51EC100BFEF7BCF953EC182B97
:10204000FEF711F9C4E90E0104E0FFE784ED0C0B83
:1020500084ED0E8B94ED0C0B9FED28AB51EC100B27
:1020600053EC1A2BFEF7A6F994ED140B9FED259B6C
:1020700041EC180B53EC192B51EC100BFEF79AF9AD
:1020800053EC182BFEF7EFF8C4E9140194ED0E0B96
:1020900053EC1A2B51EC100BFEF78CF994ED160B48
:1020A00041EC180B53EC192B51EC100BFEF782F995
:1020B00053EC182BFEF7D7F8C4E916010020BDEC4D
:1020C000088B70BDE80000209615D4015A04103F1B
:1020D000626E2C656FE2B13ED9CEF753E3A54C405A
:1020E000D9CEF753E3A54CC0000000202D431CEBD4
:1020F000E2363A3F789CA223B9FCEF3F9A9999992E
:102100009999B93FCDCCCCCCCCCCEC3F90F82410F5
:10211000C90706D001684A68836A22F400321A436C
:102120004A6090F82410890706D501684A68C36A96
:1021300022F480321A434A6090F82410490706D5E9
:1021400001684A68036B22F480221A434A6090F8BF
:102150002410090706D501684A68436B22F400423F
:102160001A434A6090F82410C90606D501688A68A7
:10217000836B22F480521A438A6090F824108906F7
:1021800006D501688A68C36B22F400521A438A603C
:1021900090F82410490611D501684A68036C22F4AE
:1021A00080121A434A60016CB1F5801F06D10168A4
:1021B0004A68436C22F4C0021A434A6090F8241023
:1021C000090606D501684A68806C22F400220243A1
:1021D0004A607047F8B500260446C667FEF7C0FBA4
:1021E0000546206800686FF07E47000708D52B463B
:1021F00000224FF400112046009700F0C5F860B9A6
:102200002068006840070AD52B4600224FF4800161
:102210002046009700F0B8F808B10320F8BD202050
:102220006067A06784F870600020F8BD70B5044650
:1022300080682169E26908436169002511432268C9
:1022400008431168494B19400143116020684168F7
:10225000E26821F4405111434160A169206A0843BA
:1022600021688A6822F4306202438A60404920680B
:10227000884210D13F48006B10F0030014D00128B1
:1022800005D0022805D003280DD102200CE004203F
:102290000AE0082008E03849884202D037498842DD
:1022A00001D1002000E01020E2694FF400414FF618
:1022B000EF768A422CD1092851D2DFE800F00508D8
:1022C0001F50225050502500FEF78CFF01E0FEF712
:1022D000A1FF4100D4F8040001EB5001B1FBF0F084
:1022E00080B2A0F11001B14239D84FF6F07101402F
:1022F000C0F3420001432068C16031E020496068BA
:10230000EAE7FEF79FFFE4E74FF480316068E3E718
:10231000092824D2DFE800F0050817231A23232315
:102320001D00FEF75FFF01E0FEF774FF616800EB40
:102330005100B0FBF1F080B2A0F11001B1420ED813
:102340002168C8600CE00F49606803E0FEF77AFF7F
:10235000ECE7606801EB5001B1FBF0F0EBE7012521
:10236000002020666066284670BD0000F369FFEF1C
:102370000038014000100240004400400048004086
:102380000024F40000127A002DE9F0479A4617461F
:102390000E4604464FF000094FF02008089D39E032
:1023A000681C37D0FEF7DCFAA0EB0A00A84222D85E
:1023B0000DB32068016849072CD5C069C0430005EA
:1023C00028D421684FF4006008622068016821F475
:1023D000D07101602068816821F001018160C4F83A
:1023E0007480C4F87880C4F87C8000BF84F8709052
:1023F0000320BDE8F0872068016821F4D0710160F6
:102400002068816821F001018160C4F87480C4F8FB
:102410007880EBE72068C06936EA000004D000202D
:10242000B842BDD00020E4E70120F9E7FEE703B49D
:1024300001984100009850EAC12018BF04204A0DBD
:1024400018BF40F0010040F2FF72B2EB515F08BFCD
:1024500040F00200012808BF052002B070470907BC
:10246000090E002804DB00F1E02080F8001470471A
:1024700000F00F0000F1E02080F8141D704700000C
:1024800070B5C1482DED020B2DED0E8B82B0119D64
:1024900025F000449FEDBEDB9FEDBFEB84423EDBA9
:1024A000A4F140511098A1F17F6108430FD0BC48BE
:1024B000844202DC28D1109830B39DED100B02B09D
:1024C000BDEC0E8B02B0BDE8704000F015BE9DED76
:1024D000100B53EC1D2B51EC100BFDF76BFF9DED1A
:1024E000100B41EC180B53EC1E2B51EC100BFDF7AD
:1024F00061FF53EC182BFDF7B6FE41EC100B02B058
:10250000BDEC0E8B02B070BD012000F031FE02B0B8
:10251000BDEC0E8B02B0BDE8704000F0F9BDA148E3
:102520009FEDA18B844256DA9DED100BB4F1795FDB
:102530000ADA51EC100BFFF77AFF042808BF00F00D
:10254000F7FD9DED100BDAE753EC102B51EC100B5F
:10255000FDF730FF41EC190B95480621B0EE490A12
:10256000F0EE690A784400F0B3FC53EC192B51ECFF
:10257000100BFDF71FFF41EC1A0B8E48B0EE490A15
:10258000F0EE690A0421784400F0A2FC53EC192B08
:1025900051EC100BFDF70EFF53EC182BFDF763FE0B
:1025A00041EC100B51EC1A0B53EC102BFEF735F8E5
:1025B000CDE900019DED000B53EC102B9DED100BB0
:1025C00051EC100BFDF7F6FE9DED101B53EC112B9B
:1025D000FDF749FED2E09DED100B51EC100B00F021
:1025E000CDFD53EC182BFDF7E2FE9FED730BCDE90B
:1025F000000153EC102B9DED000B51EC100BFDF77F
:10260000D9FE41EC190B6E480621B0EE490AF0EEF6
:10261000690A784400F05CFC53EC192B51EC100B68
:10262000FDF7C8FE41EC1B0B6648B0EE490AF0EE20
:10263000690A0421784400F04BFC53EC192B51EC4F
:10264000100BFDF7B7FE53EC182BFDF70CFE41EC19
:102650001C0B51EC190B00F0D7FD41EC180B5A483C
:102660009FED5BABA04222DC53EC1C2B51EC1B0B0F
:10267000FDF7D3FFCDE900019DED000B51EC180BE8
:1026800053EC102BFDF796FE53EC182BFDF7EBFDEA
:1026900053EC1A2BFDF78EFE53EC1D2BFDF784FE39
:1026A00053EC1E2BFDF783FE41EC100B5FE08DED2C
:1026B000008B002000909DED000B51EC180B53ECAB
:1026C000102BFDF7D0FD9DED000B41EC1E0B53ECE4
:1026D000102B51EC100BFDF76DFE53EC192BFDF791
:1026E00066FE53EC1E2BFDF798FF41EC190B53ECE3
:1026F0001C2B51EC1B0BFDF790FF41EC1B0B53EC1B
:102700001A2B51EC190BFDF755FE53EC1D2BFDF761
:102710004EFE41EC190B53EC1A2B51EC180BFDF744
:1027200049FE53EC1B2BFDF745FE53EC192BFDF72F
:102730003BFE9DED000B41EC180B53EC1A2B51ECBA
:10274000100BFDF737FE9FED249B53EC192BFDF783
:102750002EFE41EC100B51EC180B53EC102BFDF737
:1027600023FE53EC192BFDF722FE41EC100B002D3C
:102770003FF7C5AE51EC100B81F0004141EC100B5E
:10278000BDE60000000000000000F03F0000000077
:10279000075C143326A6913C182D4454FB21F93FC5
:1027A0000000F07F0000E03F000000000000F03F6C
:1027B000480D0000560D0000000000000000E03F42
:1027C0009A0C0000A80C00003333EF3F000000001B
:1027D0000000000000000040182D4454FB21E93F98
:1027E00010B52F499FED2C1B2DED020B84B00598E1
:1027F00020F000408842DCBF00209DED040B32DD5C
:102800002849884209D1049840B94FF0010000F0EE
:10281000AFFC00F07DFC06B010BD05DB9DED040BA8
:1028200000F06AFC06B010BD68469DED040B00F098
:102830007BF810F0030011D0012818D09DED021B89
:102840009DED000B02281AD000F08AFA51EC100B13
:1028500081F0004106B041EC100B10BD9DED021B54
:102860009DED000B012000F0AFFB06B010BD9DED0B
:10287000021B9DED000B00F073FA06B010BD0120A5
:1028800000F0A2FB51EC100B81F0004106B041ECCE
:10289000100B10BD00000000000000000000000050
:1028A000FB21E93F0000F07F00B52DED048BB0EE79
:1028B000409AF0EE609A83B051EC190BFDF71CFFC3
:1028C00041EC180B18EE100A18EE901A8DED008BE3
:1028D000002818BF0120084320F00040C0F17F60AD
:1028E00000F1E040C00F14D019EE101A19EE900A52
:1028F0008DED009B002918BF0121084320F0004006
:10290000C0F17F6000F1E040C00F04BF012000F083
:102910002FFCB0EE480A03B0F0EE680ABDEC048B61
:1029200000BD0000000000002DE9F14F04462DED30
:10293000020B2DED088B8AB09FEDE70B80ED020BAB
:10294000139EE74826F0004585420ADC9DED120BF8
:10295000002084ED000B0AB0BDEC088B03B0BDE88D
:10296000F08FE0489FEDE0AB9FEDE1BBA84247DD73
:10297000E14F9FEDE39B9FEDE48B9DED120B53EC3C
:102980001A2B51EC100B002E1CDDFDF70DFD41EC58
:10299000100BBD4208D053EC1B2B51EC100BFDF774
:1029A00003FDC4E900010BE053EC192B51EC100BB3
:1029B000FDF7FAFC53EC182BFDF7F6FCC4E9000117
:1029C0000120C8E7FDF74FFC41EC100BBD4208D0D9
:1029D00053EC1B2B51EC100BFDF745FCC4E9000137
:1029E0000BE053EC192B51EC100BFDF73CFC53ECB6
:1029F000182BFDF738FCC4E900014FF0FF30AAE7BF
:102A0000C348A84279DB9DED120B51EC100B00F08E
:102A1000B5FB41EC180B9FEDC00B53EC102BFDF7F1
:102A2000C9FC9FEDBF1B53EC112BFDF71CFCFDF700
:102A300044FD0746FDF730FD41EC190B53EC1A2B12
:102A4000FDF7B8FC53EC182BFDF7B1FC41EC180B6B
:102A500053EC1B2B51EC190BFDF7ACFCDFF8C8A2B3
:102A600041EC100B4FEA15580125FA4453EC102B9A
:102A700051EC180BFDF798FC032DC4E900013DD083
:102A8000C1F30A5005EB4511A8EB00001139814252
:102A900034DA0AEB051BB0EE48AA9BED000BF0EE12
:102AA00068AA53EC102B51EC190BFDF783FC41EC99
:102AB0001B0B51EC1A0B53EC1B2BFDF775FC41EC77
:102AC000180B51EC1A0B53EC182BFDF76DFC53EC63
:102AD0001B2BFDF769FC9BED020B41EC1A0B53EC31
:102AE000102B51EC190BFDF765FC53EC1A2BFDF77D
:102AF0005BFC41EC100B6D1CB8E70EE0002EA8BF8C
:102B00003846BFF628AF94ED000B51EC100B81F066
:102B10000041C4E9000178421DE7C6F3130040F408
:102B2000801EC6F30A50A0F2F530471100F01F05D1
:102B3000C5F12000DDF848B008900020069007900D
:102B40000520EC467949002D07EB0002794408BFC7
:102B500051F8221009D051F8223001EB8201AB402C
:102B60004A68089922FA01F11943A1FB0E26A1FB3C
:102B70000B131A449A4234BF0123002303EB0608C7
:102B80000CEB8003D3E901A60E448E4234BF012131
:102B9000002192448A4411B1924502D903E0924542
:102BA00001D2012100E00021C3E901A641444CF813
:102BB0002010011EA0F10100C4DC029800F10050B9
:102BC000850F0298DDE903678000DDF81480FDF7CA
:102BD00063FC41EC1A0B3046FDF7F2FD9FED541BF0
:102BE00053EC112BFDF7E6FB41EC1B0B3846FDF7D0
:102BF000E7FD9FED511B53EC112BFDF7DBFB41EC87
:102C0000180B4046FDF7DCFD9FED4D1B53EC112BDF
:102C1000FDF7D0FB41EC190B51EC180B53EC192BC1
:102C2000FDF721FB53EC1B2BFDF71DFB53EC1A2B7F
:102C3000FDF719FBCDE90801002008909DED080B78
:102C400053EC1A2B51EC100BFDF7AEFB53EC1B2B86
:102C5000FDF7AAFB53EC182BFDF7A6FB53EC192B41
:102C6000FDF7A5FB9FED381B53EC112BFDF7A2FBE5
:102C70009FED370B41EC180B53EC102B9DED080B1F
:102C800051EC100BFDF796FB53EC182BFDF7EBFA0C
:102C90009FED310B41EC180B53EC102B9DED080B05
:102CA00051EC100BFDF786FB53EC182BFDF7DBFA0C
:102CB00041EC100B139810F0004F06D06D4251EC10
:102CC000100B81F0004141EC100B284684ED000B05
:102CD00041E60000000000000000000000000000CD
:102CE000FB21E93F7CD9024000004054FB21F93F21
:102CF0003163621A61B4D03DFB21F93F000000004E
:102D00000000601A61B4D03D7370032E8A19A33B92
:102D1000FB2139410000000083C8C96D305FE43FEA
:102D2000000000000000E03FC208000010080000A2
:102D3000000000000000103E000000000000103CF9
:102D4000000000000000103A182D4454FB21F93D0A
:102D50003326A611460B113C00000054FB21F93D1F
:102D600010B52DED040B2DED088B82B0B0EE419A1D
:102D7000F0EE619A0B9820F000449FED4BABB4F15C
:102D8000795F11DA9DED0A0B51EC100BFDF795FB05
:102D9000002801BFB0EE4A0AF0EE6A0A02B0BDECAC
:102DA000088B04BF04B010BD9DED0A0B53EC102B33
:102DB00051EC100BFDF7FEFA41EC180B3C480621D4
:102DC000B0EE480AF0EE680A784400F081F853EC5F
:102DD000182B51EC100BFDF7EDFA9DED0A0B41ECB1
:102DE0001B0B53EC192B51EC100BFDF7E3FA41ECE4
:102DF000190B53EC1B2B51EC180BFDF7DBFA53ECC2
:102E0000192BFDF7D1FA9FED2C0B41EC190B53EC6C
:102E1000102B51EC180BFDF7CDFA41EC100B2848A4
:102E2000844210DA53EC192B51EC100BFDF7BCFA6D
:102E300053EC1A2BFDF7BBFA41EC100B02B0BDECC2
:102E4000088B04B010BD1F48A042BCBF9FED1E1BE5
:102E50008DED001B06DBA4F5001001900020009012
:102E60009DED001B51EC100B53EC112BFDF79CFA60
:102E70009DED000B41EC180B53EC102B51EC1A0B91
:102E8000FDF792FA41EC1A0B53EC192B51EC180B8D
:102E9000FDF78AFA53EC1A2BFDF789FA41EC100B77
:102EA000CCE7000000000000000000000000F03F40
:102EB0003405000000000000000000000000E03FBA
:102EC0003333D33F0000E93F000000000000D23F51
:102ED00070B504462DED028B4D1E00EBC500B0EE23
:102EE000408AF0EE608A90ED000B35F0060017D0B6
:102EF00053EC182B51EC100BFDF75CFA41EC100B66
:102F00006D1E04EBC50090ED001B51EC100B53EC53
:102F1000112BFDF7A8F941EC100B35F00600E7D1B5
:102F2000022D36D0042D1CD0062D1CBFBDEC028B0B
:102F300070BD53EC182B51EC100BFDF73BFA94EDE0
:102F40000A1B53EC112BFDF78EF953EC182BFDF7F0
:102F500031FA94ED081B53EC112BFDF784F941EC89
:102F6000100B53EC182B51EC100BFDF723FA94EDDA
:102F7000061B53EC112BFDF776F953EC182BFDF7DC
:102F800019FA94ED040B53EC102BFDF76CF941EC9E
:102F9000100B53EC182B51EC100BFDF70BFA94EDC2
:102FA000021B53EC112BFDF75EF953EC182BFDF7C8
:102FB00001FA94ED001B53EC112BFDF754F9BDEC15
:102FC000028B41EC100B70BD31B504462DED040BA6
:102FD0002DED0A8BB0EE41BAF0EE61BA0B989DED83
:102FE0000A0B20F00040B0F1795F0DDA51EC100BC4
:102FF000FFF71DFA042808BF00F09AF89DED0A0BB0
:10300000BDEC0A8B05B030BD53EC102B51EC100B0E
:10301000FDF7D0F941EC180B9DED0A0B53EC182B82
:1030200051EC100BFDF7C6F941EC190B2C48B0EE32
:10303000480AF0EE680A05217844FFF749FF9FED42
:103040002ACBB0EE40AAF0EE60AA9CB353EC1C2B46
:1030500051EC190BFDF7AEF941EC1C0B53EC1A2B9C
:1030600051EC190BFDF7A6F99FED210B41EC190B63
:1030700053EC102B51EC1B0BFDF79CF953EC192B67
:10308000FDF792F953EC182BFDF794F953EC1B2B39
:10309000FDF78AF953EC1C2BFDF786F99DED0A1B11
:1030A00053EC112BFDF783F9BDEC0A8B05B041EC15
:1030B000100B30BDFFE753EC1A2B51EC180BFDF74A
:1030C00079F953EC1C2BFDF7CEF853EC192BFDF7D7
:1030D00071F99DED0A1B53EC112BFDF7C4F8E3E7E2
:1030E000BC03000000000000495555555555C5BFAB
:1030F000000000000000E03F10B553EC102B51EC35
:10310000100BFDF7B0F841EC100B10BD00000000F3
:103110009FED050B10B553EC102B51EC100BFDF788
:103120007CFA41EC100B10BD000000000000000014
:103130009FED050B10B553EC102B51EC100BFDF768
:1031400039F941EC100B10BD000000000000001028
:1031500002E008C8121F08C1002AFAD17047704760
:10316000002001E001C1121F002AFBD170470000BE
:1031700001490860704700001400002082B0CDE9CA
:10318000000121F0004001909DED000B02B051ECD8
:10319000100B704708B5FDF74DFEFEF777FD184898
:1031A000416941F480014161416901F4800100916C
:1031B000416941F400314161416901F400310091FC
:1031C000416941F480214161406900F48020009010
:1031D000FEF714FDFEF738FD00210A48FEF7C2FD98
:1031E00000B1FEE700210748FEF790FD00B1FEE7C1
:1031F00000210448FEF732FE0028F9D0FEE7000067
:1032000000100240E800002000B52DED048B83B0D3
:1032100041EC190BFDF770FA41EC180B18EE100A8F
:1032200018EE901A8DED008B002818BF012008437E
:1032300020F00040C0F17F6000F1E040C00F14D0EA
:1032400019EE101A19EE900A8DED009B002918BF97
:103250000121084320F00040C0F17F6000F1E04010
:10326000C00F04BF0120FFF783FF51EC180B03B020
:10327000BDEC048B00BD02030405060708090A0B18
:103280000C0D0E0F10100102030405060708090AB1
:103290000B0C0D0E0F1000000000000000000102DA
:1032A00003040607080900000000010203040000EF
:1032B000555555555555C53F7D6FEB0312D6D4BFB7
:1032C0005544880E55C1C93F3B8F68B52882A4BFBD
:1032D00088B20175E0EF493F09F7FD0DE13D023F7E
:1032E0004B2D8A1C273A03C0C88A599CE52A004006
:1032F00059018D1B6C06E6BF82922EB1C5B8B33F53
:103300004C5555555555A53F7751C1166CC156BF03
:103310009015CB19A001FA3EAD529C804F7E92BE13
:10332000C4B1B4BD9EEE213ED43888BEE9FAA8BD32
:1033300000004054FB21F93F3163621A61B4D03D73
:103340000000601A61B4D03D7370032E8A19A33B4C
:103350000000002E8A19A33BC14920259A837B399E
:1033600000000000000000006E83F9A22915444E01
:10337000D15727FCC0DD34F5999562DB4190433C81
:10338000AB6351FE61C5BBDE3A6E24B7E0D24D425D
:10339000EA2E49061C92D1091CEB1DFE3EA729B15D
:1033A000F53582E88444BB2E26709CE9417E5FB4EB
:1033B00039D69139F43953838B5F849C3B28F9BD0E
:1033C000FF97F81F0F9805DE8B112FEF1F6D0A5A1C
:1033D000CF7E366DB709CB27663F464F2DEA5F9EFD
:1033E000C7BA27757BF1E5EBF739073DEA92528AB8
:1033F000B15FFB6B085D8D1FA6F810111111813FA5
:10340000D561C119A0012ABF7DFEB157E31DC73E9A
:10341000EB9C2B8AE6E55ABE7CD5CF5A3AD9E53DDE
:10342000403400080000002018000000503100085F
:1034300058340008180000203005000060310008F2
:10344000010000000100000010000000000000006A
:0834500000127A0000000000E8
:040000050800018965
:00000001FF
