:020000040800F2
:10000000980600209D010008272300086B1E0008A9
:100010002523000899060008FB24000800000000C2
:100020000000000000000000000000002B2300087A
:100030009B06000800000000292300082D2300086B
:10004000B7010008B7010008B7010008B7010008B0
:10005000B7010008B7010008B7010008B7010008A0
:10006000B7010008B7010008B7010008B701000890
:10007000B7010008B7010008B7010008B701000880
:10008000B7010008B7010008B7010008B701000870
:10009000B7010008B7010008B7010008B701000860
:1000A000B7010008B7010008B7010008B123000834
:1000B000BD230008B701000800000000B7010008D8
:1000C000B70100080000000000000000B7010008B0
:1000D00000000000B7010008B7010008B7010008E0
:1000E000B7010008B7010008000000000000000090
:1000F0000000000000000000000000000000000000
:1001000000000000000000000000000000000000EF
:100110000000000000000000B7010008B70100085F
:1001200000000000000000000000000000000000CF
:1001300000000000000000000000000000000000BF
:10014000B7010008B701000800000000000000002F
:10015000000000000000000000000000000000009F
:10016000000000000000000000000000000000008F
:10017000000000000000000000000000000000007F
:1001800000000000B7010008DFF80CD000F072FAA0
:1001900000480047B525000898060020064880471B
:1001A00006480047FEE7FEE7FEE7FEE7FEE7FEE75C
:1001B000FEE7FEE7FEE7FEE7952300088901000859
:1001C0002DE9F05F0546002092469B46884606468C
:1001D000814640241BE0284641464746224600F01F
:1001E00020F853465A46C01A914110D3114618467A
:1001F000224600F08AF92D1A67EB01084F46224685
:100200000120002100F081F917EB00094E41201E6A
:10021000A4F10104DFDC484631462A464346BDE8E6
:10022000F09F202A04DB203A21FA02F000217047D7
:1002300021FA02F3D040C2F120029140084319464E
:100240007047D2B201E000F8012B491EFBD2704783
:100250000022F6E710B513460A4604461946FFF792
:10026000F0FF204610BD2DE9FE4F804681EA0300D5
:10027000C00F0C46009021F0004123F00045B8EB80
:100280000200A94105D24046214690461C460B4635
:10029000024623F00040104347D0270DC7F30A0061
:1002A000C3F30A510290401A019040286BDAC3F35D
:1002B000130040F4801B0098924620B10023D2EB3B
:1002C000030A63EB0B0B01985946C0F140025046FC
:1002D00000F01BF906460D4650465946019A00F0BB
:1002E00023F910EB08006141002487EA115284EAE7
:1002F000E7731A4340D0009A62B3019A012A4FEA89
:10030000075215DC001B61EB02014FF0004202EACC
:100310000752CDE90042001C41F5801132462B46C0
:1003200000F05AF903B0BDE8F08F40462146F9E7E6
:10033000001B61EB0201001C41F5801300185B41BA
:100340002018A2F5001747EB030140EAD570B61953
:100350006D4111E06D084FEA360645EAC0754FEA77
:100360000752001B61EB0201001C41F58011490896
:100370004FEA30000019514132462B4603B0BDE828
:10038000F04F00F01AB90098012240000023D0EB92
:10039000020263EBE073009821464FEAE074B8EB89
:1003A000000061EB0401E9E783F000435BE781F0C3
:1003B000004158E72DE9F04D81EA030404F0004BB9
:1003C00021F0004514464FF0000A23F0004150EAA6
:1003D000050220D054EA01021DD0C5F30A57024697
:1003E000C5F31303C1F31300C1F30A5640F480159B
:1003F00043F48013A7EB0608101BD64608F2FD381D
:1004000073EB050002D308F1010801E092185B418B
:10041000B8F1000F03DA00200146BDE8F08D00209E
:100420004FF48011064684460EE0171B73EB050758
:1004300005D3121B63EB050306434CEA010C490884
:100440004FEA300092185B4150EA0107EDD152EAC1
:10045000030012D082EA040083EA0501084305D0B4
:10046000101BAB4106D20122002306E000224FF010
:10047000004302E06FF0010253101AEB06004CEB50
:10048000085110EB0A0041EB0B01BDE8F04D00F004
:1004900094B80EB540F2334102910021CDE900112C
:1004A0000A460B4600F098F803B000BD00F0004289
:1004B00030F000400AD0C10D01F56071C0F31600A4
:1004C00042EA0151C208400711437047002001462B
:1004D000704701F0004330B421F0004150EA0102BE
:1004E00006D00A0DA2F56072C1F31301002A02DCE6
:1004F00030BC00207047440F44EAC104C100E0183A
:1005000030BC00EBC25000F021B8202A04DB203AB6
:1005100000FA02F1002070479140C2F1200320FA56
:1005200003F3194390407047202A06DBCB17203A8B
:1005300041FA02F043EAE07306E041FA02F3D040E8
:10054000C2F1200291400843194670470029A8BF14
:100550007047401C490008BF20F00100704710B4EC
:10056000B0FA80FC00FA0CF050EA010404BF10BCA1
:10057000704749B1CCF1200421FA04F411FA0CF1CE
:1005800018BF012121430843A3EB0C01CB1D4FEA07
:1005900000614FEA102042BF002010BC704700EB02
:1005A000C35010440029A4BF10BC7047401C490030
:1005B00008BF20F0010010BC704710B5141E73F185
:1005C000000408DA401C41F1000192185B411A4313
:1005D00001D120F0010010BD2DE9F04D92469B465F
:1005E00011B1B1FA81F202E0B0FA80F22032904605
:1005F000FFF78BFF04460F4640EA0A0041EA0B0171
:1006000053465A46084313D0114653EA010019D005
:10061000C8F140025046FFF704FE05460E4650461C
:1006200059464246FFF771FF084305D0012004E018
:1006300020463946BDE8F08D0020054346EAE076C5
:100640002C4337430A986305E40AA0EB0800002214
:10065000FD0A44EA47540A3002D500200146E9E782
:10066000010510196941DDE9084500196941BDE836
:10067000F04DA2E7064C074D06E0E06840F00103AC
:1006800094E8070098471034AC42F6D3FFF780FD9A
:10069000402F0008602F0008FEE7704770470000F9
:1006A00070B5044600F0D4F80546601C02D004483A
:1006B0000078044400F0CCF8401BA042FAD370BD8F
:1006C000B80000202DE9F84FDFF860B100234FF0AB
:1006D000010C4FF0030A4FF00F090BF1040E9DE0DF
:1006E0000CFA03F6344022007ED04C68022C01D074
:1006F000122C0ED1DC0800EB8408D8F820405D07EE
:10070000EF0E09FA07F5AC430D69BD402543C8F863
:10071000205007685D0091F804800AFA05F408F09B
:100720000308A74308FA05F848EA0708C0F800805C
:100730004F68012F05D0022F03D0112F01D0122FA7
:1007400011D18768D1F80C80A74308FA05F848EA68
:100750000708C0F808804768B7430E79C6F300164B
:100760009E403E434660C668A6438C68AC40344316
:10077000C4604C68E40050D52D4CA56945F00105D6
:10078000A561A46923F0030504F001040094294C39
:100790002E19B4689D072F0F09FA07F5AC43B0F185
:1007A000904F04D0244DA84203D101250CE0002530
:1007B0000AE0224DA84201D1022505E0204DA842C1
:1007C00001D1032500E00525BD402543B560DBF8D8
:1007D00000405D464E689443F60300D514432C60F8
:1007E0007546DEF8004000E017E04E689443B6031B
:1007F00000D514432C600D4D08352C684E68944389
:10080000F60200D514432C60084D0C352C684E6858
:100810009443B60200D514432C605B1C0A6814464E
:10082000DA407FF45DAFBDE8F88F000000040140BE
:100830000010024000000140000400480008004889
:10084000000C00480AB18161704781627047000066
:100850000148806870470000B800002090F84120EF
:10086000202A24D190F84020012A20D0012280F8AB
:100870004020242280F841200268136823F00103FD
:1008800013600268136823F48053136002681368CE
:100890000B43136001680A6842F001020A602021DC
:1008A00080F84110002180F840100846704702206F
:1008B000704790F84120202A22D190F84020012A48
:1008C0001ED0012280F84020242280F841200268B6
:1008D000136823F0010313600268136823F4706344
:1008E00043EA0121116001680A6842F001020A60CE
:1008F000202180F84110002180F840100846704700
:100900000220704770B5040004D094F8410000251F
:1009100010B106E0012070BD84F84050204600F080
:10092000ABF9242084F841002068016821F001011E
:1009300001606068216820F070600861206881684B
:1009400021F400418160E0680128A06807D040F4EC
:10095000044021688860E068022803D006E040F483
:100960000040F6E721684FF4006048602068416865
:10097000114A114341602068C16821F40041C160FF
:10098000D4E904010843A16940EA01202168C86054
:10099000D4E907010843216808602068016841F034
:1009A000010101606564202084F84100256384F81A
:1009B0004250002070BD0000008000022DE9FF4F72
:1009C00083B00446DDE9108790F84100DDF84890D7
:1009D0009A469346202874D15FEA080014D09FB14C
:1009E00094F8400001286CD0012084F84000FFF703
:1009F0002FFF0646012200901923D103204601F063
:100A000003FB002871D103E04FF4007060646CE0D8
:100A1000222084F84100402084F8420000256564CB
:100A2000C4F8248067856563CDE9009653465A462D
:100A30002046049901F06EFA10B184F8405054E059
:100A4000618D3548FF274FF080784FF0007AFF29FD
:100A500004D927853A464346009005E0618D2185FB
:100A6000009094F8282053462046049901F0B6FAE5
:100A70004B46002204212046009601F0C5FAA0BB97
:100A80002068406A616A0870606A401C6062208D5C
:100A9000401E81B22185608D401E6085608DD8B179
:100AA000D1B94B46002280212046009601F0ACFAD5
:100AB000D8B9608DFF2805D927853A464346009569
:100AC00006E026E0608D2085009594F828205346A6
:100AD0002046049901F082FA608D0028C8D1324680
:100AE0004946204601F0BCFA18B1012007B0BDE824
:100AF000F08F21682020C86121684A68074B1A409E
:100B00004A6084F8410084F8425084F84050002044
:100B1000ECE70220EAE700000024008000E800FE85
:100B20002DE9FF4F83B00446DDE9108790F84100BE
:100B3000DDF848909A469346202871D15FEA080074
:100B400014D09FB194F84000012869D0012084F8A6
:100B50004000FFF77DFE0646012200901923D103D5
:100B6000204601F051FA00286ED103E04FF40070E6
:100B7000606469E0212084F84100402084F842004C
:100B800000256564C4F8248067856563CDE9009617
:100B900053465A462046049901F0EEF910B184F804
:100BA000405051E0608DFF274FF080784FF0007A81
:100BB000FF2804D927853A464346009505E0608D15
:100BC0002085009594F8282053462046049901F08A
:100BD00005FA32464946204601F068FAA0BB606A31
:100BE000216800788862606A401C6062608D401EE7
:100BF0006085208D401E80B22085618DD9B1D0B92D
:100C00004B46002280212046009601F0FDF9D8B91C
:100C1000608DFF2805D927853A464346009506E0B2
:100C200026E0608D2085009594F8282053462046C4
:100C3000049901F0D3F9608D0028CAD132464946A3
:100C4000204601F00DFA18B1012007B0BDE8F08F81
:100C500020682021C16120684268064B1A4042602A
:100C600084F8411084F8425084F840500020ECE7AA
:100C70000220EAE700E800FE10B586B00446142121
:100C80006846FFF7E5FA1249206888421ED1114CE8
:100C9000606940F4802060616069694600F48020EA
:100CA0000590C020009012200190012002900320A6
:100CB0000390042004900848FFF704FDE06940F425
:100CC0000010E061E06900F40010059006B010BD6E
:100CD00000540040001002400004004802488168AF
:100CE0000278114481607047B8000020074810B5B1
:100CF000016841F010010160032000F06DF8002050
:100D000000F006F800F024F8002010BD002002409A
:100D100070B50D4D04464FF47A712878B1FBF0F0B0
:100D20000A490968B1FBF0F000F068FD48B9102CE1
:100D300007D200222146501E00F02EF800206C60E1
:100D400070BD012070BD0000B8000020C40000206C
:100D5000094808B5816941F001018161816901F0AB
:100D600001010091C16941F08051C161C06900F089
:100D70008050009008BD000000100240002809DBF0
:100D800000F01F02012191404009800000F1E020A5
:100D9000C0F8001170470000F0B40E4B1B680C4601
:100DA000C3F30223C3F10705042D00D90425191D3F
:100DB000072901D2002300E0DB1E012606FA05F117
:100DC000491E214099409E40761E16403143F0BC9A
:100DD00001F094BB0CED00E0064900F00702086842
:100DE0004FF6FF03184040EA0220034A1043086010
:100DF000704700000CED00E00000FA052DE9F84F07
:100E000004460068574DC0036FD5E8690026C0004E
:100E100008D4E86940F08050E861E869012600F0F4
:100E20008050009050480168C90512D4016880467E
:100E300041F480710160FFF70BFD074605E000BF3C
:100E4000FFF706FDC01B642835D8D8F80000C005A0
:100E5000F6D5286A10F4407053D0A18801F440718F
:100E600081424ED0286A4FF4803191FAA1F2B2FA51
:100E700082F297003D4A4FF00108174420F4407079
:100E8000C7F8008491FAA1F1B1FA81F102EB810176
:100E90000023C1F800342862C00732D0FFF7D8FC25
:100EA000074641F2883A4FF0020907E0FFF7D0FC0D
:100EB000C11B514502D90320BDE8F88F99FAA9F169
:100EC000B1FA81F141F040014846B8EB511F01D120
:100ED00029680CE090FAA0F1B1FA81F141F04001EB
:100EE000B0EB511F02D1296A01E015E0696A99FA55
:100EF000A9F0B0FA80F000F01F0008FA00F21142E9
:100F0000D4D0286A616820F44070084328621EB17A
:100F1000E86920F08050E8612078C00705D0286B90
:100F2000A16820F00300084328632078800605D5D7
:100F3000286BE16820F01000084328632078000641
:100F400005D5E86A216920F4F8700843E862208832
:100F5000C00405D5286B616920F4807008432863BC
:100F60000020A9E70010024000700040000042424B
:100F70002DE9F0470F46050069D04A4E306800F071
:100F80000700B84209D2306820F0070038433060CB
:100F9000306800F00700B84259D12878424C8007E9
:100FA00005D56068A96820F0F000084360602878E3
:100FB000C0073DD06968012001290DD0022923D046
:100FC0005FF0020393FAA3F2B2FA82F242F0200237
:100FD000520904D0226803E04FF40033F2E7626A5A
:100FE00093FAA3F3B3FA83F303F01F03984002428A
:100FF0002DD0606820F0030008436060FFF728FCF4
:10100000804641F288390CE04FF00073DAE700BF08
:10101000FFF71EFCA0EB0801494502D90320BDE8FB
:10102000F0876068696800F00C00B0EB810FEFD1C9
:10103000306800F00700B8420BD9306820F0070094
:1010400038433060306800F00700B84201D001201A
:10105000E5E72878400705D56068E96820F4E06096
:10106000084360602878000706D56068296920F485
:10107000605040EAC100606000F01EF86168F02234
:1010800092FAA2F201F0F001B2FA82F2D140074ADC
:10109000515CC8400649086006480068FFF738FE02
:1010A0000020BCE70020024000100240302F000862
:1010B000C4000020BC000020164A10B55168164834
:1010C00001F00C03042B20D0082B1ED14FF4701418
:1010D00094FAA4F401F47013B4FA84F4E3400F4CCE
:1010E000D26AE45C0F2393FAA3F302F00F02B3FA7F
:1010F00083F3DA40094B1033C9039A5C06D5002309
:101100001946FFF75DF8A0FB040110BD0448A4FBDD
:10111000000110BD0010024000127A00102F0008DC
:1011200000093D002DE9F84F050071D02878FC4EEC
:10113000C0074FF0010425D070686704C0F3810038
:10114000012807D07068C0F3810002281BD17068A5
:10115000C00318D597FAA7F0B0FA80F040F020004D
:10116000400901D0306800E0706A97FAA7F1B1FA3F
:1011700081F101F01F0104FA01F1084265D06868AD
:101180000028D2D061E06868B0F5803F0BD010B184
:10119000B0F5A02F17D0306820F480303060306870
:1011A00020F4802002E0306840F480303060F06A43
:1011B000A96820F00F000843F062686820B3FFF7C9
:1011C00047FB80460AE0306840F480203060EAE760
:1011D000FFF73EFBA0EB0800642871D897FAA7F050
:1011E000B0FA80F040F02000400901D0306800E003
:1011F000706A97FAA7F1B1FA81F101F01F0104FAC0
:1012000001F10842E4D020E0FFF722FB804607E02E
:10121000C2E000BFFFF71CFBA0EB08006428DCD88D
:1012200097FAA7F0B0FA80F040F02000400901D012
:10123000306800E0706A97FAA7F1B1FA81F101F025
:101240001F0104FA01F10842E4D12878DFF8D482C2
:1012500080074FF0000A4FF0020730D570684FF05A
:10126000F80B10F00C0F07D07068C0F38100022853
:1012700027D17068C00324D497FAA7F0B0FA80F0A1
:1012800040F02000400901D0306800E0706A97FA11
:10129000A7F1B1FA81F101F01F0104FA01F108424E
:1012A00002D02869012877D130689BFAABF220F090
:1012B000F8016869B2FA82F29040014331605AE065
:1012C00064E1286988B394FAA4F0B0FA80F048F891
:1012D0002040FFF7BDFA814606E000BFFFF7B8FAED
:1012E000A0EB090002289AD897FAA7F0B0FA80F08C
:1012F00040F02000400901D0306800E0706A97FAA1
:10130000A7F1B1FA81F101F01F0104FA01F10842DD
:10131000E4D030689BFAABF26969B2FA82F220F04D
:10132000F80091400843306025E0FFE794FAA4F00C
:10133000B0FA80F048F820A0FFF78AFA814605E06D
:10134000FFF786FAA0EB09000228CCD897FAA7F09D
:10135000B0FA80F040F02000400901D0306800E091
:10136000706A97FAA7F1B1FA81F101F01F0104FA4E
:1013700001F10842E4D1287800076CD5A869A8B328
:1013800094FAA4F0B0FA80F008EB8000C0F8804432
:10139000FFF75EFA814607E0A4E100BFFFF758FAC5
:1013A000A0EB090002289ED897FAA7F0B0FA80F0C7
:1013B00040F06000B4EB501F01D130680BE097FAA9
:1013C000A7F0B0FA80F040F06000B7EB501F01D1F9
:1013D000306A00E0706A97FAA7F1B1FA81F101F082
:1013E0001F0104FA01F21042D8D034E0FFE794FA6A
:1013F000A4F1B1FA81F108EB8101C1F880A4FFF7F3
:1014000027FA814606E000BFFFF722FAA0EB0900A9
:1014100002289AD897FAA7F0B0FA80F040F060005E
:10142000B4EB501F01D130680BE097FAA7F0B0FA87
:1014300080F040F06000B7EB501F01D1306A00E04F
:10144000706A97FAA7F1B1FA81F101F01F0104FA6D
:1014500001F21042D8D12878400768D5F0694FF0E2
:101460000009C00009D4F06940F08050F061F069D3
:101470004FF0010900F0805000902B480168C90529
:1014800012D4016841F480710160FFF7E1F98346ED
:1014900006E000BFFFF7DCF9A0EB0B00642875D86D
:1014A00021480068C005F5D5E86801280AD008B1D0
:1014B000052811D0306A20F001003062306A20F037
:1014C000040002E0306A40F001003062E86868B36E
:1014D000FFF7BEF983460DE0306A40F00400306249
:1014E000F0E700BFFFF7B4F9A0EB0B0141F2883041
:1014F00081424BD897FAA7F0B0FA80F040F0400054
:10150000B4EB501F01D1306813E097FAA7F0B0FA9E
:1015100080F040F04000B7EB501F09D1306A08E07E
:101520000010024000004242007000400CE040E029
:10153000706A97FAA7F1B1FA81F101F01F0104FA7C
:1015400001F21042CED02DE0FFF782F9834607E08A
:10155000FFF77EF9A0EB0B0141F28830814215D8EC
:1015600097FAA7F0B0FA80F040F04000B4EB501FBB
:1015700001D130680CE097FAA7F0B0FA80F040F0A3
:101580004000B7EB501F02D1306A01E083E0706A7F
:1015900097FAA7F1B1FA81F101F01F0104FA01F203
:1015A0001042D5D1B9F1000F03D0F06920F080507E
:1015B000F061E86980B37168C1F38101022977D0D5
:1015C0004FF080714F000228504609D091FAA1F1E6
:1015D000B1FA81F148F82100FFF73AF905465DE0DC
:1015E000894691FAA1F1B1FA81F1C24648F8210089
:1015F000FFF72EF9804605E0FFF72AF9A0EB080077
:10160000022848D897FAA7F0B0FA80F040F02000FE
:10161000400902D0306801E066E0706A97FAA7F1ED
:10162000B1FA81F101F01F0104FA01F10842E3D19E
:10163000D5E908100843716821F4741108437060FB
:1016400099FAA9F0B0FA80F04AF82040FFF700F9C3
:10165000054604E0FFF7FCF8401B02281BD897FA68
:10166000A7F0B0FA80F040F02000400901D03068C7
:1016700000E0706A97FAA7F1B1FA81F101F01F0159
:1016800004FA01F10842E5D02EE000BFFFF7E0F8D0
:10169000401B022802D90320BDE8F88F97FAA7F073
:1016A000B0FA80F040F02000400902D0306801E03C
:1016B0000BE0706A97FAA7F1B1FA81F101F01F010E
:1016C00004FA01F10842E1D10EE00128E4D070688B
:1016D0002A6A00F48031914204D1696A00F47010E2
:1016E000884201D00120D7E70020D5E72DE9F0415D
:1016F000040005D00025A56294F85D0018B107E04C
:101700000120BDE8F08184F85C50204600F044F8E8
:10171000022384F85D302068016821F040010160F7
:10172000E0684FF4E066B04201D9002101E04FF4D7
:101730008051B0F5706F02D0B04200D0A562276B27
:10174000012227B9B04201D9236300E02263D4E922
:1017500001031843D4E9043633431843238B03F4BD
:1017600000731843E3691843236A1843A36A1843B4
:1017700023681860636B606AA66918430427E368EE
:1017800007EA164633431843084321684860256634
:1017900084F85D200020B4E710B586B0044614211B
:1017A0006846FEF755FD1349206888421FD112484C
:1017B000816941F480518161816901F48051059111
:1017C000416941F4003141614069694600F40030EB
:1017D0000590E0200090022001900020029003205C
:1017E0000390052004904FF09040FEF76BFF06B089
:1017F00010BD0000003001400010024010B5401E36
:10180000B0F1807F01D3012010BD4FF0E024606172
:101810000F21601700F072FE0020A06107202061F8
:10182000002010BD7047704770470000F0B590F879
:101830003C20012A2CD0012480F83C40022280F870
:101840003D2003685A689D68124EB34203D122F4CA
:1018500070074A683A4322F070070A683A435A60B0
:101860000268B24208D0B2F1804F05D00A4B9A42CA
:1018700002D00A4B9A4204D1896825F080031943AB
:10188000916080F83D40002180F83C100846F0BD92
:101890000220F0BD002C0140000400400040014047
:1018A0002DE9F0415F4B60490268002501264FF6A3
:1018B000FF7701F148049A4276D1027F012A1AD0BB
:1018C000022A33D0042A4CD0082A12D18846C96B88
:1018D00000294FF00C015FD000F0B1FAC8F82400E5
:1018E000D8F80C20801AE06001D53844E060C8F8D0
:1018F0003C50BDE8F0818846096B00294FF000019B
:101900000DD000F09CFAC8F81800D8F80020801A12
:10191000206001D538442060C8F83050E9E700F075
:101920008EFAC8F83060C8F80000E2E78846496BD4
:1019300000294FF004010DD000F081FAC8F81C0016
:10194000D8F80420801A606001D538446060C8F877
:101950003450CEE700F073FAC8F83460C8F80400D9
:10196000C7E78846896B00294FF008010DD000F0C9
:1019700066FAC8F82000D8F80820801AA06001D5BF
:101980003844A060C8F83850B3E700F058FAC8F8F7
:101990003860C8F80800ACE700F051FAC8F83C60BD
:1019A000C8F80C00A5E7FFE7B2F1804FA1D1027F94
:1019B000012A15D0022A9CD18846496C00294FF093
:1019C000040128D000F03BFAC8F82C00D8F8142005
:1019D000801A606101D538446061C8F8445088E7D6
:1019E0008846096C00294FF000010DD000F027FA5D
:1019F000C8F82800D8F81020801A206101D5384492
:101A00002061C8F8405074E700F019FAC8F8406047
:101A1000C8F810006DE700F012FAC8F84460C8F882
:101A2000140066E7002C0140E00000202DE9F041A1
:101A3000044690F83C000D4601283DD0012684F86C
:101A40003C60022084F83D00AAB3042A46D02068F6
:101A5000082A55D0D5E90027E968036A23F48053A2
:101A60000362D0F81CC0036A2CF4407C4CEA0727C0
:101A70004FF6FF7C27F470470CEA013139434FF4ED
:101A8000204723F4204307EA02321A43C16102626D
:101A90002068C16921F44061C1612068C169AA68F8
:101AA00041EA0221C0F81C1084F83D60002084F84F
:101AB0003C00BDE8F08101E00220FAE7D5E9001220
:101AC000EB68206800F0D2FC2068816921F00C01ED
:101AD000816120688169AA6811430FE0D5E900128D
:101AE000EB68206800F0EEFC2068816921F4406119
:101AF000816120688169AA6841EA02218161D3E796
:101B0000D5E9002C2F7B016A21F480710162C16943
:101B1000036A21F0030141EA0C0121F0F00C3907BE
:101B20004FF420674CEA116123F4206307EA022294
:101B30001A43C16102622068C16921F00C01C161D0
:101B40002068C169AA681143ACE710B5040003D04E
:101B500094F83D0010B107E0012010BD002084F88A
:101B60003C00204600F00CF8022084F83D00211DC6
:101B7000206800F029FC012084F83D00002010BD01
:101B800070B586B0044614216846FEF761FB2F4B02
:101B9000226800242E4902254FF090409A422DD110
:101BA0008A6942F400628A618A6902F400620592DD
:101BB0004A6942F400324A614969064601F400313B
:101BC00005914FF4E0610091CDE901540621CDE982
:101BD00003416946FEF776FDA8020090CDE9015465
:101BE0000B20CDE9034069463046FEF76BFD00222D
:101BF00011461B20FFF7D0F81B2022E0B2F1804FE6
:101C000021D1CA6942F00102CA61CA6902F0010227
:101C100005924A6942F400324A61496901F400318F
:101C2000059103210091CDE901540121CDE9034142
:101C30006946FEF747FD002201211C20FFF7ACF8A2
:101C40001C20FFF79BF806B070BD0000002C01407F
:101C50000010024010B50268044631B1042908D0D2
:101C600008291DD00C2908D11EE0D06840F00200E0
:101C700002E0D06840F00400D0600122206800F04B
:101C8000E7FB206881680A4A1140062906D0B1F5B1
:101C9000803F03D0016841F001010160002010BDC8
:101CA000D06840F00800E7E7D06840F01000E3E7B4
:101CB0000700010070B50446006801694FF0000597
:101CC000C943890715D4C168C943890711D4E91EDE
:101CD000016101202077206880698007204602D0BA
:101CE000FFF7DEFD04E000F0A7F8204600F0A5F8BD
:101CF000257720680169C943490717D4C168C943DA
:101D0000490713D46FF00401016102202077206895
:101D1000806910F4407F204602D0FFF7C1FD04E047
:101D200000F08AF8204600F088F8257720680169DD
:101D3000C943090716D4C168C943090712D46FF013
:101D400008010161042020772068C06980072046CF
:101D500002D0FFF7A5FD04E000F06EF8204600F089
:101D60006CF8257720680169C943C90617D4C16892
:101D7000C943C90613D46FF0100101610820207710
:101D80002068C06910F4407F204602D0FFF788FD2C
:101D900004E000F051F8204600F04FF82577206865
:101DA0000169C943C90708D1C168C943C90704D13A
:101DB000891E0161204600F041F820680169C9438D
:101DC000090609D4C168C943090605D46FF080012A
:101DD00001612046FFF727FD20680169C943C90555
:101DE00009D4C168C943090605D46FF48071016143
:101DF0002046FFF717FD20680169C943490609D449
:101E0000C168C943490605D46FF04001016120460D
:101E100000F02AF820680169C94389060BD4C1681B
:101E2000C943890607D46FF0200101612046BDE84F
:101E30007040FFF7F9BC70BD7047704770470246AD
:101E4000002041B1042909D008290AD00C2901D168
:101E50001068006C70471068406B70471068806BAA
:101E600070471068C06B70477047FEE701688A6969
:101E7000D243920701D400228A6200688169C94373
:101E8000C90703D0816941F00101816170470000F9
:101E90002DE9F0410446006890460E468069C04333
:101EA000C00633D40025202720688069C0438006FF
:101EB00015D5701CF8D0FEF7CBFCA0EB0800B042A3
:101EC00001D8002EF0D154F8440F40F0200044F81F
:101ED00004096770A57025700120BDE8F0812168B4
:101EE0001020C8612068C7612046FFF7BFFF54F883
:101EF000440B4168064A11404160206840F00400EC
:101F000044F820096777A5772577E5E70020E4E71F
:101F100000E800FE2DE9F84304461646DDE908977F
:101F200014489846DAB200900023204600F056F894
:101F30003A464946204600F0B9F8B8B9F5B2B8F1CA
:101F4000010F08D02168300A88623A464946204687
:101F500000F0ACF850B9206885624B460022402161
:101F60002046009700F050F8002800D00120BDE87E
:101F7000F8830000002000802DE9F843044616464F
:101F800015489846DDE90897DAB2C302009020466A
:101F900000F024F83A464946204600F087F8B8B9E0
:101FA000F5B2B8F1010F08D02168300A88623A46CC
:101FB0004946204600F07AF850B9206885624B46C1
:101FC000002280212046009700F01EF8002800D053
:101FD0000120BDE8F883000000200080F0B505680E
:101FE000059C68684FF48066064FC1F3090106EA54
:101FF000545641EA02413E431943B043214308434A
:102000006860F0BDFF63FF032DE9F0411D461746F0
:102010000E460446DDF8188008E0681C06D0FEF77E
:1020200017FCA0EB0800A8420BD855B120688069C6
:1020300036EA000012D00020B842EED00020BDE801
:10204000F08154F8440F40F0200044F804092020A7
:1020500060700020A07020700120F0E70120EBE705
:1020600070B516460D4604460DE032462946204618
:10207000FFF70EFF08B1012070BDFEF7E9FB801BE2
:10208000A84207D835B120688069C0438006ECD4E7
:10209000002070BD54F8440F40F0200044F80409BB
:1020A000202060700020A0702070E4E770B5164614
:1020B0000D4604460FE0324629462046FFF7E8FE6B
:1020C00008B1012070BD681C05D0FEF7C1FB801B64
:1020D000A84207D835B120688069C0438007EAD498
:1020E000002070BD54F8440F40F0200044F804096B
:1020F000202060700020A0702070E2E710B586B04C
:1021000014216846FEF7A4F81248416941F40031F1
:102110004161416901F400310591416941F4802137
:10212000416140694FF0904400F480200590002206
:1021300010212046FEF786FB102000900120002190
:10214000CDE90101039169462046FEF7BBFA06B0CE
:1021500010BD000000100240144810B51249016083
:1021600040F20B21416000210122C0E9021201610D
:1021700041618161C1610162FEF7C4FB08B1FEF7F4
:102180008DFA00210948FEF769FB08B1FEF786FACF
:1021900000210648FEF78DFB002803D0BDE8104063
:1021A000FEF77CBA10BD000000540040680100201A
:1021B000124810B5104901604FF48271416000214E
:1021C0004FF4E062C0E902120122C0E90412520297
:1021D00082613822C0E9072107224162C0E90A1260
:1021E00001634163FFF782FA002803D0BDE8104085
:1021F000FEF754BA10BD000000300140B4010020C9
:1022000010B588B0002426480594069404940094E0
:10221000019402942149039401603F21C0E9011413
:102220004FF6FF71C0E9031444618461FFF78DFC30
:1022300008B1FEF733FA0494059404A918480694EB
:10224000FFF7F4FA08B1FEF729FA0A2000900120FE
:10225000CDE901040022694611480394FFF7E6FB2B
:1022600008B1FEF71BFA042269460D48FFF7DEFBB2
:1022700008B1FEF713FA082269460948FFF7D6FBB2
:1022800008B1FEF70BFA0C2269460548FFF7CEFBB2
:10229000002801D0FEF702FA08B010BD002C014062
:1022A0001802002010B588B000241D48059406943B
:1022B00004940094019402944FF0804103940160CF
:1022C0003F21C0E901144FF6FF71C0E90314846196
:1022D000FFF73BFC08B1FEF7E1F9049404A91048AC
:1022E0000694FFF7A3FA08B1FEF7D8F90A20009088
:1022F0000120CDE901040022694609480394FFF753
:1023000095FB08B1FEF7CAF9042269460448FFF7B5
:102310008DFB002801D0FEF7C1F908B010BD000008
:1023200058020020FEE7704770477047FEF7D6BCA2
:1023300030B595B028216846FDF78AFF14210AA818
:10234000FDF786FF18210FA8FDF782FF0225012067
:10235000049000951020059000244FF46010CDE902
:10236000084007956846FEF7DDFE0F20CDE90A0517
:102370006802CDE90C4002210AA80E94FEF7F8FD90
:102380004FF4815014940F9012940FA8FEF736FD6D
:1023900015B030BD0548016841F470010160034982
:1023A0004FF00060803908607047000088ED00E061
:1023B0000148FFF77FBC0000180200200148FFF72A
:1023C00079BC000058020020F0B502681B4B1C4F7E
:1023D0004FF0804C984203D0604501D0B84203D101
:1023E00022F070044A682243164C174D174E98424B
:1023F00009D0604507D0B84205D0A04203D0A8421A
:1024000001D0B04203D122F44077CA683A434F6901
:1024100022F080023A4302608A68C2620A688262DD
:10242000984205D0A04203D0A84201D0B04201D1C9
:102430000969016301214161F0BD0000002C0140E8
:1024400000040040004001400044014000480140B9
:1024500010B501F01F030121046A99408C43046206
:10246000016A9A401143016210BD000070B5046A10
:1024700024F0010404628469056A0F4EB04208D05A
:10248000B0F1804F05D00D4EB04202D00C4EB0429C
:1024900003D124F00304144301E044F001041A07BB
:1024A00024F0F00444EA126225F00A0301F00A0164
:1024B00019438261016270BD002C0140000400409C
:1024C0000040014030B5046A24F0100404628469BD
:1024D000056A24F4407444EA022222F470444FF660
:1024E000FF7202EA03322243A02425F0A00304EA8B
:1024F000011119438261016230BDFEE70907090E2F
:10250000002804DB00F1E02080F80014704700F0A0
:102510000F0000F1E02080F8141D704702E008C8A9
:10252000121F08C1002AFAD170477047002001E04D
:1025300001C1121F002AFBD170470000014890ED35
:102540000E0A704700000020014890ED0F0A704706
:1025500000000020014890ED100A704700000020A4
:10256000014890ED110A704700000020014890EDED
:10257000120A704700000020014890ED130A7047CE
:1025800000000020014890ED140A70470000002070
:10259000014890ED150A704700000020014890EDB9
:1025A000160A704700000020014890ED170A704796
:1025B00000000020FEF79AFBFFF7BAFEFFF79EFD32
:1025C000FFF71EFEFFF7F4FDFFF76CFEFFF7C4FDFB
:1025D00000212848FFF73EFB04212648FFF73AFB7D
:1025E00008212448FFF736FB0C212248FFF732FB75
:1025F00000212148FFF72EFB04211F48FFF72AFB8B
:10260000012210214FF09040FEF71CF900F0F0FA83
:102610001A490028486000DAFEE7194C00F01AF960
:10262000FFF79EFF84ED000AFFF7A0FF84ED010A8B
:10263000FFF7A2FF84ED020AFFF780FF84ED030A93
:10264000FFF782FF84ED040AFFF784FF84ED050A9B
:10265000FFF798FF84ED060AFFF79AFF84ED070A5B
:10266000FFF79CFF84ED080AFFF79EFF84ED090A3F
:10267000D4E700001802002058020020B00000201B
:10268000400100202DE9F04100202DED028B00F0EB
:102690001DFA002805DA4FF0FF30BDEC028BBDE8D3
:1026A000F081032000F0C4F9002802DA6FF0010085
:1026B000F3E7132000F04CFA002802DA6FF0020072
:1026C000EBE79FED490B4A4D0026A5F1800485ED0F
:1026D000060B85ED080B85ED0A0B52E000F0BAF809
:1026E000E069FDF7D6FE94ED110AD4ED1D0A884687
:1026F000074630EE200A48EC180B10EE100AFDF7E2
:10270000D5FE53EC182BFDF755FE95ED061B53EC4B
:10271000112BFDF7A8FDC5E9060194ED120AD4EDD1
:102720001E0A48EC187B30EE200A10EE100AFDF766
:10273000BDFE53EC182BFDF73DFE95ED081B53EC49
:10274000112BFDF790FDC5E9080194ED130AD4EDB6
:102750001F0A48EC187B30EE200A10EE100AFDF735
:10276000A5FE53EC182BFDF725FE95ED0A1B53EC47
:10277000112BFDF778FDC5E90A011420FDF790FF44
:10278000761CE0698642A9D395ED060B51EC100B3F
:10279000FDF79FFE606795ED080B51EC100BFDF700
:1027A00098FEA06795ED0A0B51EC100BFDF791FE1A
:1027B000E067607800F08AF9002802DA6FF0030021
:1027C0006BE7A07800F034F9002802DA6FF004001B
:1027D00063E7E07800F0BCF9002802DA6FF005004A
:1027E0005BE7012059E70000000000000000000046
:1027F000800000202DE9F04114460D461E46074694
:102800008C22252100F068FB002803DA4FF0FF300E
:10281000BDE8F081EAB22621384600F05DFB0028D1
:1028200002DA6FF00100F3E744F080022721384616
:1028300000F052FB002802DA6FF00200E8E7012006
:10284000FDF72EFF234632464921384600F0DCF8DA
:102850000120DDE72DE9F05F694C1523674A3B2134
:10286000E08800F0D1F8002803DA4FF0FF30BDE82F
:10287000F09F6248018849BA0FFA81F8A4F80880ED
:10288000418849BA0FFA81FCA4F80AC0818800EE99
:1028900010CA49BA0FFA81F9A4F80C90C188CB4646
:1028A00049BA0FB267830189B8EEC01A49BA0EB2AD
:1028B000E6814189CBF1000C49BA0DB225828189AC
:1028C00049BA0FFA81F9A4F81290B0F90E30A38238
:1028D000B0F91020E282B0F912104948218380300B
:1028E00094ED180AD0ED000ACA4651EE000A94EDA4
:1028F000081A60EE810AC4ED0E0A00EE908A90ED8F
:10290000011AF8EEE00A10EE801AD4ED090A61EE21
:10291000200A01EE10CAC4ED0F0AB8EEC11AD0EDBC
:10292000020A51EE000A94ED0A0A20EE800A84EDB4
:10293000100A00EE105AD4ED1D0ACAF10005B8EED7
:10294000C01A94ED190A51EE000AC4ED110A00EE06
:10295000906A94ED1E1AF8EEE00A10EE801A84EDEB
:10296000121AD4ED1F0A01EE105ADFED261AB8EE46
:10297000C11A51EE000A00EE103AB8EEC00AC4EDDA
:10298000130AD0ED030A94ED1A1A50EE010A94EDE1
:102990000B0A20EE800A84ED140A00EE102AD0ED16
:1029A000040A94ED1B1AB8EEC00A50EE010A94ED29
:1029B0000C0A20EE800A84ED150A00EE101AD0ED04
:1029C000050A94ED1C1AB8EEC00A012050EE010A67
:1029D00094ED0D0A20EE800A84ED160A00EE107ABE
:1029E000F8EEC00AB3EE050A30EEC01AC1EE210AB5
:1029F00030EE800A84ED170A39E70000C800002095
:102A0000000000205CEFA6433EB50406C8B2009269
:102A10004FF47A71CDE901310246E10D01230348FB
:102A2000FDF7CCFF00B1FEE701203EBD68010020AC
:102A30002DE9F041244C05464FF0FF367700E08841
:102A4000062D3ED2DFE805F0030B1B232B330122BA
:102A50001D2100F041FA00282FDB012206E00222AE
:102A60001D2100F039FA002827DB02221A21E08814
:102A700000F032FA002824DA3846BDE8F08103225B
:102A80001D2100F029FA002817DB0322EEE70422BB
:102A90001D2100F021FA00280FDB0422E6E70522C1
:102AA0001D2100F019FA002807DB0522DEE70622C7
:102AB0001D2100F011FA002801DA3046DDE7062278
:102AC000D4E7A5700120D8E70000002070B51B4CAA
:102AD00005004FF0FF36E08806D0012D0DD0022D05
:102AE00018D0032D13D11EE000221B2100F0F4F9B1
:102AF00000281EDB9FED120A07E008221B2100F0D0
:102B0000EBF9002815DB9FED0F0A84ED190A6570BB
:102B1000012070BD10221B2100F0DEF9002808DB27
:102B20009FED090AF1E718221B2100F0D5F90028D2
:102B300001DA304670BD9FED050AE6E7000000208F
:102B4000E3A00B39E3A08B39E3A00B3AE3A08B3A67
:102B50002DE9F041244C054613221921E08800F0AC
:102B6000BBF9002803DA4FF0FF30BDE8F081E088C0
:102B70006FF001066FF00207092D4FF000024FF0D1
:102B80000A0108D900F06EF9002808DB6420FDF77F
:102B900087FD122209E000F065F9002801DA3046CD
:102BA000E3E76420FDF77CFD16220A21E08800F0AF
:102BB00059F9002801DA3846D7E76420FDF770FD9F
:102BC0000A4B07220321E088FFF714FE2A46192149
:102BD000E08800F081F9002802DA6FF00300C4E712
:102BE000E5700120C1E7000000000020C8000020BF
:102BF00070B5944C01226B21E08800F06DF900283B
:102C000002DA4FF0FF3070BD20226A21E08800F028
:102C100063F9002802DA6FF0010070BD0D22242153
:102C2000E08800F059F9002802DA6FF0020070BD68
:102C300000220A21E08800F015F980226B21E0884B
:102C400000F04AF90120FDF72BFD01220B21E0885D
:102C500000F008F901226B21E08800F03DF900281E
:102C600002DA6FF0030070BD00226C21E08800F0F2
:102C700033F9002802DA6FF0050070BD18221C211C
:102C8000E08800F029F9002802DA6FF0060070BD34
:102C90009FED6D0A032584ED180A257018221B216B
:102CA000E08800F019F9002802DA6FF0070070BD23
:102CB0009FED660A012284ED190A65701D21E088E6
:102CC00000F00AF9002802DA6FF0080070BD012256
:102CD0001A21E08800F000F9002802DA6FF00900FC
:102CE00070BD0025A5702A461921E08800F0F4F88F
:102CF000002802DA6FF00A0070BDE57020226A2118
:102D0000E08800F0E9F8002802DA6FF00B0070BDEF
:102D10000D222421E08800F0DFF8002802DA6FF0AD
:102D20000C0070BD00220A21E08800F09BF800280A
:102D300002DA6FF00E0070BD6420FDF7B1FC0F22C7
:102D40000A21E08800F08EF8002802DA6FF00F0008
:102D500070BD6420FDF7A4FC3D4B03221021E088E8
:102D6000FFF748FD3A489FED3B2AF7EE000A01784D
:102D70009FED391A00EE101A0022B8EE400A70EEEC
:102D8000421AB0EE600A01EE810ADFED341A60EEFD
:102D9000212A9FED330A82EE803A84ED1A3A417877
:102DA00002EE901A0A21F8EE622A32EEC23AF0EEF2
:102DB000602A43EE012A62EEA12A82EE803A84ED77
:102DC0001B3A807802EE900AF8EE622A32EEC22AAE
:102DD00042EE010A60EEA10A80EE801A84ED1C1A10
:102DE000E08800F03FF8002802DA6FF0100070BDB4
:102DF0006420FDF755FC16220A21E08800F032F825
:102E0000002802DA6FF0110070BD6420FDF748FC65
:102E100001226B21E08800F05FF8002802DA6FF0F1
:102E2000120070BD0A4B07220321E088FFF7E2FC85
:102E3000FFF728FC002802DA6FF0130070BD0120B4
:102E400070BD00000000002016EA9C3BE3A08B3A16
:102E5000C8000020000000430000803B008099452E
:102E600000F0FF4670B515460C4606460C2225219B
:102E700000F032F8002802DA4FF0FF3070BDE2B205
:102E80002621304600F028F8002802DA6FF0010011
:102E900070BD2A466321304600F01EF8002802DA91
:102EA0006FF0020070BD81222721304600F014F837
:102EB000002802DA6FF0030070BD064B01222146A4
:102EC0003046FFF797FC002802DA6FF0040070BD6F
:102ED000012070BDC800002017B583B04FF47A748C
:102EE000012305AA8DE81C004FF6FF7202EA40009C
:102EF0000A4601460448FDF713FE0449087100B173
:102F0000FEE706B0012010BD68010020000000208F
:102F100002030405060708090A0B0C0D0E0F10101A
:102F20000102030405060708090A0B0C0D0E0F1019
:102F30000000000000000000010203040607080969
:102F4000602F000800000020C80000001C250008B9
:102F500028300008C8000020D00500002C250008FB
:102F600000000000000068000000000000000000F9
:102F700000000000000000000000000064000000ED
:102F80000000803F0000803F0000803F0000803F45
:102F90000000803F0000803F0000000000000000B3
:102FA0000000000000000000000000000000000021
:102FB0000000000000000000000000000000000011
:102FC0000000000000000000000000000000000001
:102FD00000000000000000000000000000000000F1
:102FE00000000000000000000000000000000000E1
:102FF00000000000000000000000000000000000D1
:1030000000000000000000000000000000000000C0
:10301000F0000000FFFFFFFF0100000010000000B3
:083020000000000000127A001C
:040000050800018965
:00000001FF
