:020000040800F2
:10000000100600209D010008173000084322000858
:1000100015300008DB0700086B3300080000000003
:100020000000000000000000000000008D3100080A
:10003000DD07000800000000193000088F310008BB
:10004000B7010008B7010008B7010008B7010008B0
:10005000B7010008B7010008B7010008B7010008A0
:10006000B7010008B7010008B7010008B701000890
:10007000B7010008B7010008B7010008B701000880
:10008000B7010008B7010008B7010008B701000870
:10009000B7010008B7010008B7010008B701000860
:1000A000B7010008B7010008B701000821320008B5
:1000B0002D320008B701000800000000512200089E
:1000C000452200080000000000000000B701000801
:1000D00000000000B7010008B7010008B7010008E0
:1000E000B7010008B7010008000000000000000090
:1000F0000000000000000000000000000000000000
:1001000000000000000000000000000000000000EF
:100110000000000000000000B7010008B70100085F
:1001200000000000000000000000000000000000CF
:1001300000000000000000000000000000000000BF
:10014000B7010008B701000800000000000000002F
:10015000000000000000000000000000000000009F
:10016000000000000000000000000000000000008F
:10017000000000000000000000000000000000007F
:1001800000000000B7010008DFF80CD000F006FB0B
:1001900000480047894100081006002006488047B3
:1001A00006480047FEE7FEE7FEE7FEE7FEE7FEE75C
:1001B000FEE7FEE7FEE7FEE70532000889010008DA
:1001C0002DE9F05F0546002092469B46884606468C
:1001D000814640241BE0284641464746224600F01F
:1001E00020F853465A46C01A914110D3114618467A
:1001F000224600F094F92D1A67EB01084F4622467B
:100200000120002100F08BF917EB00094E41201E60
:10021000A4F10104DFDC484631462A464346BDE8E6
:10022000F09F202A04DB203A21FA02F000217047D7
:1002300021FA02F3D040C2F120029140084319464E
:100240007047D2B201E000F8012B491EFBD2704783
:100250000022F6E710B513460A4604461946FFF792
:10026000F0FF204610BD2DE9FE4F804681EA0300D5
:10027000C00F0C46009021F0004123F00045B8EB80
:100280000200A94105D24046214690461C460B4635
:10029000024623F00040104347D0270DC7F30A0061
:1002A000C3F30A510290401A019040286BDAC3F35D
:1002B000130040F4801B0098924620B10023D2EB3B
:1002C000030A63EB0B0B01985946C0F140025046FC
:1002D00000F025F906460D4650465946019A00F0B1
:1002E0002DF910EB08006141002487EA115284EADD
:1002F000E7731A4340D0009A62B3019A012A4FEA89
:10030000075215DC001B61EB02014FF0004202EACC
:100310000752CDE90042001C41F5801132462B46C0
:1003200000F02DF903B0BDE8F08F40462146F9E713
:10033000001B61EB0201001C41F5801300185B41BA
:100340002018A2F5001747EB030140EAD570B61953
:100350006D4111E06D084FEA360645EAC0754FEA77
:100360000752001B61EB0201001C41F58011490896
:100370004FEA30000019514132462B4603B0BDE828
:10038000F04F00F0EDB80098012240000023D0EBC0
:10039000020263EBE073009821464FEAE074B8EB89
:1003A000000061EB0401E9E783F000435BE781F0C3
:1003B000004158E72DE9FE4F81EA030404F00044B0
:1003C00021F0004100944FF0000B23F0004350EA6D
:1003D00001045ED052EA03045BD0C3F30A54C1F3B4
:1003E0000A552C44A4F2F3340194A0FB0254C1F347
:1003F000130141F48011C3F3130343F4801301FB91
:10040000024400FB034E840A970A44EA815447EAF7
:100410008357A4FB076802958D0A05FB07854FEA01
:10042000932C04FB0C542705029D4FEA065847EA1B
:100430001637B5EB08056EEB070C870E920E47EAF0
:10044000811742EA8312A7FB0201B6EB0B0164EBB2
:1004500000042B0D43EA0C335E1844EB1C50DA46C3
:100460005146E7FB0201C5F313044FEA0B3343EA9D
:1004700014534FEA0432019C43EA0603A4F10C042E
:100480000294009CCDE900B400F079F803B0BDE817
:10049000F08F00200146F9E70EB5C10F80EAE07049
:1004A0000844CA07002140F233438DE80E000A4693
:1004B0000B4600F064F803B000BD70B5C1F30A52FA
:1004C00001F000450024C1F3130140F2FF3341F471
:1004D00080119A4201DA002070BD40F233439A4203
:1004E000A2F2334203DC5242FFF79BFE00E0904051
:1004F0002C43F1D0404270BD00F0004230F000408B
:100500000AD0C10D01F56071C0F3160042EA015135
:10051000C208400711437047002001467047202A57
:1005200004DB203A00FA02F1002070479140C2F14A
:10053000200320FA03F3194390407047202A06DB7A
:10054000CB17203A41FA02F043EAE07306E041FAA1
:1005500002F3D040C2F1200291400843194670478F
:1005600010B5141E73F1000408DA401C41F10001BB
:1005700092185B411A4301D120F0010010BD2DE912
:10058000F04D92469B4611B1B1FA81F202E0B0FA09
:1005900080F220329046FFF7C2FF04460F4640EA41
:1005A0000A0041EA0B0153465A46084313D011464C
:1005B00053EA010019D0C8F140025046FFF731FE5E
:1005C00005460E46504659464246FFF7A8FF0843E7
:1005D00005D0012004E020463946BDE8F08D00201A
:1005E000054346EAE0762C4337430A986305E40A5C
:1005F000A0EB08000022FD0A44EA47540A3002D565
:1006000000200146E9E7010510196941DDE90845C7
:1006100000196941BDE8F04DA2E72DE9F04D81EAEE
:10062000030404F0004B21F0004514464FF0000A8B
:1006300023F0004150EA050220D054EA01021DD007
:10064000C5F30A570246C5F31303C1F31300C1F300
:100650000A5640F4801543F48013A7EB0608101BDC
:10066000D64608F2FD3873EB050002D308F1010805
:1006700001E092185B41B8F1000F03DA0020014657
:10068000BDE8F08D00204FF48011064684460EE050
:10069000171B73EB050705D3121B63EB050306431A
:1006A0004CEA010C49084FEA300092185B4150EACD
:1006B0000107EDD152EA030012D082EA040083EA76
:1006C0000501084305D0101BAB4106D201220023CF
:1006D00006E000224FF0004302E06FF001025310E9
:1006E0001AEB06004CEB085110EB0A0041EB0B0132
:1006F000BDE8F04DFFF734BF2DE9F04D00231A4659
:100700001B1A8A4103DB00200146BDE8F08DC1F3CE
:100710000A52C1F3130141F480154FF0000BD107C9
:1007200002D100186D41521E0027044640F2FF110D
:10073000384601EB620A3E468046024600204FF4EE
:100740008011FFF76EFDC2197141BB1846EB010025
:10075000B4EB030C75EB000C04D3E41A65EB000555
:1007600017460E46241908F101006D4180463428D1
:10077000E3DDF91946EB0600091BA84103D24FF04F
:10078000FF32134601E0002213461BEB070046EB45
:100790000A51BDE8F04DFFF7E3BE0000064C074DDF
:1007A00006E0E06840F0010394E807009847103441
:1007B000AC42F6D3FFF7ECFCD8440008F84400083C
:1007C0000EB540F2334102910021CDE900110A46F5
:1007D0000B46FFF7D4FE03B000BDFEE770470000F4
:1007E000054C002003F078FD20684FF4FA7148436F
:1007F00000F02AF8F5E700000800002010B590F896
:1008000021100024022903D004218163012418E06F
:1008100001680A6822F00E020A6001680A6822F084
:1008200001020A6090F84020C36B012101FA02F234
:100830005A6080F82110002180F82010416B01B12E
:100840008847204610BD000070B5044600F0DAF875
:100850000546601C02D004480078044400F0D2F839
:10086000401BA042FAD370BD0C0000202DE9F84FC8
:10087000DFF860B100234FF0010C4FF0030A4FF096
:100880000F090BF1040E9DE00CFA03F63440220030
:100890007ED04C68022C01D0122C0ED1DC0800EB6B
:1008A0008408D8F820405D07EF0E09FA07F5AC433D
:1008B0000D69BD402543C8F8205007685D0091F8D8
:1008C00004800AFA05F408F00308A74308FA05F8BB
:1008D00048EA0708C0F800804F68012F05D0022FB2
:1008E00003D0112F01D0122F11D18768D1F80C80BD
:1008F000A74308FA05F848EA0708C0F808804768DF
:10090000B7430E79C6F300169E403E434660C66864
:10091000A6438C68AC403443C4604C68E40050D5B6
:100920002D4CA56945F00105A561A46923F00305D7
:1009300004F001040094294C2E19B4689D072F0F70
:1009400009FA07F5AC43B0F1904F04D0244DA8420A
:1009500003D101250CE000250AE0224DA84201D177
:10096000022505E0204DA84201D1032500E0052520
:10097000BD402543B560DBF800405D464E689443BA
:10098000F60300D514432C607546DEF8004000E005
:1009900017E04E689443B60300D514432C600D4D08
:1009A00008352C684E689443F60200D514432C6039
:1009B000084D0C352C684E689443B60200D514439C
:1009C0002C605B1C0A681446DA407FF45DAFBDE81A
:1009D000F88F0000000401400010024000000140B8
:1009E0000004004800080048000C004842690A4220
:1009F00000D00904816170470AB18161704781624A
:100A00007047000001488068704700000C0000201B
:100A100090F84120202A24D190F84020012A20D0AB
:100A2000012280F84020242280F8412002681368C7
:100A300023F0010313600268136823F480531360EA
:100A4000026813680B43136001680A6842F00102F0
:100A50000A60202180F84110002180F840100846EB
:100A600070470220704790F84120202A22D190F848
:100A70004020012A1ED0012280F84020242280F844
:100A800041200268136823F00103136002681368B1
:100A900023F4706343EA0121116001680A6842F09F
:100AA00001020A60202180F84110002180F84010E6
:100AB00008467047022070477047704730B403689B
:100AC0009A691968D243D40509D4CC43240606D4C4
:100AD000446C44F0010444644FF48074DC615305B9
:100AE0000AD4CB431B0607D4436C43F0080343648A
:100AF00004684FF48063E36192050AD4C943090690
:100B000007D4416C41F00201416402684FF4007166
:100B1000D161416C11F00B0F02D030BC01F032BC3E
:100B200030BC7047026891691268436B002B00D09B
:100B3000184770477047000070B5040004D094F85F
:100B40004100002510B106E0012070BD84F840503E
:100B5000204600F0ADF9242084F8410020680168A7
:100B600021F0010101606068216820F07060086177
:100B70002068816821F400418160E0680128A06854
:100B800007D040F4044021688860E068022803D060
:100B900006E040F40040F6E721684FF4006048604A
:100BA00020684168114A114341602068C16821F4FE
:100BB0000041C160D4E904010843A16940EA012071
:100BC0002168C860D4E907010843216808602068EB
:100BD000016841F0010101606564202084F8410052
:100BE000256384F84250002070BD000000800002A0
:100BF000704700002DE9FF4F83B00446DDE9108700
:100C000090F84100DDF848909A469346202874D128
:100C10005FEA080014D09FB194F8400001286CD01E
:100C2000012084F84000FFF7EDFE06460122009007
:100C30001923D103204601F033FE002871D103E0CF
:100C40004FF4007060646CE0222084F84100402082
:100C500084F8420000256564C4F8248067856563D4
:100C6000CDE9009653465A462046049901F00EFD00
:100C700010B184F8405054E0618D3548FF274FF0A3
:100C800080784FF0007AFF2904D927853A464346F9
:100C9000009005E0618D2185009094F8282053464E
:100CA0002046049901F0E6FD4B460022042120462F
:100CB000009601F0F5FDA0BB2068406A616A0870EB
:100CC000606A401C6062208D401E81B22185608D6B
:100CD000401E6085608DD8B1D1B94B46002280217D
:100CE0002046009601F0DCFDD8B9608DFF2805D9BB
:100CF00027853A464346009506E026E0608D20852C
:100D0000009594F8282053462046049901F0B2FD3E
:100D1000608D0028C8D132464946204601F0ECFDDE
:100D200018B1012007B0BDE8F08F21682020C8610C
:100D300021684A68074B1A404A6084F8410084F8E9
:100D4000425084F840500020ECE70220EAE700001F
:100D50000024008000E800FE2DE9FF4F83B0044628
:100D6000DDE9108790F84100DDF848909A469346F7
:100D7000202871D15FEA080014D09FB194F8400098
:100D8000012869D0012084F84000FFF73BFE0646A9
:100D9000012200901923D103204601F081FD002893
:100DA0006ED103E04FF40070606469E0212084F8A4
:100DB0004100402084F8420000256564C4F8248086
:100DC00067856563CDE9009653465A4620460499E7
:100DD00001F08EFC10B184F8405051E0608DFF2787
:100DE0004FF080784FF0007AFF2804D927853A46E3
:100DF0004346009505E0608D2085009594F82820F5
:100E000053462046049901F035FD324649462046B6
:100E100001F098FDA0BB606A216800788862606A72
:100E2000401C6062608D401E6085208D401E80B237
:100E30002085618DD9B1D0B94B4600228021204652
:100E4000009601F02DFDD8B9608DFF2805D92785C2
:100E50003A464346009506E026E0608D20850095E1
:100E600094F8282053462046049901F003FD608D34
:100E70000028CAD132464946204601F03DFD18B14E
:100E8000012007B0BDE8F08F20682021C1612068F3
:100E90004268064B1A40426084F8411084F8425080
:100EA00084F840500020ECE70220EAE700E800FE6A
:100EB00010B586B0044614216846FFF7C9F91A49EF
:100EC000206888422ED1194C606940F4802060610E
:100ED0006069694600F480200590C02000901220CF
:100EE00001900120029003200390042004901048F8
:100EF000FFF7BCFCE06940F40010E061E06900220B
:100F000000F40010059002211F2000F073F81F204C
:100F100000F062F800220321202000F06BF820206E
:100F200000F05AF806B010BD005400400010024016
:100F300000040048704770470248816802781144F5
:100F4000816070470C000020074810B5016841F02F
:100F500010010160032000F06DF8002000F006F899
:100F600000F024F8002010BD0020024070B50D4DA7
:100F700004464FF47A712878B1FBF0F00A49096809
:100F8000B1FBF0F000F027FE48B9102C07D2002288
:100F90002146501E00F02EF800206C6070BD01202C
:100FA00070BD00000C00002018000020094808B5A2
:100FB000816941F001018161816901F001010091C4
:100FC000C16941F08051C161C06900F0805000905A
:100FD00008BD000000100240002809DB00F01F02DD
:100FE000012191404009800000F1E020C0F800118B
:100FF00070470000F0B40E4B1B680C46C3F302238D
:10100000C3F10705042D00D90425191D072901D2B4
:10101000002300E0DB1E012606FA05F1491E2140EF
:1010200099409E40761E16403143F0BC02F0B6B99E
:101030000CED00E0064900F0070208684FF6FF03D8
:10104000184040EA0220034A10430860704700003D
:101050000CED00E00000FA052DE9F84F04460068A9
:10106000574DC0036FD5E8690026C00008D4E86971
:1010700040F08050E861E869012600F0805000905F
:1010800050480168C90512D40168804641F4807156
:101090000160FFF7B7FC074605E000BFFFF7B2FCB1
:1010A000C01B642835D8D8F80000C005F6D5286ADA
:1010B00010F4407053D0A18801F4407181424ED0A9
:1010C000286A4FF4803191FAA1F2B2FA82F29700C5
:1010D0003D4A4FF00108174420F44070C7F80084DF
:1010E00091FAA1F1B1FA81F102EB81010023C1F87B
:1010F00000342862C00732D0FFF784FC074641F273
:10110000883A4FF0020907E0FFF77CFCC11B51450C
:1011100002D90320BDE8F88F99FAA9F1B1FA81F15B
:1011200041F040014846B8EB511F01D129680CE05D
:1011300090FAA0F1B1FA81F141F04001B0EB511FFA
:1011400002D1296A01E015E0696A99FAA9F0B0FABA
:1011500080F000F01F0008FA00F21142D4D0286A93
:10116000616820F44070084328621EB1E86920F0ED
:101170008050E8612078C00705D0286BA16820F076
:101180000300084328632078800605D5286BE168B2
:1011900020F01000084328632078000605D5E86A8F
:1011A000216920F4F8700843E8622088C00405D55E
:1011B000286B616920F48070084328630020A9E748
:1011C0000010024000700040000042422DE9F0474C
:1011D0000F46050069D04A4E306800F00700B8425B
:1011E00009D2306820F0070038433060306800F0E2
:1011F0000700B84259D12878424C800705D560686D
:10120000A96820F0F000084360602878C0073DD04E
:101210006968012001290DD0022923D05FF0020363
:1012200093FAA3F2B2FA82F242F02002520904D0F9
:10123000226803E04FF40033F2E7626A93FAA3F303
:10124000B3FA83F303F01F03984002422DD0606885
:1012500020F0030008436060FFF7D4FB804641F2B2
:1012600088390CE04FF00073DAE700BFFFF7CAFBE4
:10127000A0EB0801494502D90320BDE8F08760686A
:10128000696800F00C00B0EB810FEFD1306800F01E
:101290000700B8420BD9306820F0070038433060AF
:1012A000306800F00700B84201D00120E5E7287857
:1012B000400705D56068E96820F4E0600843606095
:1012C0002878000706D56068296920F4605040EA54
:1012D000C100606000F01EF86168F02292FAA2F28C
:1012E00001F0F001B2FA82F2D140074A515CC840E5
:1012F0000649086006480068FFF738FE0020BCE792
:10130000002002400010024058430008180000204E
:1013100010000020164A10B55168164801F00C0361
:10132000042B20D0082B1ED14FF4701494FAA4F48F
:1013300001F47013B4FA84F4E3400F4CD26AE45C15
:101340000F2393FAA3F302F00F02B3FA83F3DA4008
:10135000094B1033C9039A5C06D500231946FEF7E2
:101360002FFFA0FB040110BD0448A4FB000110BD29
:101370000010024000127A003843000800093D00C6
:101380002DE9F84F050071D02878FC4EC0074FF0CA
:10139000010425D070686704C0F38100012807D0DC
:1013A0007068C0F3810002281BD17068C00318D593
:1013B00097FAA7F0B0FA80F040F02000400901D081
:1013C000306800E0706A97FAA7F1B1FA81F101F094
:1013D0001F0104FA01F1084265D068680028D2D0E4
:1013E00061E06868B0F5803F0BD010B1B0F5A02F78
:1013F00017D0306820F480303060306820F48020CE
:1014000002E0306840F480303060F06AA96820F073
:101410000F000843F062686820B3FFF7F3FA8046D4
:101420000AE0306840F480203060EAE7FFF7EAFA2B
:10143000A0EB0800642871D897FAA7F0B0FA80F002
:1014400040F02000400901D0306800E0706A97FA4F
:10145000A7F1B1FA81F101F01F0104FA01F108428C
:10146000E4D020E0FFF7CEFA804607E0C2E000BFFC
:10147000FFF7C8FAA0EB08006428DCD897FAA7F0B9
:10148000B0FA80F040F02000400901D0306800E060
:10149000706A97FAA7F1B1FA81F101F01F0104FA1D
:1014A00001F10842E4D12878DFF8D48280074FF0B8
:1014B000000A4FF0020730D570684FF0F80B10F0BB
:1014C0000C0F07D07068C0F38100022827D1706824
:1014D000C00324D497FAA7F0B0FA80F040F02000BF
:1014E000400901D0306800E0706A97FAA7F1B1FABC
:1014F00081F101F01F0104FA01F1084202D02869CC
:10150000012877D130689BFAABF220F0F8016869C6
:10151000B2FA82F29040014331605AE064E12869F6
:1015200088B394FAA4F0B0FA80F048F82040FFF7AE
:1015300069FA814606E000BFFFF764FAA0EB0900F4
:1015400002289AD897FAA7F0B0FA80F040F020006D
:10155000400901D0306800E0706A97FAA7F1B1FA4B
:1015600081F101F01F0104FA01F10842E4D0306872
:101570009BFAABF26969B2FA82F220F0F80091406E
:101580000843306025E0FFE794FAA4F0B0FA80F059
:1015900048F820A0FFF736FA814605E0FFF732FA57
:1015A000A0EB09000228CCD897FAA7F0B0FA80F097
:1015B00040F02000400901D0306800E0706A97FADE
:1015C000A7F1B1FA81F101F01F0104FA01F108421B
:1015D000E4D1287800076CD5A869A8B394FAA4F0E0
:1015E000B0FA80F008EB8000C0F88044FFF70AFAF8
:1015F000814607E0A4E100BFFFF704FAA0EB090071
:1016000002289ED897FAA7F0B0FA80F040F0600068
:10161000B4EB501F01D130680BE097FAA7F0B0FA95
:1016200080F040F06000B7EB501F01D1306A00E05D
:10163000706A97FAA7F1B1FA81F101F01F0104FA7B
:1016400001F21042D8D034E0FFE794FAA4F1B1FAE5
:1016500081F108EB8101C1F880A4FFF7D3F981463D
:1016600006E000BFFFF7CEF9A0EB090002289AD8E8
:1016700097FAA7F0B0FA80F040F06000B4EB501F8A
:1016800001D130680BE097FAA7F0B0FA80F040F093
:101690006000B7EB501F01D1306A00E0706A97FA22
:1016A000A7F1B1FA81F101F01F0104FA01F2104231
:1016B000D8D12878400768D5F0694FF00009C000FC
:1016C00009D4F06940F08050F061F0694FF00109F1
:1016D00000F0805000902B480168C90512D40168C1
:1016E00041F480710160FFF78DF9834606E000BF89
:1016F000FFF788F9A0EB0B00642875D82148006833
:10170000C005F5D5E86801280AD008B1052811D030
:10171000306A20F001003062306A20F0040002E0FC
:10172000306A40F001003062E86868B3FFF76AF998
:1017300083460DE0306A40F004003062F0E700BFFD
:10174000FFF760F9A0EB0B0141F2883081424BD8E2
:1017500097FAA7F0B0FA80F040F04000B4EB501FC9
:1017600001D1306813E097FAA7F0B0FA80F040F0AA
:101770004000B7EB501F09D1306A08E0001002406A
:1017800000004242007000400CE040E0706A97FAAE
:10179000A7F1B1FA81F101F01F0104FA01F2104240
:1017A000CED02DE0FFF72EF9834607E0FFF72AF9A8
:1017B000A0EB0B0141F28830814215D897FAA7F0CF
:1017C000B0FA80F040F04000B4EB501F01D1306817
:1017D0000CE097FAA7F0B0FA80F040F04000B7EBC9
:1017E000501F02D1306A01E083E0706A97FAA7F1D6
:1017F000B1FA81F101F01F0104FA01F21042D5D1D2
:10180000B9F1000F03D0F06920F08050F061E86971
:1018100080B37168C1F38101022977D04FF08071E4
:101820004F000228504609D091FAA1F1B1FA81F196
:1018300048F82100FFF7E6F805465DE0894691FA91
:10184000A1F1B1FA81F1C24648F82100FFF7DAF8B8
:10185000804605E0FFF7D6F8A0EB0800022848D83C
:1018600097FAA7F0B0FA80F040F02000400902D0CB
:10187000306801E066E0706A97FAA7F1B1FA81F189
:1018800001F01F0104FA01F10842E3D1D5E9081083
:101890000843716821F474110843706099FAA9F043
:1018A000B0FA80F04AF82040FFF7ACF8054604E0B3
:1018B000FFF7A8F8401B02281BD897FAA7F0B0FA48
:1018C00080F040F02000400901D0306800E0706AEC
:1018D00097FAA7F1B1FA81F101F01F0104FA01F1C1
:1018E0000842E5D02EE000BFFFF78CF8401B02282D
:1018F00002D90320BDE8F88F97FAA7F0B0FA80F07C
:1019000040F02000400902D0306801E00BE0706A2E
:1019100097FAA7F1B1FA81F101F01F0104FA01F180
:101920000842E1D10EE00128E4D070682A6A00F490
:101930008031914204D1696A00F47010884201D06C
:101940000120D7E70020D5E72DE9F041040005D0BC
:101950000025A56294F85D0018B107E00120BDE8FC
:10196000F08184F85C50204600F044F8022384F8AB
:101970005D302068016821F040010160E0684FF4AB
:10198000E066B04201D9002101E04FF48051B0F58A
:10199000706F02D0B04200D0A562276B012227B938
:1019A000B04201D9236300E02263D4E90103184364
:1019B000D4E9043633431843238B03F400731843EC
:1019C000E3691843236A1843A36A1843236818601D
:1019D000636B606AA66918430427E36807EA164642
:1019E00033431843084321684860256684F85D2026
:1019F0000020B4E710B586B0044614216846FEF70F
:101A000027FC1349206888421FD11248816941F49C
:101A100080518161816901F480510591416941F4EE
:101A2000003141614069694600F400300590A02012
:101A300000900220019000200290032003900520D6
:101A400004904FF09040FEF711FF06B010BD00006B
:101A500000300140001002402DE9F84F044690F894
:101A60005C0000271D461646894601280DD04FF020
:101A7000010B84F85CB0FEF7C5FF804694F85D006A
:101A8000BA46012804D002279FE00220BDE8F88F63
:101A9000B9F1000F6FD0002E6DD0032084F85D00E7
:101AA000C4F860A0C4F83890A687E687C4F840A0C0
:101AB000A4F844A0A4F846A0C4F850A0C4F84CA0D0
:101AC000A068B0F5004F04D12068016841F480415E
:101AD000016020680168490603D4016841F04001B3
:101AE0000160E068B0F5E06F606823D908B1012EAD
:101AF0001CD1A06B21680088C86006E0206881685E
:101B0000890709D5A16B0988C160A06B801CA063FF
:101B1000E08F401EE08709E0FEF774FFA0EB0800AD
:101B2000A84202D3681C01D046E0ADB3E08F002884
:101B3000E4D136E008B1012E30D1E08F0128A06B4E
:101B400003D921680088C8600FE021680078087315
:101B500014E0E08722E020688168890714D5E18FCE
:101B60000129A16B08D90988C160A06B801CA06302
:101B7000E08F801EEDE727E009780173A06B401C21
:101B8000A063E08F401EE4E7FEF73CFFA0EB0800F7
:101B9000A84202D3681C01D00EE06DB1E08F00288E
:101BA000D9D142462946204601F037FA08B1202013
:101BB0002066A06810B105E0032706E02068C16830
:101BC00080680090206E00B1012784F85DB084F831
:101BD0005CA038465AE710B5401EB0F1807F01D3B3
:101BE000012010BD4FF0E02460610F21601701F06B
:101BF000D5FB0020A06107202061002010BD7047A8
:101C000070477047F0B590F83C20012A2CD0012491
:101C100080F83C40022280F83D2003685A689D68A5
:101C2000124EB34203D122F470074A683A4322F0BD
:101C300070070A683A435A600268B24208D0B2F1AB
:101C4000804F05D00A4B9A4202D00A4B9A4204D1E7
:101C5000896825F080031943916080F83D40002198
:101C600080F83C100846F0BD0220F0BD002C014079
:101C700000040040004001402DE9F0415F4B604905
:101C80000268002501264FF6FF7701F148049A42C9
:101C900076D1027F012A1AD0022A33D0042A4CD0EE
:101CA000082A12D18846C96B00294FF00C015FD079
:101CB00000F0B1FAC8F82400D8F80C20801AE060CF
:101CC00001D53844E060C8F83C50BDE8F081884652
:101CD000096B00294FF000010DD000F09CFAC8F804
:101CE0001800D8F80020801AA06001D53844A06000
:101CF000C8F83050E9E700F08EFAC8F83060C8F84C
:101D00000000E2E78846496B00294FF004010DD03E
:101D100000F081FAC8F81C00D8F80420801A20606E
:101D200001D538442060C8F83450CEE700F073FA8B
:101D3000C8F83460C8F80400C7E78846896B0029F2
:101D40004FF008010DD000F066FAC8F82000D8F86E
:101D50000820801A606001D538446060C8F83850A7
:101D6000B3E700F058FAC8F83860C8F80800ACE7E4
:101D700000F051FAC8F83C60C8F80C00A5E7FFE78E
:101D8000B2F1804FA1D1027F012A15D0022A9CD145
:101D90008846496C00294FF0040128D000F03BFA36
:101DA000C8F82C00D8F81420801A606101D5384496
:101DB0006061C8F8445088E78846096C00294FF0F4
:101DC00000010DD000F027FAC8F82800D8F810203C
:101DD000801A206101D538442061C8F8405074E76A
:101DE00000F019FAC8F84060C8F810006DE700F07C
:101DF00012FAC8F84460C8F8140066E7002C0140E5
:101E0000B00100202DE9F041044690F83C000D4659
:101E100001283DD0012684F83C60022084F83D0072
:101E2000AAB3042A46D02068082A55D0D5E900274D
:101E3000E968036A23F480530362D0F81CC0036A84
:101E40002CF4407C4CEA07274FF6FF7C27F47047C0
:101E50000CEA013139434FF4204723F4204307EAC9
:101E600002321A43C16102622068C16921F44061F3
:101E7000C1612068C169AA6841EA0221C0F81C104A
:101E800084F83D60002084F83C00BDE8F08101E06A
:101E90000220FAE7D5E90012EB68206801F01EFA8B
:101EA0002068816921F00C01816120688169AA683C
:101EB00011430FE0D5E90012EB68206801F03AFA0F
:101EC0002068816921F44061816120688169AA6884
:101ED00041EA02218161D3E7D5E9002C2F7B016A19
:101EE00021F480710162C169036A21F0030141EAB2
:101EF0000C0121F0F00C39074FF420674CEA116116
:101F000023F4206307EA02221A43C16102622068B7
:101F1000C16921F00C01C1612068C169AA6811433F
:101F2000ACE710B5040003D094F83D0010B107E011
:101F3000012010BD002084F83C00204600F00CF881
:101F4000022084F83D00211D206801F075F9012070
:101F500084F83D00002010BD70B586B00446142101
:101F60006846FEF775F92F4B226800242E4902259A
:101F70004FF090409A422DD18A6942F400628A6102
:101F80008A6902F4006205924A6942F400324A61A9
:101F90004969064601F4003105914FF4E061009172
:101FA000CDE901540621CDE903416946FEF75EFC07
:101FB000A8020090CDE901540B20CDE90340694609
:101FC0003046FEF753FC002211461B20FFF712F8A3
:101FD0001B2022E0B2F1804F21D1CA6942F00102F8
:101FE000CA61CA6902F0010205924A6942F40032EC
:101FF0004A61496901F40031059103210091CDE95D
:1020000001540121CDE903416946FEF72FFC00226E
:1020100001211C20FEF7EEFF1C20FEF7DDFF06B0BD
:1020200070BD0000002C01400010024010B5026895
:10203000044631B1042908D008291DD00C2908D143
:102040001EE0D06840F0020002E0D06840F00400DA
:10205000D0600122206801F033F9206881680A4AC3
:102060001140062906D0B1F5803F03D0016841F048
:1020700001010160002010BDD06840F00800E7E7D2
:10208000D06840F01000E3E70700010070B5044697
:10209000006801694FF00005C943890715D4C1687C
:1020A000C943890711D4E91E016101202077206806
:1020B00080698007204602D0FFF7DEFD04E000F0D3
:1020C000A7F8204600F0A5F8257720680169C943E4
:1020D000490717D4C168C943490713D46FF00401F5
:1020E0000161022020772068806910F4407F20463B
:1020F00002D0FFF7C1FD04E000F08AF8204600F0AE
:1021000088F8257720680169C943090716D4C16892
:10211000C943090712D46FF0080101610420207738
:102120002068C0698007204602D0FFF7A5FD04E0C3
:1021300000F06EF8204600F06CF825772068016901
:10214000C943C90617D4C168C943C90613D46FF07F
:1021500010010161082020772068C06910F4407FD9
:10216000204602D0FFF788FD04E000F051F8204639
:1021700000F04FF8257720680169C943C90708D1E5
:10218000C168C943C90704D1891E0161204600F016
:1021900041F820680169C943090609D4C168C943E7
:1021A000090605D46FF0800101612046FFF728FD84
:1021B00020680169C943C90509D4C168C943090632
:1021C00005D46FF4807101612046FFF718FD206887
:1021D0000169C943490609D4C168C943490605D400
:1021E0006FF040010161204600F02AF82068016983
:1021F000C94389060BD4C168C943890607D46FF067
:10220000200101612046BDE87040FFF7FABC70BDB7
:102210007047704770470246002041B1042909D039
:1022200008290AD00C2901D11068006C7047106889
:10223000406B70471068806B70471068C06B7047C8
:102240007047FEE70148FEF739BC0000200000207F
:102250000148FEF767BC00002000002010B5406A6E
:102260000021826B5163C26B516390F84110602969
:1022700002D0FEF75FFC10BD202180F84110FEF770
:102280001BFC10BD10B50022CC074FF0280306D070
:1022900090F84140422233EA040400D0F2228C0735
:1022A00007D590F8414042F04402A34301D042F0E8
:1022B000B0024B0701D542F0B80211238B4301D184
:1022C00042F0900212238B4301D142F06002006879
:1022D00001689143016010BD01688A69D243920789
:1022E00001D400228A6200688169C943C90703D00A
:1022F000816941F00101816170472DE9F041044697
:1023000090F841002821814320684FF000054FF0EC
:10231000080304D0C36184F84050BDE8F0818169AE
:10232000C1F300478169FE2202EA11468168C1F3C8
:102330000902C168D4F80CC001F0FE01BCF1020F23
:1023400017D14FF0060C06F006060CEAD21C6645C3
:102350000ED1A16C491CA164A16C0229DDD1A56438
:10236000C36184F8405039462046FEF7A6FBD4E707
:102370000E4604212046FFF785FF84F84050324680
:10238000F1E7000070B5044690F84100002584F89C
:102390004250314AE2626585626C0A4362642026DB
:1023A000282825D0292823D02A2821D007212046D3
:1023B000FFF768FF94F84100602801D084F841607D
:1023C00025636563206801684A04244902681AD5B8
:1023D00022F480420260A06B002833D0416384F86D
:1023E0004050A06BFEF70AFA00282BD0A06B1CE02F
:1023F00003212046FFF746FF282084F8410025638B
:1024000017486063DEE7120413D5026822F4004225
:102410000260E06B002815D0416384F84050E06B07
:10242000FEF7ECF900280DD0E06B416BBDE8704081
:10243000084794F84100602805D084F840502046B1
:10244000FEF778FB70BD84F8416084F84050204668
:10245000FEF732FB70BD00000000FFFF5D220008A8
:102460005527000870B504461548E062002525632D
:10247000202084F8410084F84250C8436563400737
:1024800011D42068406A616A0870606A401C60620A
:10249000208D40B1401E2085608D401E6085606C9F
:1024A00040F00400606407212046FFF7EBFE21683E
:1024B0001020C86184F840502046FEF799FB70BD9B
:1024C0000000FFFF2DE9F041044600680568202761
:1024D0000E46C76107212046FFF7D4FE20684168F9
:1024E00041F40041416020684168304A1140416038
:1024F0002046FFF7F1FEE843410401D4A06B02E05F
:10250000000404D4E06B10B1006840686085F043BB
:1025100040070FD4206826F00406406A616A0870FC
:10252000606A401C6062208D20B1401E2085608D55
:10253000401E6085608D18B1606C40F004006064DE
:102540000025256384F842506563606C68B1616C56
:102550002046FFF717FF94F84100282814D1314690
:102560002046BDE8F041FFF77DBFE06A104EB04263
:102570000CD0204600F01EF8E66284F8417084F822
:1025800040502046FEF734FBBDE8F08194F841004E
:1025900084F84170222884F84050204602D0FEF78B
:1025A000CAFCF1E7FEF7C6FCEEE7000000E800FE1B
:1025B0000000FFFF70B50025044680F8425090F8F7
:1025C00041102820292911D094F841102A290CD132
:1025D00084F841002220206302212046FFF752FEAA
:1025E00084F840502046FEF7A5FC70BD84F84100F9
:1025F0002120206301212046FFF744FE84F840504B
:102600002046FEF798FC70BD2DE9F04104460068B5
:1026100090460E468069C043C00633D4002520276B
:1026200020688069C043800615D5701CF8D0FEF77D
:10263000E9F9A0EB0800B04201D8002EF0D154F81F
:10264000440F40F0200044F804096770A57025701D
:102650000120BDE8F08121681020C8612068C761B1
:102660002046FFF739FE54F8440B4168064A1140F2
:102670004160206840F0040044F820096777A5779E
:102680002577E5E70020E4E700E800FE2DE9F843C0
:1026900004461646DDE9089714489846DAB20090D9
:1026A0000023204600F0E6F83A464946204600F06E
:1026B00049F9B8B9F5B2B8F1010F08D02168300A6C
:1026C00088623A464946204600F03CF950B92068F5
:1026D00085624B46002240212046009700F0E0F83A
:1026E000002800D00120BDE8F88300000020008011
:1026F0002DE9F8430446164615489846DDE9089743
:10270000DAB2C3020090204600F0B4F83A464946D7
:10271000204600F017F9B8B9F5B2B8F1010F08D0AA
:102720002168300A88623A464946204600F00AF994
:1027300050B9206885624B460022802120460097D0
:1027400000F0AEF8002800D00120BDE8F8830000BA
:10275000002000802DE9F041C56A044690F8400051
:102760008846012826D0012084F840006FEA080737
:10277000B8066FEA020605D4B00603D441462046E7
:10278000FFF7A0FE3A49F8064FF0807231D4F00608
:102790002FD4638D102083B12168C861606C40F034
:1027A000040060640DB195425ED1616C2046FFF774
:1027B000E9FD59E00220BDE8F08194F84120282A83
:1027C00002D1B5F1007F04D094F84120292A05D028
:1027D0000CE041462046FFF745FE45E08D4205D01E
:1027E0002168C8612046FFF777FD3AE02168C8619B
:1027F0003AE0780715D4700713D4608D60B1206873
:10280000406A626A1070606A401C6062208D401EDF
:102810002085608D401E6085608D28BB8D4220D153
:1028200022E0380706D4300704D441462046FFF79B
:1028300064FD19E0B80717D4B00715D4608D68B1EE
:10284000606A216800788862606A401C6062608DFE
:10285000401E6085208D401E208505E0954200D0F9
:1028600015B92046FFF7A6FE002084F84000A2E735
:102870000000FFFFF0B50568059C68684FF48066AE
:10288000064FC1F3090106EA545641EA02413E43AC
:102890001943B043214308436860F0BDFF63FF0361
:1028A0002DE9F0411D4617460E460446DDF8188016
:1028B00008E0681C06D0FEF7A5F8A0EB0800A842C7
:1028C0000BD855B12068806936EA000012D000208C
:1028D000B842EED00020BDE8F08154F8440F40F03B
:1028E000200044F80409202060700020A0702070AF
:1028F0000120F0E70120EBE770B516460D460446CF
:102900000DE0324629462046FFF77EFE08B1012041
:1029100070BDFEF777F8801BA84207D835B1206854
:102920008069C0438006ECD4002070BD54F8440F89
:1029300040F0200044F80409202060700020A070BE
:102940002070E4E770B516460D4604460FE03246A7
:1029500029462046FFF758FE08B1012070BD681CCB
:1029600005D0FEF74FF8801BA84207D835B1206884
:102970008069C0438007EAD4002070BD54F8440F3A
:1029800040F0200044F80409202060700020A0706E
:102990002070E2E770B5194C00254FF4FA6600216B
:1029A000164800F077F808B1012070BD00211348E7
:1029B00000F070F8B4F91210E0690844E061B4F96D
:1029C0001410206A08442062B4F91610606A0844A2
:1029D00060620120FDF738FF6D1CB542DFDBE06966
:1029E00090FBF6F0E061206A90FBF6F02062606AEE
:1029F00090FBF6F06062002070BD000050010020E6
:102A00002DE9FF41044641F0D0002070DFF87C80C2
:102A100000208DF80C00D8F80000016821F040017A
:102A20000160012603AF4FF0FF350097CDE9016546
:102A3000217833466B221648FEF78EF9C8B910206C
:102A40008DF80C000097CDE90165217801231C2247
:102A50000F48FEF781F960B908208DF80C00009747
:102A6000CDE90165217801231B220948FEF774F99D
:102A700018B1012004B0BDE8F081D8F80000016869
:102A800041F0400101600020F4E700006C000020EC
:102A90002000002030B50446254D87B041F0D0001D
:102AA00020702868016821F0400101604FF0FF327A
:102AB0000E2103A88DE80700217801233B221D4841
:102AC000FEF798F810B1012007B030BDBDF80C003A
:102AD0009FED191A40BAA081BDF80E0040BAE081FE
:102AE000BDF8100040BA2082BDF8120040BA00B212
:102AF00000EE100AF8EEC00A80EE810ADFED0F0A40
:102B000030EE200A84ED060ABDF8140040BA608257
:102B1000BDF8160040BAA082BDF8180040BAE082A5
:102B20002868016841F0400101600020CCE7000006
:102B30006C000020200000200000AA43B81E1242B2
:102B400070B500212DED088B9A48FFF7A3FF18B14F
:102B50000120BDEC088B70BD964C608AA18B401A99
:102B600000B26082A18A228C891A0EB2A682E18A02
:102B7000A28C891A0DB2E582FDF78EFC9FED8E8B3B
:102B800053EC182BFDF716FC94ED0C1B53EC112B9A
:102B9000FDF769FBC4E90C013046FDF77DFC53EC01
:102BA000182BFDF707FC94ED0E1B53EC112BFDF7D2
:102BB0005AFBC4E90E012846FDF76EFC9FED808BA1
:102BC00053EC182BFDF7F6FB41EC100B00F0A8FDC1
:102BD00094ED0E1B51EC100B53EC112BFDF7EAFB9F
:102BE00094ED0C1B53EC112BFDF73DFBC4E90C01DC
:102BF000B4F91600FDF750FC53EC182BFDF7DAFB87
:102C000041EC100B00F08CFD94ED0C1B51EC100B03
:102C100053EC112BFDF7CEFB94ED0E1B53EC112B57
:102C2000FDF7C5FBC4E90E01A08910FB00F1E089A6
:102C300010FB0011208A10FB0010FDF72DFC41EC69
:102C4000100B00F0D1FD51EC100BFDF736FC00EE3F
:102C5000100AA062B4F90E00B8EEC01A00EE900A95
:102C6000F8EEE00A80EE810A10EE100AFDF744FC4F
:102C700041EC100B00F0A4FB9FED531B51EC100B2B
:102C800053EC112BFDF796FBC4E91201B4F90C00CB
:102C900000EE100AF8EEC00A94ED0A0AB8EEC01A67
:102CA00080EE810A10EE100AFDF726FC41EC100BB5
:102CB00000F086FB9FED461B51EC100B53EC112BE3
:102CC000FDF778FB41EC180B434884ED108B94ED35
:102CD000120B006880B39FED41BB51EC100B53EC1D
:102CE0001B2BFDF767FB94ED0C0B9FED3EAB41EC0E
:102CF000190B53EC1A2B51EC100BFDF75BFB53EC4B
:102D0000192BFDF7B0FAC4E90C0153EC1B2B51EC65
:102D1000180BFDF74FFB94ED0E0B41EC180B53EC29
:102D20001A2B51EC100BFDF745FB53EC182BFDF75C
:102D30009AFAC4E90E0104E0FFE784ED0C0B84ED80
:102D40000E8B94ED0C0B9FED29AB51EC100B53EC5B
:102D50001A2BFDF72FFB94ED140B9FED269B41ECF6
:102D6000180B53EC192B51EC100BFDF723FB53EC14
:102D7000182BFDF778FAC4E9140194ED0E0B53EC0F
:102D80001A2B51EC100BFDF715FB94ED160B41ECD3
:102D9000180B53EC192B51EC100BFDF70BFB53ECFC
:102DA000182BFDF760FAC4E916010520FDF74CFD6C
:102DB0000020CEE6500100209615D4015A04103FA1
:102DC000626E2C656FE2B13ED9CEF753E3A54C405D
:102DD000D9CEF753E3A54CC0000000202D431CEBD7
:102DE000E2363A3F789CA223B9FCEF3F9A99999931
:102DF0009999B93FCDCCCCCCCCCCEC3FF0B587B0D9
:102E000014216846FDF724FA1948416941F400315C
:102E10004161416901F400310591416941F480212A
:102E2000416140694FF0904600F4802005900022F7
:102E300010213046FDF7E0FD0E4F002238213846C4
:102E4000FDF7DAFD1020009001250024CDE90154A2
:102E5000694630460394FDF709FD38200090CDE91E
:102E60000154694638460394FDF700FD07B0F0BDF4
:102E70000010024000040048114810B50F490160DD
:102E800040F20B21416000210122C0E902120161E0
:102E900041618161C1610162FDF74EFE50B90021BF
:102EA0000748FDF7B5FD28B900210548FDF7DBFD12
:102EB000002801D0FDF794FC10BD00000054004034
:102EC00020000020114810B50F4901604FF48271B5
:102ED000416000214FF4E062C0E902120122C0E922
:102EE0000412520282613822C0E90721072241629E
:102EF000C0E90A1201634163FEF726FD002801D0F4
:102F0000FDF76EFC10BD0000003001406C00002099
:102F100010B588B0002421480594069404940094C8
:102F2000019402941C49039401603F21C0E90114FB
:102F30004FF6FF71C0E9031444618461FEF7F1FFAD
:102F400030BB0494059404A914480694FEF75AFE75
:102F5000F0B90A2000900120CDE901040022694661
:102F60000E480394FEF74EFF90B9042269460B48C1
:102F7000FEF748FF60B9082269460848FEF742FF9D
:102F800030B90C2269460548FEF73CFF002801D005
:102F9000FDF726FC08B010BD002C0140D000002039
:102FA00010B588B000241A4805940694049400943F
:102FB000019402944FF08041039401603F21C0E9E5
:102FC00001144FF6FF71C0E903148461FEF7A9FFF5
:102FD000C8B9049404A90E480694FEF713FE90B9EC
:102FE0000A2000900120CDE901040022694608482A
:102FF0000394FEF707FF30B9042269460448FEF740
:1030000001FF002801D0FDF7EBFB08B010BD000068
:1030100010010020FEE770477047F8B515460E46D0
:103020000B460092044600224FF4C05100F019F8FC
:1030300088B93346002280212046009500F05CF8D4
:1030400048B9334600224FF4C0612046009500F095
:1030500008F8002804D0206E40F0200020660320ED
:10306000F8BD2DE9F0471D4617460E4604464FF4BD
:10307000C068DDF820900CE0464501D107B9007B1F
:10308000681C06D0FDF7BEFCA0EB0900A84208D2E0
:103090003DB1206881683140B942EDD10020BDE8E2
:1030A000F0872068416821F0E00141606068B0F578
:1030B000827F0BD1A068B0F5004F02D0B0F5806FD1
:1030C00004D12068016821F040010160A06AB0F5D8
:1030D000005F09D12068016821F400510160206877
:1030E000016841F400510160012084F85D00002076
:1030F00084F85C000320D2E72DE9F0411D46174615
:103100000E460446DDF8188008E0681C06D0FDF77E
:1031100079FCA0EB0800A8420BD255B1206880686A
:1031200036EA000030D00020B842EED10020BDE8E1
:10313000F0812068416821F0E00141606068B0F5ED
:10314000827F0BD1A068B0F5004F02D0B0F5806F40
:1031500004D12068016821F040010160A06AB0F547
:10316000005F09D12068016821F4005101602068E6
:10317000016841F400510160012084F85D000020E5
:1031800084F85C000320D2E70120CDE77047FDF70B
:10319000D3BE30B595B028216846FDF759F8142103
:1031A0000AA8FDF755F818210FA8FDF751F80225D8
:1031B0000120049000951020059000244FF4601029
:1031C000CDE9084007956846FEF7DAF8A8B90F2060
:1031D000CDE90A056802CDE90C4002210AA80E9447
:1031E000FDF7F4FF48B94FF4815014940F901294F6
:1031F0000FA8FDF731FF002801D0FDF7F1FA15B057
:1032000030BD00000548016841F4700101600349C8
:103210004FF00060803908607047000088ED00E0E2
:103220000148FEF733BF0000D00000200148FEF740
:103230002DBF000010010020F0B502681B4B1C4F91
:103240004FF0804C984203D0604501D0B84203D182
:1032500022F070044A682243164C174D174E9842CC
:1032600009D0604507D0B84205D0A04203D0A8429B
:1032700001D0B04203D122F44077CA683A434F6983
:1032800022F080023A4302608A68C2620A6882625F
:10329000984205D0A04203D0A84201D0B04201D14B
:1032A0000969016301214161F0BD0000002C01406A
:1032B000000400400040014000440140004801403B
:1032C00010B501F01F030121046A99408C43046288
:1032D000016A9A401143016210BD000070B5046A92
:1032E00024F0010404628469056A0F4EB04208D0DC
:1032F000B0F1804F05D00D4EB04202D00C4EB0421E
:1033000003D124F00304144301E044F001041A073C
:1033100024F0F00444EA126225F00A0301F00A01E5
:1033200019438261016270BD002C0140000400401D
:103330000040014030B5046A24F01004046284693E
:10334000056A24F4407444EA022222F470444FF6E1
:10335000FF7202EA03322243A02425F0A00304EA0C
:10336000011119438261016230BDFEE703B4019887
:103370004100009850EAC12018BF04204A0D18BF30
:1033800040F0010040F2FF72B2EB515F08BF40F025
:103390000200012808BF052002B070470907090E86
:1033A000002804DB00F1E02080F80014704700F0F2
:1033B0000F0000F1E02080F8141D704700000000AD
:1033C00070B5C1482DED020B2DED0E8B82B0119D15
:1033D00025F000449FEDBEDB9FEDBFEB84423EDB5A
:1033E000A4F140511098A1F17F6108430FD0BC486F
:1033F000844202DC28D1109830B39DED100B02B04E
:10340000BDEC0E8B02B0BDE8704000F015BE9DED26
:10341000100B53EC1D2B51EC100BFCF7CBFF9DED6B
:10342000100B41EC180B53EC1E2B51EC100BFCF75E
:10343000C1FF53EC182BFCF716FF41EC100B02B048
:10344000BDEC0E8B02B070BD012000F031FE02B069
:10345000BDEC0E8B02B0BDE8704000F0F9BDA14894
:103460009FEDA18B844256DA9DED100BB4F1795F8C
:103470000ADA51EC100BFFF779FF042808BF00F0BF
:10348000F7FD9DED100BDAE753EC102B51EC100B10
:10349000FCF790FF41EC190B95480621B0EE490A64
:1034A000F0EE690A784400F0B3FC53EC192B51ECB0
:1034B000100BFCF77FFF41EC1A0B8E48B0EE490A67
:1034C000F0EE690A0421784400F0A2FC53EC192BB9
:1034D00051EC100BFCF76EFF53EC182BFCF7C3FEFE
:1034E00041EC100B51EC1A0B53EC102BFDF795F837
:1034F000CDE900019DED000B53EC102B9DED100B61
:1035000051EC100BFCF756FF9DED101B53EC112BEB
:10351000FCF7A9FED2E09DED100B51EC100B00F072
:1035200027FE53EC182BFCF742FF9FED730BCDE900
:10353000000153EC102B9DED000B51EC100BFCF730
:1035400039FF41EC190B6E480621B0EE490AF0EE46
:10355000690A784400F05CFC53EC192B51EC100B19
:10356000FCF728FF41EC1B0B6648B0EE490AF0EE71
:10357000690A0421784400F04BFC53EC192B51EC00
:10358000100BFCF717FF53EC182BFCF76CFE41EC0B
:103590001C0B51EC190B00F067FE41EC180B5A485C
:1035A0009FED5BABA04222DC53EC1C2B51EC1B0BC0
:1035B000FDF733F8CDE900019DED000B51EC180B40
:1035C00053EC102BFCF7F6FE53EC182BFCF74BFEDC
:1035D00053EC1A2BFCF7EEFE53EC1D2BFCF7E4FE2C
:1035E00053EC1E2BFCF7E3FE41EC100B5FE08DED7E
:1035F000008B002000909DED000B51EC180B53EC5C
:10360000102BFCF730FE9DED000B41EC1E0B53EC34
:10361000102B51EC100BFCF7CDFE53EC192BFCF7E3
:10362000C6FE53EC1E2BFCF7F8FF41EC190B53ECD4
:103630001C2B51EC1B0BFCF7F0FF41EC1B0B53EC6C
:103640001A2B51EC190BFCF7B5FE53EC1D2BFCF7B4
:10365000AEFE41EC190B53EC1A2B51EC180BFCF796
:10366000A9FE53EC1B2BFCF7A5FE53EC192BFCF722
:103670009BFE9DED000B41EC180B53EC1A2B51EC0B
:10368000100BFCF797FE9FED249B53EC192BFCF7D6
:103690008EFE41EC100B51EC180B53EC102BFCF789
:1036A00083FE53EC192BFCF782FE41EC100B002D2E
:1036B0003FF7C5AE51EC100B81F0004141EC100B0F
:1036C000BDE60000000000000000F03F0000000028
:1036D000075C143326A6913C182D4454FB21F93F76
:1036E0000000F07F0000E03F000000000000F03F1D
:1036F000C00E0000CE0E0000000000000000E03F01
:10370000120E0000200E00003333EF3F00000000D7
:103710000000000000000040182D4454FB21E93F48
:1037200010B52F499FED2C1B2DED020B84B0059891
:1037300020F000408842DCBF00209DED040B32DD0C
:103740002849884209D1049840B94FF0010000F09F
:10375000AFFC00F07DFC06B010BD05DB9DED040B59
:1037600000F06AFC06B010BD68469DED040B00F049
:103770007BF810F0030011D0012818D09DED021B3A
:103780009DED000B02281AD000F08AFA51EC100BC4
:1037900081F0004106B041EC100B10BD9DED021B05
:1037A0009DED000B012000F0AFFB06B010BD9DEDBC
:1037B000021B9DED000B00F073FA06B010BD012056
:1037C00000F0A2FB51EC100B81F0004106B041EC7F
:1037D000100B10BD00000000000000000000000001
:1037E000FB21E93F0000F07F00B52DED048BB0EE2A
:1037F000409AF0EE609A83B051EC190BFCF77CFF15
:1038000041EC180B18EE100A18EE901A8DED008B93
:10381000002818BF0120084320F00040C0F17F605D
:1038200000F1E040C00F14D019EE101A19EE900A02
:103830008DED009B002918BF0121084320F00040B6
:10384000C0F17F6000F1E040C00F04BF012000F034
:103850002FFCB0EE480A03B0F0EE680ABDEC048B12
:1038600000BD0000000000002DE9F14F04462DEDE1
:10387000020B2DED088B8AB09FEDE70B80ED020B5C
:10388000139EE74826F0004585420ADC9DED120BA9
:10389000002084ED000B0AB0BDEC088B03B0BDE83E
:1038A000F08FE0489FEDE0AB9FEDE1BBA84247DD24
:1038B000E14F9FEDE39B9FEDE48B9DED120B53ECED
:1038C0001A2B51EC100B002E1CDDFCF76DFD41ECAA
:1038D000100BBD4208D053EC1B2B51EC100BFCF726
:1038E00063FDC4E900010BE053EC192B51EC100B04
:1038F000FCF75AFD53EC182BFCF756FDC4E9000108
:103900000120C8E7FCF7AFFC41EC100BBD4208D02A
:1039100053EC1B2B51EC100BFCF7A5FCC4E9000188
:103920000BE053EC192B51EC100BFCF79CFC53EC07
:10393000182BFCF798FCC4E900014FF0FF30AAE710
:10394000C348A84279DB9DED120B51EC100B00F03F
:103950000FFC41EC180B9FEDC00B53EC102BFCF748
:1039600029FD9FEDBF1B53EC112BFCF77CFCFCF7F2
:10397000A4FD0746FCF790FD41EC190B53EC1A2B04
:10398000FCF718FD53EC182BFCF711FD41EC180B5C
:1039900053EC1B2B51EC190BFCF70CFDDFF8C8A204
:1039A00041EC100B4FEA15580125FA4453EC102B4B
:1039B00051EC180BFCF7F8FC032DC4E900013DD0D5
:1039C000C1F30A5005EB4511A8EB00001139814203
:1039D00034DA0AEB051BB0EE48AA9BED000BF0EEC3
:1039E00068AA53EC102B51EC190BFCF7E3FC41ECEB
:1039F0001B0B51EC1A0B53EC1B2BFCF7D5FC41ECC9
:103A0000180B51EC1A0B53EC182BFCF7CDFC53ECB4
:103A10001B2BFCF7C9FC9BED020B41EC1A0B53EC82
:103A2000102B51EC190BFCF7C5FC53EC1A2BFCF7CF
:103A3000BBFC41EC100B6D1CB8E70EE0002EA8BFDC
:103A40003846BFF628AF94ED000B51EC100B81F017
:103A50000041C4E9000178421DE7C6F3130040F4B9
:103A6000801EC6F30A50A0F2F530471100F01F0582
:103A7000C5F12000DDF848B00890002006900790BE
:103A80000520EC467949002D07EB0002794408BF78
:103A900051F8221009D051F8223001EB8201AB40DD
:103AA0004A68089922FA01F11943A1FB0E26A1FBED
:103AB0000B131A449A4234BF0123002303EB060878
:103AC0000CEB8003D3E901A60E448E4234BF0121E2
:103AD000002192448A4411B1924502D903E09245F3
:103AE00001D2012100E00021C3E901A641444CF8C4
:103AF0002010011EA0F10100C4DC029800F100506A
:103B0000850F0298DDE903678000DDF81480FCF77B
:103B1000C3FC41EC1A0B3046FCF752FE9FED541BE0
:103B200053EC112BFCF746FC41EC1B0B3846FCF721
:103B300047FE9FED511B53EC112BFCF73BFC41EC76
:103B4000180B4046FCF73CFE9FED4D1B53EC112B30
:103B5000FCF730FC41EC190B51EC180B53EC192B12
:103B6000FCF781FB53EC1B2BFCF77DFB53EC1A2B72
:103B7000FCF779FBCDE90801002008909DED080BCA
:103B800053EC1A2B51EC100BFCF70EFC53EC1B2BD7
:103B9000FCF70AFC53EC182BFCF706FC53EC192B32
:103BA000FCF705FC9FED381B53EC112BFCF702FCD6
:103BB0009FED370B41EC180B53EC102B9DED080BD0
:103BC00051EC100BFCF7F6FB53EC182BFCF74BFBFE
:103BD0009FED310B41EC180B53EC102B9DED080BB6
:103BE00051EC100BFCF7E6FB53EC182BFCF73BFBFE
:103BF00041EC100B139810F0004F06D06D4251ECC1
:103C0000100B81F0004141EC100B284684ED000BB5
:103C100041E600000000000000000000000000007D
:103C2000FB21E93F7CD9024000004054FB21F93FD1
:103C30003163621A61B4D03DFB21F93F00000000FE
:103C40000000601A61B4D03D7370032E8A19A33B43
:103C5000FB2139410000000083C8C96D305FE43F9B
:103C6000000000000000E03F3A0A00008809000060
:103C7000000000000000103E000000000000103CAA
:103C8000000000000000103A182D4454FB21F93DBB
:103C90003326A611460B113C00000054FB21F93DD0
:103CA00010B52DED040B2DED088B82B0B0EE419ACE
:103CB000F0EE619A0B9820F000449FED4BABB4F10D
:103CC000795F11DA9DED0A0B51EC100BFCF7F5FB57
:103CD000002801BFB0EE4A0AF0EE6A0A02B0BDEC5D
:103CE000088B04BF04B010BD9DED0A0B53EC102BE4
:103CF00051EC100BFCF75EFB41EC180B3C48062125
:103D0000B0EE480AF0EE680A784400F081F853EC0F
:103D1000182B51EC100BFCF74DFB9DED0A0B41EC01
:103D20001B0B53EC192B51EC100BFCF743FB41EC34
:103D3000190B53EC1B2B51EC180BFCF73BFB53EC12
:103D4000192BFCF731FB9FED2C0B41EC190B53ECBD
:103D5000102B51EC180BFCF72DFB41EC100B2848F5
:103D6000844210DA53EC192B51EC100BFCF71CFBBE
:103D700053EC1A2BFCF71BFB41EC100B02B0BDEC13
:103D8000088B04B010BD1F48A042BCBF9FED1E1B96
:103D90008DED001B06DBA4F50010019000200090C3
:103DA0009DED001B51EC100B53EC112BFCF7FCFAB2
:103DB0009DED000B41EC180B53EC102B51EC1A0B42
:103DC000FCF7F2FA41EC1A0B53EC192B51EC180BDF
:103DD000FCF7EAFA53EC1A2BFCF7E9FA41EC100B6A
:103DE000CCE7000000000000000000000000F03FF1
:103DF000AC06000000000000000000000000E03FF2
:103E00003333D33F0000E93F000000000000D23F01
:103E100070B504462DED028B4D1E00EBC500B0EED3
:103E2000408AF0EE608A90ED000B35F0060017D066
:103E300053EC182B51EC100BFCF7BCFA41EC100BB7
:103E40006D1E04EBC50090ED001B51EC100B53EC04
:103E5000112BFCF708FA41EC100B35F00600E7D106
:103E6000022D36D0042D1CD0062D1CBFBDEC028BBC
:103E700070BD53EC182B51EC100BFCF79BFA94ED32
:103E80000A1B53EC112BFCF7EEF953EC182BFCF743
:103E900091FA94ED081B53EC112BFCF7E4F941EC7B
:103EA000100B53EC182B51EC100BFCF783FA94ED2C
:103EB000061B53EC112BFCF7D6F953EC182BFCF72F
:103EC00079FA94ED040B53EC102BFCF7CCF941EC90
:103ED000100B53EC182B51EC100BFCF76BFA94ED14
:103EE000021B53EC112BFCF7BEF953EC182BFCF71B
:103EF00061FA94ED001B53EC112BFCF7B4F9BDEC07
:103F0000028B41EC100B70BD31B504462DED040B56
:103F10002DED0A8BB0EE41BAF0EE61BA0B989DED33
:103F20000A0B20F00040B0F1795F0DDA51EC100B74
:103F3000FFF71CFA042808BF00F09AF89DED0A0B61
:103F4000BDEC0A8B05B030BD53EC102B51EC100BBF
:103F5000FCF730FA41EC180B9DED0A0B53EC182BD3
:103F600051EC100BFCF726FA41EC190B2C48B0EE83
:103F7000480AF0EE680A05217844FFF749FF9FEDF3
:103F80002ACBB0EE40AAF0EE60AA9CB353EC1C2BF7
:103F900051EC190BFCF70EFA41EC1C0B53EC1A2BED
:103FA00051EC190BFCF706FA9FED210B41EC190BB4
:103FB00053EC102B51EC1B0BFCF7FCF953EC192BB9
:103FC000FCF7F2F953EC182BFCF7F4F953EC1B2B2C
:103FD000FCF7EAF953EC1C2BFCF7E6F99DED0A1B04
:103FE00053EC112BFCF7E3F9BDEC0A8B05B041EC67
:103FF000100B30BDFFE753EC1A2B51EC180BFCF7FC
:10400000D9F953EC1C2BFCF72EF953EC192BFCF7C8
:10401000D1F99DED0A1B53EC112BFCF724F9E3E7D2
:104020003405000000000000495555555555C5BFE1
:10403000000000000000E03F10B553EC102B51ECE5
:10404000100BFCF710F941EC100B10BD0000000044
:104050009FED050B10B553EC102B51EC100BFCF73A
:10406000DCFA41EC100B10BD000000000000000065
:104070009FED050B10B553EC102B51EC100BFCF71A
:1040800099F941EC100B10BD000000000000001079
:1040900002E008C8121F08C1002AFAD17047704711
:1040A000002001E001C1121F002AFBD1704700006F
:1040B00001490860704700001C00002030B504462C
:1040C0000120002122780B46D50700D0491C520858
:1040D0005B1C082BF8DB63780022DC0700D0491C4E
:1040E0005B08521C082AF8DBC90700D1002030BD4C
:1040F00010B51D4CF02222700022627030B10128F0
:1041000006D0022821D0032804D120E0F22000E0CC
:10411000F7202070480060701348FFF7CFFF18B1F8
:10412000607840F0010060704FF090440022102150
:104130002046FCF761FC4FF0FF3302220A490B488E
:10414000FDF78AFC28B1012010BDFB20E1E7FF202C
:10415000DFE7012210212046FCF74EFC0A20FCF785
:1041600073FB002010BD0000040000206C00002044
:1041700082B0CDE9000121F0004001909DED000BDF
:1041800002B051EC100B7047FCF7DEFEFFF701F8B0
:10419000FEF734FEFEF770FEFEF794FEFEF7B8FE63
:1041A000FEF7FEFE2E4C00202060012000F094F867
:1041B00000212C48FEF724FC012508B125604CE0C5
:1041C00000212848FEF7E6FB0028F7D1254800210A
:1041D0008038FDF72BFF234804218038FDF726FFA8
:1041E000204808218038FDF721FF1E480C21803827
:1041F000FDF71CFF1B4800214038FDF717FF194849
:1042000004214038FDF712FF4FF4FA60FCF71CFB65
:10421000144E40F24C41A836B068884201DD0320BC
:104220001AE0012210214FF09040FCF7E5FB02203C
:1042300000F052F8142700210A48FEF781FC0028FC
:10424000BCD1B068A0F57A7090FBF7F10020FFF7C1
:104250004FFF0028EFD004202060FCF7C1FA0000D7
:10426000080000205001002000B52DED048B83B024
:1042700041EC190BFCF740FA41EC180B18EE100A50
:1042800018EE901A8DED008B002818BF012008430E
:1042900020F00040C0F17F6000F1E040C00F14D07A
:1042A00019EE101A19EE900A8DED009B002918BF27
:1042B0000121084320F00040C0F17F6000F1E040A0
:1042C000C00F04BF0120FFF7F3FE51EC180B03B041
:1042D000BDEC048B00BD000010B5164CA0B1012848
:1042E00019D0022824D1012220212046FCF784FB8A
:1042F000002208212046FCF77FFB002210212046E7
:10430000BDE81040FCF778BB10212046FCF76EFB9F
:104310000022082106E0012208212046FCF76CFB60
:10432000002210212046FCF767FB00222021E6E74F
:1043300010BD000000040048020304050607080938
:104340000A0B0C0D0E0F10100102030405060708DE
:10435000090A0B0C0D0E0F100000000000000000F9
:104360000102030406070809555555555555C53F23
:104370007D6FEB0312D6D4BF5544880E55C1C93F9B
:104380003B8F68B52882A4BF88B20175E0EF493F32
:1043900009F7FD0DE13D023F4B2D8A1C273A03C072
:1043A000C88A599CE52A004059018D1B6C06E6BF5E
:1043B00082922EB1C5B8B33F4C5555555555A53FC2
:1043C0007751C1166CC156BF9015CB19A001FA3EAA
:1043D000AD529C804F7E92BEC4B1B4BD9EEE213ED4
:1043E000D43888BEE9FAA8BD00004054FB21F93F4B
:1043F0003163621A61B4D03D0000601A61B4D03DEF
:104400007370032E8A19A33B0000002E8A19A33B68
:10441000C14920259A837B3900000000000000007C
:104420006E83F9A22915444ED15727FCC0DD34F51F
:10443000999562DB4190433CAB6351FE61C5BBDEA5
:104440003A6E24B7E0D24D42EA2E49061C92D109B9
:104450001CEB1DFE3EA729B1F53582E88444BB2E36
:1044600026709CE9417E5FB439D69139F439538383
:104470008B5F849C3B28F9BDFF97F81F0F9805DEE2
:104480008B112FEF1F6D0A5ACF7E366DB709CB27E0
:10449000663F464F2DEA5F9EC7BA27757BF1E5EB75
:1044A000F739073DEA92528AB15FFB6B085D8D1FB9
:1044B000A6F810111111813FD561C119A0012ABFC1
:1044C0007DFEB157E31DC73EEB9C2B8AE6E55ABE45
:1044D0007CD5CF5A3AD9E53DF844000800000020C9
:1044E000200000009040000818450008200000202F
:1044F000F0050000A040000801000000F0000000EE
:104500000200000001000000100000000000000098
:0845100000127A000000000017
:040000050800018965
:00000001FF
