:020000040800F2
:10000000D80600209D010008273500089724000825
:10001000253500087F080008BD3B000800000000EF
:100020000000000000000000000000009D360008F5
:100030008108000800000000293500089F360008EC
:10004000B7010008B7010008B7010008B7010008B0
:10005000B7010008B7010008B7010008B7010008A0
:10006000B7010008B7010008B7010008B701000890
:10007000B7010008B7010008B7010008B701000880
:10008000B7010008B7010008B7010008B701000870
:10009000B7010008B7010008B7010008B701000860
:1000A000B7010008B7010008B701000831370008A0
:1000B0003D370008B701000800000000A524000833
:1000C000992400080000000000000000B7010008AB
:1000D00000000000B7010008B13B0008B7010008AC
:1000E000B7010008B7010008000000000000000090
:1000F0000000000000000000000000000000000000
:1001000000000000000000000000000000000000EF
:100110000000000000000000B7010008B70100085F
:1001200000000000000000000000000000000000CF
:1001300000000000000000000000000000000000BF
:10014000B7010008B701000800000000000000002F
:10015000000000000000000000000000000000009F
:10016000000000000000000000000000000000008F
:10017000000000000000000000000000000000007F
:1001800000000000B7010008DFF80CD000F058FBB9
:1001900000480047D1490008D8060020064880479B
:1001A00006480047FEE7FEE7FEE7FEE7FEE7FEE75C
:1001B000FEE7FEE7FEE7FEE71537000889010008C5
:1001C0002DE9F05F0546002092469B46884606468C
:1001D000814640241BE0284641464746224600F01F
:1001E00020F853465A46C01A914110D3114618467A
:1001F000224600F01FFA2D1A67EB01084F462246EF
:100200000120002100F016FA17EB00094E41201ED4
:10021000A4F10104DFDC484631462A464346BDE8E6
:10022000F09F202A04DB203A21FA02F000217047D7
:1002300021FA02F3D040C2F120029140084319464E
:100240007047D2B201E000F8012B491EFBD2704783
:100250000022F6E710B513460A4604461946FFF792
:10026000F0FF204610BD2DE9FE4F804681EA0300D5
:10027000C00F0C46009021F0004123F00045B8EB80
:100280000200A94105D24046214690461C460B4635
:10029000024623F00040104347D0270DC7F30A0061
:1002A000C3F30A510290401A019040286BDAC3F35D
:1002B000130040F4801B0098924620B10023D2EB3B
:1002C000030A63EB0B0B01985946C0F140025046FC
:1002D00000F0B0F906460D4650465946019A00F026
:1002E000B8F910EB08006141002487EA115284EA52
:1002F000E7731A4340D0009A62B3019A012A4FEA89
:10030000075215DC001B61EB02014FF0004202EACC
:100310000752CDE90042001C41F5801132462B46C0
:1003200000F0EFF903B0BDE8F08F40462146F9E751
:10033000001B61EB0201001C41F5801300185B41BA
:100340002018A2F5001747EB030140EAD570B61953
:100350006D4111E06D084FEA360645EAC0754FEA77
:100360000752001B61EB0201001C41F58011490896
:100370004FEA30000019514132462B4603B0BDE828
:10038000F04F00F0AFB90098012240000023D0EBFD
:10039000020263EBE073009821464FEAE074B8EB89
:1003A000000061EB0401E9E783F000435BE781F0C3
:1003B000004158E72DE9FE4F81EA030404F00044B0
:1003C00021F0004100944FF0000B23F0004350EA6D
:1003D00001045ED052EA03045BD0C3F30A54C1F3B4
:1003E0000A552C44A4F2F3340194A0FB0254C1F347
:1003F000130141F48011C3F3130343F4801301FB91
:10040000024400FB034E840A970A44EA815447EAF7
:100410008357A4FB076802958D0A05FB07854FEA01
:10042000932C04FB0C542705029D4FEA065847EA1B
:100430001637B5EB08056EEB070C870E920E47EAF0
:10044000811742EA8312A7FB0201B6EB0B0164EBB2
:1004500000042B0D43EA0C335E1844EB1C50DA46C3
:100460005146E7FB0201C5F313044FEA0B3343EA9D
:1004700014534FEA0432019C43EA0603A4F10C042E
:100480000294009CCDE900B400F03BF903B0BDE854
:10049000F08F00200146F9E72DE9F04D81EA0304D1
:1004A00004F0004B21F0004514464FF0000A23F001
:1004B000004150EA050220D054EA01021DD0C5F3E4
:1004C0000A570246C5F31303C1F31300C1F30A56DA
:1004D00040F4801543F48013A7EB0608101BD646A2
:1004E00008F2FD3873EB050002D308F1010801E0C2
:1004F00092185B41B8F1000F03DA00200146BDE815
:10050000F08D00204FF48011064684460EE0171B44
:1005100073EB050705D3121B63EB050306434CEA97
:10052000010C49084FEA300092185B4150EA01077C
:10053000EDD152EA030012D082EA040083EA0501F9
:10054000084305D0101BAB4106D20122002306E070
:1005500000224FF0004302E06FF0010253101AEB4B
:1005600006004CEB085110EB0A0041EB0B01BDE813
:10057000F04D00F0B7B80EB5C10F80EAE070084446
:10058000CA07002140F233438DE80E000A460B46AD
:1005900000F0B7F803B000BD70B5C1F30A5201F026
:1005A00000450024C1F3130140F2FF3341F48011F0
:1005B0009A4201DA002070BD40F233439A42A2F21F
:1005C000334203DC5242FFF72CFE00E090402C4304
:1005D000F1D0404270BD00F0004230F000400AD03F
:1005E000C10D01F56071C0F3160042EA0151C20865
:1005F00040071143704700200146704701F0004357
:1006000030B421F0004150EA010206D00A0DA2F5F3
:100610006072C1F31301002A02DC30BC0020704775
:10062000440F44EAC104C100E01830BC00EBC250E2
:1006300000F021B8202A04DB203A00FA02F1002061
:1006400070479140C2F1200320FA03F31943904010
:100650007047202A06DBCB17203A41FA02F043EA22
:10066000E07306E041FA02F3D040C2F1200291406B
:100670000843194670470029A8BF7047401C49002D
:1006800008BF20F00100704710B4B0FA80FC00FAF7
:100690000CF050EA010404BF10BC704749B1CCF122
:1006A000200421FA04F411FA0CF118BF01212143AE
:1006B0000843A3EB0C01CB1D4FEA00614FEA102069
:1006C00042BF002010BC704700EBC350104400290B
:1006D000A4BF10BC7047401C490008BF20F00100B7
:1006E00010BC704710B5141E73F1000408DA401CEA
:1006F00041F1000192185B411A4301D120F0010041
:1007000010BD2DE9F04D92469B4611B1B1FA81F230
:1007100002E0B0FA80F220329046FFF78BFF0446E9
:100720000F4640EA0A0041EA0B0153465A46084385
:1007300013D0114653EA010019D0C8F140025046C7
:10074000FFF76FFD05460E46504659464246FFF7F5
:1007500071FF084305D0012004E020463946BDE87A
:10076000F08D0020054346EAE0762C4337430A9893
:100770006305E40AA0EB08000022FD0A44EA47549E
:100780000A3002D500200146E9E701051019694148
:10079000DDE9084500196941BDE8F04DA2E72DE902
:1007A000F04D00231A461B1A8A4103DB0020014644
:1007B000BDE8F08DC1F30A52C1F3130141F4801575
:1007C0004FF0000BD10702D100186D41521E0027D7
:1007D000044640F2FF11384601EB620A3E4680466D
:1007E000024600204FF48011FFF71BFDC219714132
:1007F000BB1846EB0100B4EB030C75EB000C04D303
:10080000E41A65EB000517460E46241908F10100AD
:100810006D4180463428E3DDF91946EB0600091BDB
:10082000A84103D24FF0FF32134601E000221346E5
:100830001BEB070046EB0A51BDE8F04DFFF752BF36
:10084000064C074D06E0E06840F0010394E807001D
:1008500098471034AC42F6D3FFF79AFC784D000865
:10086000984D00080EB540F2334102910021CDE9C8
:1008700000110A460B46FFF744FF03B000BDFEE738
:1008800070470000044C002004F072F92068FA213F
:10089000484300F029F8F6E71000002010B590F862
:1008A00021100024022903D004218163012418E0CF
:1008B00001680A6822F00E020A6001680A6822F0E4
:1008C00001020A6090F84020C36B012101FA02F294
:1008D0005A6080F82110002180F82010416B01B18E
:1008E0008847204610BD000070B5044600F0DAF8D5
:1008F0000546601C02D004480078044400F0D2F899
:10090000401BA042FAD370BD140000202DE9F84F1F
:10091000DFF860B100234FF0010C4FF0030A4FF0F5
:100920000F090BF1040E9DE00CFA03F6344022008F
:100930007ED04C68022C01D0122C0ED1DC0800EBCA
:100940008408D8F820405D07EF0E09FA07F5AC439C
:100950000D69BD402543C8F8205007685D0091F837
:1009600004800AFA05F408F00308A74308FA05F81A
:1009700048EA0708C0F800804F68012F05D0022F11
:1009800003D0112F01D0122F11D18768D1F80C801C
:10099000A74308FA05F848EA0708C0F8088047683E
:1009A000B7430E79C6F300169E403E434660C668C4
:1009B000A6438C68AC403443C4604C68E40050D516
:1009C0002D4CA56945F00105A561A46923F0030537
:1009D00004F001040094294C2E19B4689D072F0FD0
:1009E00009FA07F5AC43B0F1904F04D0244DA8426A
:1009F00003D101250CE000250AE0224DA84201D1D7
:100A0000022505E0204DA84201D1032500E005257F
:100A1000BD402543B560DBF800405D464E68944319
:100A2000F60300D514432C607546DEF8004000E064
:100A300017E04E689443B60300D514432C600D4D67
:100A400008352C684E689443F60200D514432C6098
:100A5000084D0C352C684E689443B60200D51443FB
:100A60002C605B1C0A681446DA407FF45DAFBDE879
:100A7000F88F000000040140001002400000014017
:100A80000004004800080048000C004842690A427F
:100A900000D00904816170470AB1816170478162A9
:100AA0007047000001488068704700001400002073
:100AB00090F84120202A24D190F84020012A20D00B
:100AC000012280F84020242280F841200268136827
:100AD00023F0010313600268136823F4805313604A
:100AE000026813680B43136001680A6842F0010250
:100AF0000A60202180F84110002180F8401008464B
:100B000070470220704790F84120202A22D190F8A7
:100B10004020012A1ED0012280F84020242280F8A3
:100B200041200268136823F0010313600268136810
:100B300023F4706343EA0121116001680A6842F0FE
:100B400001020A60202180F84110002180F8401045
:100B500008467047022070477047704730B40368FA
:100B60009A691968D243D40509D4CC43240606D423
:100B7000446C44F0010444644FF48074DC61530518
:100B80000AD4CB431B0607D4436C43F008034364E9
:100B900004684FF48063E36192050AD4C9430906EF
:100BA00007D4416C41F00201416402684FF40071C6
:100BB000D161416C11F00B0F02D030BC01F00CBDC3
:100BC00030BC7047026891691268436B002B00D0FB
:100BD000184770477047000070B5040004D094F8BF
:100BE0004100002510B106E0012070BD84F840509E
:100BF000204600F0ADF9242084F841002068016807
:100C000021F0010101606068216820F070600861D6
:100C10002068816821F400418160E0680128A068B3
:100C200007D040F4044021688860E068022803D0BF
:100C300006E040F40040F6E721684FF400604860A9
:100C400020684168114A114341602068C16821F45D
:100C50000041C160D4E904010843A16940EA0120D0
:100C60002168C860D4E9070108432168086020684A
:100C7000016841F0010101606564202084F84100B1
:100C8000256384F84250002070BD000000800002FF
:100C9000704700002DE9FF4F83B00446DDE910875F
:100CA00090F84100DDF848909A469346202874D188
:100CB0005FEA080014D09FB194F8400001286CD07E
:100CC000012084F84000FFF7EDFE06460122009067
:100CD0001923D103204601F00DFF002871D103E054
:100CE0004FF4007060646CE0222084F841004020E2
:100CF00084F8420000256564C4F824806785656334
:100D0000CDE9009653465A462046049901F0E8FD85
:100D100010B184F8405054E0618D3548FF274FF002
:100D200080784FF0007AFF2904D927853A46434658
:100D3000009005E0618D2185009094F828205346AD
:100D40002046049901F0C0FE4B46002204212046B3
:100D5000009601F0CFFEA0BB2068406A616A08706F
:100D6000606A401C6062208D401E81B22185608DCA
:100D7000401E6085608DD8B1D1B94B4600228021DC
:100D80002046009601F0B6FED8B9608DFF2805D93F
:100D900027853A464346009506E026E0608D20858B
:100DA000009594F8282053462046049901F08CFEC3
:100DB000608D0028C8D132464946204601F0C6FE63
:100DC00018B1012007B0BDE8F08F21682020C8616C
:100DD00021684A68074B1A404A6084F8410084F849
:100DE000425084F840500020ECE70220EAE700007F
:100DF0000024008000E800FE2DE9FF4F83B0044688
:100E0000DDE9108790F84100DDF848909A46934656
:100E1000202871D15FEA080014D09FB194F84000F7
:100E2000012869D0012084F84000FFF73BFE064608
:100E3000012200901923D103204601F05BFE002817
:100E40006ED103E04FF40070606469E0212084F803
:100E50004100402084F8420000256564C4F82480E5
:100E600067856563CDE9009653465A462046049946
:100E700001F068FD10B184F8405051E0608DFF270B
:100E80004FF080784FF0007AFF2804D927853A4642
:100E90004346009505E0608D2085009594F8282054
:100EA00053462046049901F00FFE3246494620463B
:100EB00001F072FEA0BB606A216800788862606AF7
:100EC000401C6062608D401E6085208D401E80B297
:100ED0002085618DD9B1D0B94B46002280212046B2
:100EE000009601F007FED8B9608DFF2805D9278547
:100EF0003A464346009506E026E0608D2085009541
:100F000094F8282053462046049901F0DDFD608DB9
:100F10000028CAD132464946204601F017FE18B1D2
:100F2000012007B0BDE8F08F20682021C161206852
:100F30004268064B1A40426084F8411084F84250DF
:100F400084F840500020ECE70220EAE700E800FEC9
:100F500010B586B0044614216846FFF779F91A499E
:100F6000206888422ED1194C606940F4802060616D
:100F70006069694600F480200590C020009012202E
:100F80000190012002900320039004200490104857
:100F9000FFF7BCFCE06940F40010E061E06900226A
:100FA00000F40010059002211F2000F073F81F20AC
:100FB00000F062F800220321202000F06BF82020CE
:100FC00000F05AF806B010BD005400400010024076
:100FD0000004004870477047024881680278114455
:100FE0008160704714000020074810B5016841F087
:100FF00010010160032000F06DF8002000F006F8F9
:1010000000F024F8002010BD0020024070B50D4D06
:1010100004464FF47A712878B1FBF0F00A49096868
:10102000B1FBF0F000F057FE48B9102C07D20022B7
:101030002146501E00F02EF800206C6070BD01208B
:1010400070BD00001400002020000020094808B5F1
:10105000816941F001018161816901F00101009123
:10106000C16941F08051C161C06900F080500090B9
:1010700008BD000000100240002809DB00F01F023C
:10108000012191404009800000F1E020C0F80011EA
:1010900070470000F0B40E4B1B680C46C3F30223EC
:1010A000C3F10705042D00D90425191D072901D214
:1010B000002300E0DB1E012606FA05F1491E21404F
:1010C00099409E40761E16403143F0BC02F08FBD21
:1010D0000CED00E0064900F0070208684FF6FF0338
:1010E000184040EA0220034A10430860704700009D
:1010F0000CED00E00000FA052DE9F84F0446006809
:10110000574DC0036FD5E8690026C00008D4E869D0
:1011100040F08050E861E869012600F080500090BE
:1011200050480168C90512D40168804641F48071B5
:101130000160FFF7B7FC074605E000BFFFF7B2FC10
:10114000C01B642835D8D8F80000C005F6D5286A39
:1011500010F4407053D0A18801F4407181424ED008
:10116000286A4FF4803191FAA1F2B2FA82F2970024
:101170003D4A4FF00108174420F44070C7F800843E
:1011800091FAA1F1B1FA81F102EB81010023C1F8DA
:1011900000342862C00732D0FFF784FC074641F2D2
:1011A000883A4FF0020907E0FFF77CFCC11B51456C
:1011B00002D90320BDE8F88F99FAA9F1B1FA81F1BB
:1011C00041F040014846B8EB511F01D129680CE0BD
:1011D00090FAA0F1B1FA81F141F04001B0EB511F5A
:1011E00002D1296A01E015E0696A99FAA9F0B0FA1A
:1011F00080F000F01F0008FA00F21142D4D0286AF3
:10120000616820F44070084328621EB1E86920F04C
:101210008050E8612078C00705D0286BA16820F0D5
:101220000300084328632078800605D5286BE16811
:1012300020F01000084328632078000605D5E86AEE
:10124000216920F4F8700843E8622088C00405D5BD
:10125000286B616920F48070084328630020A9E7A7
:101260000010024000700040000042422DE9F047AB
:101270000F46050069D04A4E306800F00700B842BA
:1012800009D2306820F0070038433060306800F041
:101290000700B84259D12878424C800705D56068CC
:1012A000A96820F0F000084360602878C0073DD0AE
:1012B0006968012001290DD0022923D05FF00203C3
:1012C00093FAA3F2B2FA82F242F02002520904D059
:1012D000226803E04FF40033F2E7626A93FAA3F363
:1012E000B3FA83F303F01F03984002422DD06068E5
:1012F00020F0030008436060FFF7D4FB804641F212
:1013000088390CE04FF00073DAE700BFFFF7CAFB43
:10131000A0EB0801494502D90320BDE8F0876068C9
:10132000696800F00C00B0EB810FEFD1306800F07D
:101330000700B8420BD9306820F00700384330600E
:10134000306800F00700B84201D00120E5E72878B6
:10135000400705D56068E96820F4E06008436060F4
:101360002878000706D56068296920F4605040EAB3
:10137000C100606000F04EF86168F02292FAA2F2BB
:1013800001F0F001B2FA82F2D140074A515CC84044
:101390000649086006480068FFF738FE0020BCE7F1
:1013A0000020024000100240F04B00082000002006
:1013B0001800002008480949006849684FF4E062B5
:1013C00092FAA2F201F4E061B2FA82F2D140044A48
:1013D000515CC8407047000020000020001002400F
:1013E000004C000808480949006849684FF46052F9
:1013F00092FAA2F201F46051B2FA82F2D140044AA8
:10140000515CC840704700002000002000100240DE
:10141000004C0008164A10B55168164801F00C033C
:10142000042B20D0082B1ED14FF4701494FAA4F48E
:1014300001F47013B4FA84F4E3400F4CD26AE45C14
:101440000F2393FAA3F302F00F02B3FA83F3DA4007
:10145000094B1033C9039A5C06D500231946FEF7E1
:10146000AFFEA0FB040110BD0448A4FB000110BDA9
:101470000010024000127A00D04B000800093D0025
:101480002DE9F84F050071D02878FC4EC0074FF0C9
:10149000010425D070686704C0F38100012807D0DB
:1014A0007068C0F3810002281BD17068C00318D592
:1014B00097FAA7F0B0FA80F040F02000400901D080
:1014C000306800E0706A97FAA7F1B1FA81F101F093
:1014D0001F0104FA01F1084265D068680028D2D0E3
:1014E00061E06868B0F5803F0BD010B1B0F5A02F77
:1014F00017D0306820F480303060306820F48020CD
:1015000002E0306840F480303060F06AA96820F072
:101510000F000843F062686820B3FFF7C3FA804603
:101520000AE0306840F480203060EAE7FFF7BAFA5A
:10153000A0EB0800642871D897FAA7F0B0FA80F001
:1015400040F02000400901D0306800E0706A97FA4E
:10155000A7F1B1FA81F101F01F0104FA01F108428B
:10156000E4D020E0FFF79EFA804607E0C2E000BF2B
:10157000FFF798FAA0EB08006428DCD897FAA7F0E8
:10158000B0FA80F040F02000400901D0306800E05F
:10159000706A97FAA7F1B1FA81F101F01F0104FA1C
:1015A00001F10842E4D12878DFF8D48280074FF0B7
:1015B000000A4FF0020730D570684FF0F80B10F0BA
:1015C0000C0F07D07068C0F38100022827D1706823
:1015D000C00324D497FAA7F0B0FA80F040F02000BE
:1015E000400901D0306800E0706A97FAA7F1B1FABB
:1015F00081F101F01F0104FA01F1084202D02869CB
:10160000012877D130689BFAABF220F0F8016869C5
:10161000B2FA82F29040014331605AE064E12869F5
:1016200088B394FAA4F0B0FA80F048F82040FFF7AD
:1016300039FA814606E000BFFFF734FAA0EB090053
:1016400002289AD897FAA7F0B0FA80F040F020006C
:10165000400901D0306800E0706A97FAA7F1B1FA4A
:1016600081F101F01F0104FA01F10842E4D0306871
:101670009BFAABF26969B2FA82F220F0F80091406D
:101680000843306025E0FFE794FAA4F0B0FA80F058
:1016900048F820A0FFF706FA814605E0FFF702FAB6
:1016A000A0EB09000228CCD897FAA7F0B0FA80F096
:1016B00040F02000400901D0306800E0706A97FADD
:1016C000A7F1B1FA81F101F01F0104FA01F108421A
:1016D000E4D1287800076CD5A869A8B394FAA4F0DF
:1016E000B0FA80F008EB8000C0F88044FFF7DAF928
:1016F000814607E0A4E100BFFFF7D4F9A0EB0900A1
:1017000002289ED897FAA7F0B0FA80F040F0600067
:10171000B4EB501F01D130680BE097FAA7F0B0FA94
:1017200080F040F06000B7EB501F01D1306A00E05C
:10173000706A97FAA7F1B1FA81F101F01F0104FA7A
:1017400001F21042D8D034E0FFE794FAA4F1B1FAE4
:1017500081F108EB8101C1F880A4FFF7A3F981466C
:1017600006E000BFFFF79EF9A0EB090002289AD817
:1017700097FAA7F0B0FA80F040F06000B4EB501F89
:1017800001D130680BE097FAA7F0B0FA80F040F092
:101790006000B7EB501F01D1306A00E0706A97FA21
:1017A000A7F1B1FA81F101F01F0104FA01F2104230
:1017B000D8D12878400768D5F0694FF00009C000FB
:1017C00009D4F06940F08050F061F0694FF00109F0
:1017D00000F0805000902B480168C90512D40168C0
:1017E00041F480710160FFF75DF9834606E000BFB8
:1017F000FFF758F9A0EB0B00642875D82148006862
:10180000C005F5D5E86801280AD008B1052811D02F
:10181000306A20F001003062306A20F0040002E0FB
:10182000306A40F001003062E86868B3FFF73AF9C7
:1018300083460DE0306A40F004003062F0E700BFFC
:10184000FFF730F9A0EB0B0141F2883081424BD811
:1018500097FAA7F0B0FA80F040F04000B4EB501FC8
:1018600001D1306813E097FAA7F0B0FA80F040F0A9
:101870004000B7EB501F09D1306A08E00010024069
:1018800000004242007000400CE040E0706A97FAAD
:10189000A7F1B1FA81F101F01F0104FA01F210423F
:1018A000CED02DE0FFF7FEF8834607E0FFF7FAF809
:1018B000A0EB0B0141F28830814215D897FAA7F0CE
:1018C000B0FA80F040F04000B4EB501F01D1306816
:1018D0000CE097FAA7F0B0FA80F040F04000B7EBC8
:1018E000501F02D1306A01E083E0706A97FAA7F1D5
:1018F000B1FA81F101F01F0104FA01F21042D5D1D1
:10190000B9F1000F03D0F06920F08050F061E86970
:1019100080B37168C1F38101022977D04FF08071E3
:101920004F000228504609D091FAA1F1B1FA81F195
:1019300048F82100FFF7B6F805465DE0894691FAC0
:10194000A1F1B1FA81F1C24648F82100FFF7AAF8E7
:10195000804605E0FFF7A6F8A0EB0800022848D86B
:1019600097FAA7F0B0FA80F040F02000400902D0CA
:10197000306801E066E0706A97FAA7F1B1FA81F188
:1019800001F01F0104FA01F10842E3D1D5E9081082
:101990000843716821F474110843706099FAA9F042
:1019A000B0FA80F04AF82040FFF77CF8054604E0E2
:1019B000FFF778F8401B02281BD897FAA7F0B0FA77
:1019C00080F040F02000400901D0306800E0706AEB
:1019D00097FAA7F1B1FA81F101F01F0104FA01F1C0
:1019E0000842E5D02EE000BFFFF75CF8401B02285C
:1019F00002D90320BDE8F88F97FAA7F0B0FA80F07B
:101A000040F02000400902D0306801E00BE0706A2D
:101A100097FAA7F1B1FA81F101F01F0104FA01F17F
:101A20000842E1D10EE00128E4D070682A6A00F48F
:101A30008031914204D1696A00F47010884201D06B
:101A40000120D7E70020D5E72DE9F041040005D0BB
:101A50000025A56294F85D0018B107E00120BDE8FB
:101A6000F08184F85C50204600F044F8022384F8AA
:101A70005D302068016821F040010160E0684FF4AA
:101A8000E066B04201D9002101E04FF48051B0F589
:101A9000706F02D0B04200D0A562276B012227B937
:101AA000B04201D9236300E02263D4E90103184363
:101AB000D4E9043633431843238B03F400731843EB
:101AC000E3691843236A1843A36A1843236818601C
:101AD000636B606AA66918430427E36807EA164641
:101AE00033431843084321684860256684F85D2025
:101AF0000020B4E710B586B0044614216846FEF70E
:101B0000A7FB1349206888421FD11248816941F41C
:101B100080518161816901F480510591416941F4ED
:101B2000003141614069694600F400300590A02011
:101B300000900220019000200290032003900520D5
:101B400004904FF09040FEF7E1FE06B010BD00009B
:101B500000300140001002402DE9F84F044690F893
:101B60005C0000271D461646894601280DD04FF01F
:101B7000010B84F85CB0FEF795FF804694F85D0099
:101B8000BA46012804D002279FE00220BDE8F88F62
:101B9000B9F1000F6FD0002E6DD0032084F85D00E6
:101BA000C4F860A0C4F83890A687E687C4F840A0BF
:101BB000A4F844A0A4F846A0C4F850A0C4F84CA0CF
:101BC000A068B0F5004F04D12068016841F480415D
:101BD000016020680168490603D4016841F04001B2
:101BE0000160E068B0F5E06F606823D908B1012EAC
:101BF0001CD1A06B21680088C86006E0206881685D
:101C0000890709D5A16B0988C160A06B801CA063FE
:101C1000E08F401EE08709E0FEF744FFA0EB0800DC
:101C2000A84202D3681C01D046E0ADB3E08F002883
:101C3000E4D136E008B1012E30D1E08F0128A06B4D
:101C400003D921680088C8600FE021680078087314
:101C500014E0E08722E020688168890714D5E18FCD
:101C60000129A16B08D90988C160A06B801CA06301
:101C7000E08F801EEDE727E009780173A06B401C20
:101C8000A063E08F401EE4E7FEF70CFFA0EB080026
:101C9000A84202D3681C01D00EE06DB1E08F00288D
:101CA000D9D142462946204601F03FFC08B1202008
:101CB0002066A06810B105E0032706E02068C1682F
:101CC00080680090206E00B1012784F85DB084F830
:101CD0005CA038465AE710B5401EB0F1807F01D3B2
:101CE000012010BD4FF0E02460610F21601701F06A
:101CF0007EFF0020A06107202061002010BD7047FA
:101D000070477047F0B590F83C20012A2CD0012490
:101D100080F83C40022280F83D2003685A689D68A4
:101D2000124EB34203D122F470074A683A4322F0BC
:101D300070070A683A435A600268B24208D0B2F1AA
:101D4000804F05D00A4B9A4202D00A4B9A4204D1E6
:101D5000896825F080031943916080F83D40002197
:101D600080F83C100846F0BD0220F0BD002C014078
:101D700000040040004001402DE9F041424B43493E
:101D80000268002501264FF6FF7701F148049A42C8
:101D900058D1027F012A18D0022A31D0042A12D148
:101DA0008846896B00294FF0080144D000F03BFAC7
:101DB000C8F82000D8F80820801A606001D538449F
:101DC0006060C8F83850BDE8F0818846096B00298A
:101DD0004FF000010DD000F026FAC8F81800D8F82E
:101DE0000020801AA06001D53844A060C8F83050A7
:101DF000E9E700F018FAC8F83060C8F80000E2E738
:101E00008846496B00294FF004010DD000F00BFA11
:101E1000C8F81C00D8F80420801A206001D5384486
:101E20002060C8F83450CEE700F0FDF9C8F83460FF
:101E3000C8F80400C7E700F0F6F9C8F83860C8F839
:101E40000800C0E7B2F1804FBDD1027F022ABAD1AB
:101E50008846C96B00294FF004010DD000F0E3F96A
:101E6000C8F82400D8F80C20801AE06001D5384466
:101E7000E060C8F83C50A6E700F0D5F9C8F83C602F
:101E8000C8F80C009FE70000002C014080020020F1
:101E90002DE9F041044690F83C000D4601283DD064
:101EA000012684F83C60022084F83D00AAB3042A8D
:101EB00046D02068082A55D0D5E90027E968036A8A
:101EC00023F480530362D0F81CC0036A2CF4407CD6
:101ED0004CEA07274FF6FF7C27F470470CEA0131E4
:101EE00039434FF4204723F4204307EA02321A43D0
:101EF000C16102622068C16921F44061C16120684A
:101F0000C169AA6841EA0221C0F81C1084F83D604A
:101F1000002084F83C00BDE8F08101E00220FAE7EF
:101F2000D5E90012EB68206801F052FC2068816955
:101F300021F00C01816120688169AA6811430FE0DA
:101F4000D5E90012EB68206801F06EFC2068816919
:101F500021F44061816120688169AA6841EA022117
:101F60008161D3E7D5E9002C2F7B016A21F48071D0
:101F70000162C169036A21F0030141EA0C0121F009
:101F8000F00C39074FF420674CEA116123F4206309
:101F900007EA02221A43C16102622068C16921F086
:101FA0000C01C1612068C169AA681143ACE710B592
:101FB000040003D094F83D0010B107E0012010BDEB
:101FC000002084F83C00204600F00CF8022084F841
:101FD0003D00211D206801F0B7FB012084F83D0081
:101FE000002010BD30B587B0044614216846FEF7C6
:101FF0002FF92468274D0023274902224FF09040F3
:10200000AC4220D18C6944F400648C618C6904F486
:10201000006405944C6944F400344C61496901F44E
:10202000003105914FF4E0618DE80E000621CDE905
:1020300003316946FEF76AFC002211461B20FFF7B8
:1020400029F81B2021E0B4F1804F20D1CC6944F065
:102050000104CC61CC6904F0010405944C6944F49A
:1020600000344C614969009201F400310591CDE9D9
:1020700001230121CDE903316946FEF747FC002227
:1020800001211C20FFF706F81C20FEF7F5FF07B022
:1020900030BD0000002C01400010024070B5044625
:1020A000006801694FF00005C943890715D4C1686C
:1020B000C943890711D4E91E0161012020772068F6
:1020C00080698007204602D0FFF756FE04E000F04A
:1020D000A7F8204600F0A5F8257720680169C943D4
:1020E000490717D4C168C943490713D46FF00401E5
:1020F0000161022020772068806910F4407F20462B
:1021000002D0FFF739FE04E000F08AF8204600F024
:1021100088F8257720680169C943090716D4C16882
:10212000C943090712D46FF0080101610420207728
:102130002068C0698007204602D0FFF71DFE04E03A
:1021400000F06EF8204600F06CF8257720680169F1
:10215000C943C90617D4C168C943C90613D46FF06F
:1021600010010161082020772068C06910F4407FC9
:10217000204602D0FFF700FE04E000F051F82046B0
:1021800000F04FF8257720680169C943C90708D1D5
:10219000C168C943C90704D1891E0161204600F006
:1021A00041F820680169C943090609D4C168C943D7
:1021B000090605D46FF0800101612046FFF7A0FDFC
:1021C00020680169C943C90509D4C168C943090622
:1021D00005D46FF4807101612046FFF790FD2068FF
:1021E0000169C943490609D4C168C943490605D4F0
:1021F0006FF040010161204600F02AF82068016973
:10220000C94389060BD4C168C943890607D46FF056
:10221000200101612046BDE87040FFF772BD70BD2E
:102220007047704770470246002041B1042909D029
:1022300008290AD00C2901D11068006C7047106879
:10224000406B70471068806B70471068C06B7047B8
:1022500070477047704700002DE9F041026804465E
:10226000D0691168936840F60F0528424FF00005C9
:1022700005D186067BD58E0679D5216E88E003F0E0
:10228000010601F49077374371D0C70707D0CF0517
:1022900005D501271762E26F42F00102E26782076B
:1022A00008D5DA0706D0276802223A62E26F42F0C8
:1022B0000402E267420708D5DA0706D02368042241
:1022C0001A62E26F42F00202E26702070AD501F0E9
:1022D0002002324306D0236808221A62E26F42F0DD
:1022E0000802E267020509D54A0107D523684FF4C1
:1022F00000621A62E26F42F02002E267E26F002A97
:102300002ED0800605D5880603D5216E09B120465A
:102310008847E06F21688968490602D410F0280FC9
:1023200020D0204601F035FB20688168490614D58D
:10233000816821F040018160E06E70B11D49416308
:10234000E06EFEF7ABFA00280AD0E06E416B00E0C9
:102350002046BDE8F041084709E02046FFF77AFF34
:10236000BDE8F0812046FFF775FFE567F8E7C60294
:1023700009D55B0207D54FF4801010622046BDE8F6
:10238000F041FFF766BF030605D50B0603D5616E66
:102390000029DDD1E4E74006E2D54806E0D5116822
:1023A000204621F04001116020216167656600F040
:1023B00071F8D5E77F39000810B5040002D0606FCE
:1023C00010B107E0012010BD002084F87000204605
:1023D00000F026F8242060672068016821F00101E0
:1023E0000160204601F0E4FA0128ECD0606A10B1E7
:1023F000204601F034FA2068416821F490414160A0
:102400002068816821F02A0181602068016841F01C
:10241000010101602046BDE8104001F084BA0000CF
:1024200010B586B0044614216846FDF711FF174920
:102430002068884227D11648C16941F40031C16142
:10244000C16901F400310591416941F400314161F4
:102450004069694600F4003005900C20009002208D
:1024600001900020029003200390072004904FF079
:102470009040FEF74BFA002211462620FEF70AFE96
:102480002620FEF7F9FD06B010BD00000044004014
:10249000001002407047FEE70148FEF75FBB0000F6
:1024A000280000200148FEF78DBB00002800002016
:1024B00010B5406A0021826B5163C26B516390F882
:1024C0004110602902D0FEF785FB10BD202180F865
:1024D0004110FEF741FB10BD10B50022CC074FF0B4
:1024E000280306D090F84140422233EA040400D089
:1024F000F2228C0707D590F8414042F04402A343F2
:1025000001D042F0B0024B0701D542F0B8021123CE
:102510008B4301D142F0900212238B4301D142F050
:102520006002006801689143016010BD01688A691A
:10253000D243920701D400228A6200688169C943AC
:10254000C90703D0816941F00101816170472DE91C
:10255000F041044690F841002821814320684FF063
:1025600000054FF0080304D0C36184F84050BDE873
:10257000F0818169C1F300478169FE2202EA1146B8
:102580008168C1F30902C168D4F80CC001F0FE01F2
:10259000BCF1020F17D14FF0060C06F006060CEA4C
:1025A000D21C66450ED1A16C491CA164A16C022904
:1025B000DDD1A564C36184F8405039462046FEF75A
:1025C000CCFAD4E70E4604212046FFF785FF84F8B5
:1025D00040503246F1E7000070B5044690F84100E3
:1025E000002584F84250314AE2626585626C0A43F4
:1025F00062642026282825D0292823D02A2821D003
:1026000007212046FFF768FF94F84100602801D0B9
:1026100084F8416025636563206801684A042449A1
:1026200002681AD522F480420260A06B002833D0E1
:10263000416384F84050A06BFEF730F900282BD09E
:10264000A06B1CE003212046FFF746FF282084F8FA
:102650004100256317486063DEE7120413D5026862
:1026600022F400420260E06B002815D0416384F838
:102670004050E06BFEF712F900280DD0E06B416B83
:10268000BDE87040084794F84100602805D084F800
:1026900040502046FEF79EFA70BD84F8416084F8F1
:1026A00040502046FEF758FA70BD00000000FFFFC2
:1026B000B1240008A929000870B504461548E06255
:1026C00000252563202084F8410084F84250C84347
:1026D0006563400711D42068406A616A0870606AC7
:1026E000401C6062208D40B1401E2085608D401EE0
:1026F0006085606C40F00400606407212046FFF7AD
:10270000EBFE21681020C86184F840502046FEF797
:10271000BFFA70BD0000FFFF2DE9F04104460068DC
:10272000056820270E46C76107212046FFF7D4FE23
:102730002068416841F40041416020684168304AA6
:10274000114041602046FFF7F1FEE843410401D407
:10275000A06B02E0000404D4E06B10B10068406894
:102760006085F04340070FD4206826F00406406AD5
:10277000616A0870606A401C6062208D20B1401E52
:102780002085608D401E6085608D18B1606C40F0C2
:10279000040060640025256384F842506563606C22
:1027A00068B1616C2046FFF717FF94F841002828B4
:1027B00014D131462046BDE8F041FFF77DBFE06A05
:1027C000104EB0420CD0204600F01EF8E66284F8AD
:1027D000417084F840502046FEF75AFABDE8F08177
:1027E00094F8410084F84170222884F84050204633
:1027F00002D0FEF7F0FBF1E7FEF7ECFBEEE700009E
:1028000000E800FE0000FFFF70B50025044680F8D8
:10281000425090F841102820292911D094F84110F5
:102820002A290CD184F8410022202063022120466D
:10283000FFF752FE84F840502046FEF7CBFB70BDF8
:1028400084F841002120206301212046FFF744FE47
:1028500084F840502046FEF7BEFB70BD2DE9F041E4
:102860000446006890460E468069C043C00633D4D3
:102870000025202720688069C043800615D5701C7C
:10288000F8D0FEF70FF9A0EB0800B04201D8002EF7
:10289000F0D154F8440F40F0200044F80409677068
:1028A000A57025700120BDE8F08121681020C86165
:1028B0002068C7612046FFF739FE54F8440B416891
:1028C000064A11404160206840F0040044F82009A5
:1028D0006777A5772577E5E70020E4E700E800FEC5
:1028E0002DE9F84304461646DDE908971448984652
:1028F000DAB200900023204600F0E6F83A46494656
:10290000204600F049F9B8B9F5B2B8F1010F08D086
:102910002168300A88623A464946204600F03CF970
:1029200050B9206885624B4600224021204600971E
:1029300000F0E0F8002800D00120BDE8F883000096
:10294000002000802DE9F8430446164615489846B5
:10295000DDE90897DAB2C3020090204600F0B4F82F
:102960003A464946204600F017F9B8B9F5B2B8F131
:10297000010F08D02168300A88623A46494620464D
:1029800000F00AF950B9206885624B460022802188
:102990002046009700F0AEF8002800D00120BDE8E6
:1029A000F8830000002000802DE9F041C56A04464C
:1029B00090F840008846012826D0012084F8400085
:1029C0006FEA0807B8066FEA020605D4B00603D41A
:1029D00041462046FFF7A0FE3A49F8064FF08072C4
:1029E00031D4F0062FD4638D102083B12168C861E3
:1029F000606C40F0040060640DB195425ED1616C82
:102A00002046FFF7E9FD59E00220BDE8F08194F887
:102A10004120282A02D1B5F1007F04D094F841204A
:102A2000292A05D00CE041462046FFF745FE45E047
:102A30008D4205D02168C8612046FFF777FD3AE056
:102A40002168C8613AE0780715D4700713D4608D07
:102A500060B12068406A626A1070606A401C6062FF
:102A6000208D401E2085608D401E6085608D28BBB6
:102A70008D4220D122E0380706D4300704D44146E5
:102A80002046FFF764FD19E0B80717D4B00715D446
:102A9000608D68B1606A216800788862606A401C55
:102AA0006062608D401E6085208D401E208505E09F
:102AB000954200D015B92046FFF7A6FE002084F805
:102AC0004000A2E70000FFFFF0B50568059C6868BC
:102AD0004FF48066064FC1F3090106EA545641EAF5
:102AE00002413E431943B043214308436860F0BDAF
:102AF000FF63FF032DE9F0411D4617460E460446CD
:102B0000DDF8188008E0681C06D0FDF7CBFFA0EBCD
:102B10000800A8420BD855B12068806936EA000049
:102B200012D00020B842EED00020BDE8F08154F869
:102B3000440F40F0200044F8040920206070002079
:102B4000A07020700120F0E70120EBE770B5164679
:102B50000D4604460DE0324629462046FFF77EFE2C
:102B600008B1012070BDFDF79DFF801BA84207D86A
:102B700035B120688069C0438006ECD4002070BD68
:102B800054F8440F40F0200044F8040920206070FD
:102B90000020A0702070E4E770B516460D4604468C
:102BA0000FE0324629462046FFF758FE08B10120C3
:102BB00070BD681C05D0FDF775FF801BA84207D8C3
:102BC00035B120688069C0438007EAD4002070BD19
:102BD00054F8440F40F0200044F8040920206070AD
:102BE0000020A0702070E2E770B5434C00252DED69
:102BF000028B0021404800F0DBF818B10120BDEC49
:102C0000028B70BDB4F91200FDF7B5FC94ED061B04
:102C100053EC112BFDF727FBC4E90601B4F91400AE
:102C2000FDF7A9FC94ED081B53EC112BFDF71BFBE2
:102C3000C4E90801B4F91600FDF79DFC94ED0A1BE8
:102C400053EC112BFDF70FFBC4E90A01B4F90C009A
:102C5000FDF791FC94ED0C1B53EC112BFDF703FBDE
:102C6000C4E90C01B4F90E00FDF785FC94ED0E1BD0
:102C700053EC112BFDF7F7FAC4E90E010320FDF721
:102C800033FE6D1CB5F5FA6FB3DB94ED060B9FEDCB
:102C90001B8B51EC100B53EC182BFDF7FDFBC4E91B
:102CA000060194ED080B53EC182B51EC100BFDF7BB
:102CB000F3FBC4E9080194ED0A0B53EC182B51EC1B
:102CC000100BFDF7E9FBC4E90A0194ED0C0B53EC82
:102CD000182B51EC100BFDF7DFFBC4E90C0194ED50
:102CE0000E0B53EC182B51EC100BFDF7D5FBC4E980
:102CF0000E01002083E70000D80100200000000042
:102D000000409F402DE9FF41044641F0D000207073
:102D1000DFF8948000208DF80C00D8F800000168DE
:102D200021F040010160012603AF4FF0FF3500970D
:102D3000CDE90165217833466B221C48FEF75CF82B
:102D400030BB08208DF80C000097CDE90165217893
:102D500001231B221548FEF74FF8C8B910208DF843
:102D60000C000097CDE90165217801231C220F4852
:102D7000FEF742F860B903208DF80C000097CDE90A
:102D80000165217801231A220848FEF735F818B1A9
:102D9000012004B0BDE8F081D8F80000016841F0DE
:102DA000400101600020F4E77400002028000020AA
:102DB00030B50446284D87B041F0D0002070286817
:102DC000016821F0400101604FF0FF320E2103A89D
:102DD0008DE80700217801233B222048FDF75AFFA8
:102DE00010B1012007B030BDBDF80C0040BAA08181
:102DF000BDF80E0040BAE081BDF8100040BA208254
:102E0000BDF8120040BA00B2FDF7B5FB9FED141BF0
:102E100053EC112BFDF740FB9FED131B53EC112BD3
:102E2000FDF721FAFDF7EAFB2064BDF8140040BA73
:102E30006082BDF8160040BAA082BDF8181040426A
:102E400049BAA0824842E0822868016841F0400106
:102E500001600020C6E70000740000202800002068
:102E60000000000000407540A4703D0AD743424076
:102E70002DE9F04705462DED088B0021FE48FFF7B0
:102E800097FF20B10120BDEC088BBDE8F087B5F9B4
:102E90000C00FDF770FBF84C94ED0C1B53EC112B60
:102EA000FDF782FAFDF778FBA881B5F90E00FDF772
:102EB00062FB94ED0E1B53EC112BFDF775FAFDF739
:102EC0006BFBE881B4F91200FDF755FB94ED061B8E
:102ED00053EC112BFDF768FAFDF75EFB00B2608240
:102EE0000646B4F91400FDF746FB94ED081B53ECBD
:102EF000112BFDF759FAFDF74FFB05B2A582B4F986
:102F00001600FDF738FB94ED0A1B53EC112BFDF76F
:102F10004BFAFDF741FB00B2E08280463046FDF7F8
:102F20002AFB8A464AEC100B07469FEDD48B51ECE6
:102F3000100B53EC182BFDF7AFFA9FEDD29B53EC1F
:102F4000192BFDF737FA41EC1B0B94ED140B9FED99
:102F5000CFAB51EC100B53EC1A2BFDF72BFA53ECC3
:102F60001B2BFDF780F9C4E914012846FDF703FB8C
:102F7000894649EC100B064653EC182B51EC100B0C
:102F8000FDF78AFA53EC192BFDF714FA94ED120BA6
:102F900041EC1B0B53EC1A2B51EC100BFDF70AFA0A
:102FA00053EC1B2BFDF75FF9C4E912014046FDF716
:102FB000E2FA884648EC100B054653EC182B51EC0E
:102FC000100BFDF769FA53EC192BFDF7F3F994EDAB
:102FD000160B41EC180B53EC1A2B51EC100BFDF7B0
:102FE000E9F953EC182BFDF73EF949EC106B9FED16
:102FF000A98BC4E9160153EC182B51EC100BFDF70B
:10300000D9F994ED1C1B53EC112BFDF72CF94AEC6C
:10301000107BC4E91C0153EC182B51EC100BFDF78D
:10302000C9F994ED1E1B53EC112BFDF71CF948EC6C
:10303000105B9FED9A8BC4E91E0153EC182B51ECE9
:10304000100BFDF7B7F941EC100B00F091FF94ED78
:103050001E1B51EC100B53EC112BFDF7ABF994ED4B
:103060001C1B53EC112BFDF7FEF8C4E91C01B4F94D
:103070001600FDF780FA53EC182BFDF79BF941EC95
:10308000100B00F075FF94ED1C1B51EC100B53EC72
:10309000112BFDF78FF994ED1E1B53EC112BFDF74F
:1030A00086F9C4E91E01A08910FB00F1E08910FB3C
:1030B0000011208A10FB0010FDF75DFA41EC100BA7
:1030C00000F0BAFF51EC100BFDF766FA0546B4F9B3
:1030D0000E00002801DB014600E04142A9421BDA54
:1030E00000EE100AF8EEC00A00EE105AB8EEC01A50
:1030F00080EE810A10EE100AFDF76DFA41EC100B1C
:1031000000F086FD9FED671B51EC100B53EC112B6B
:10311000FDF750F9C4E92201B4F90C00002801DBE5
:10312000014600E04142A9421BDA00EE100AF8EE27
:10313000C00A00EE105AB8EEC01A80EE810A10EEF6
:10314000100AFDF748FA41EC100B00F061FD9FED0D
:10315000571B51EC100B53EC112BFDF72BF9C4E965
:103160002001544894ED220B0168E1B384ED1C0B5F
:1031700094ED200B002184ED1E0B016094ED1C0BDF
:103180009FED4D9B51EC100B53EC192BFDF712F9F1
:1031900041EC180B94ED240B9FED49AB51EC100B57
:1031A00053EC1A2BFDF706F953EC182BFDF75BF8DF
:1031B00041EC180B53EC192B84ED248B94ED1E0B72
:1031C00051EC100BFDF7F6F894ED260B41EC190BC2
:1031D00053EC1A2B51EC100BFDF7ECF853EC192BB8
:1031E000FDF741F800E017E041EC190B9FED36AB1D
:1031F00084ED269B53EC1A2B51EC180BFDF7DAF8F3
:10320000C4E91A0153EC1A2B51EC190BFDF7D2F853
:10321000C4E91801002036E69FED2DAB51EC100BF0
:1032200053EC1A2BFDF7C6F894ED1C0B9FED2A9B6F
:1032300041EC180B53EC192B51EC100BFDF7BAF8BD
:1032400053EC182BFDF70FF8C4E91C0194ED200B8B
:1032500053EC1A2B51EC100BFDF7ACF894ED1E0B50
:1032600041EC180B53EC192B51EC100BFDF7A2F8A5
:1032700053EC182B34E00000D801002000000000BF
:1032800000605040333333333333D33F6666666672
:103290006666E63F9615D4015A04103F626E2C65AF
:1032A0006FE2B13ED9CEF753E3A54C40D9CEF753E8
:1032B000E3A54CC0000000209A9999999999B93FCB
:1032C000CDCCCCCCCCCCEC3F0000000000002E409C
:1032D0007B14AE47E17A943F5C8FC2F5285CEF3FE8
:1032E000FCF7C1FFC4E91E0148E70000F0B587B054
:1032F00014216846FCF7ACFF1948416941F40031DC
:103300004161416901F400310591416941F4802135
:10331000416140694FF0904600F480200590002202
:1033200010213046FDF7B8FB0E4F002238213846F9
:10333000FDF7B2FB1020009001250024CDE90154D7
:10334000694630460394FDF7E1FA38200090CDE954
:103350000154694638460394FDF7D8FA07B0F0BD2A
:103360000010024000040048114810B50F490160E8
:1033700040F20B21416000210122C0E902120161EB
:1033800041618161C1610162FDF726FC50B90021F4
:103390000748FDF78DFB28B900210548FDF7B3FB71
:1033A000002801D0FDF76EFA10BD00000054004067
:1033B00028000020114810B50F4901604FF48271B8
:1033C000416000214FF4E062C0E902120122C0E92D
:1033D0000412520282613822C0E9072107224162A9
:1033E000C0E90A1201634163FEF72EFB002801D0F9
:1033F000FDF748FA10BD00000030014074000020C5
:1034000010B588B000241E480594069404940094D6
:10341000019402941949039401603F21C0E9011409
:103420004FF6FF71C0E9031444618461FEF7BFFDEC
:1034300000BB0494059404A911480694FEF762FCAD
:10344000C0B90A2000900120CDE90104002269469C
:103450000B480394FEF71CFD60B904226946084836
:10346000FEF716FD30B9082269460548FEF710FD43
:10347000002801D0FDF706FA08B010BD002C01406D
:10348000D800002010B588B0002417480594069491
:1034900004940094019402944FF0804103940160DD
:1034A0003F21C0E901144FF6FF71C0E903148461A4
:1034B000FEF77DFD98B9049404A90B480694FEF725
:1034C00021FC60B90A2000900120CDE9010404220A
:1034D000694605480394FEF7DBFC002801D0FDF7A0
:1034E000D1F908B010BD0000180100200C4810B53B
:1034F0000A4901604FF416514160002181600C229D
:10350000C160C0E904128161C16101624162FEF7DC
:1035100053FF002801D0FDF7B5F910BD004400406D
:1035200058010020FEE770477047F8B515460E4673
:103530000B460092044600224FF4C05100F019F8E7
:1035400088B93346002280212046009500F05CF8BF
:1035500048B9334600224FF4C0612046009500F080
:1035600008F8002804D0206E40F0200020660320D8
:10357000F8BD2DE9F0471D4617460E4604464FF4A8
:10358000C068DDF820900CE0464501D107B9007B0A
:10359000681C06D0FDF786FAA0EB0900A84208D205
:1035A0003DB1206881683140B942EDD10020BDE8CD
:1035B000F0872068416821F0E00141606068B0F563
:1035C000827F0BD1A068B0F5004F02D0B0F5806FBC
:1035D00004D12068016821F040010160A06AB0F5C3
:1035E000005F09D12068016821F400510160206862
:1035F000016841F400510160012084F85D00002061
:1036000084F85C000320D2E72DE9F0411D461746FF
:103610000E460446DDF8188008E0681C06D0FDF769
:1036200041FAA0EB0800A8420BD255B1206880688F
:1036300036EA000030D00020B842EED10020BDE8CC
:10364000F0812068416821F0E00141606068B0F5D8
:10365000827F0BD1A068B0F5004F02D0B0F5806F2B
:1036600004D12068016821F040010160A06AB0F532
:10367000005F09D12068016821F4005101602068D1
:10368000016841F400510160012084F85D000020D0
:1036900084F85C000320D2E70120CDE77047FDF7F6
:1036A0009BBC30B595B028216846FCF7D1FD1421AC
:1036B0000AA8FCF7CDFD18210FA8FCF7C9FD0225CB
:1036C0000120049000951020059000244FF4601014
:1036D000CDE9084007956846FDF7D2FEA8B90F204E
:1036E000CDE90A056802CDE90C4002210AA80E9432
:1036F000FDF7BCFD48B94FF4815014940F9012941B
:103700000FA8FDF7F9FC002801D0FDF7BBF815B0B4
:1037100030BD00000548016841F4700101600349B3
:103720004FF00060803908607047000088ED00E0CD
:103730000148FEF7B3BC0000D80000200148FEF7A6
:10374000ADBC000018010020F0B502681B4B1C4FF7
:103750004FF0804C984203D0604501D0B84203D16D
:1037600022F070044A682243164C174D174E9842B7
:1037700009D0604507D0B84205D0A04203D0A84286
:1037800001D0B04203D122F44077CA683A434F696E
:1037900022F080023A4302608A68C2620A6882624A
:1037A000984205D0A04203D0A84201D0B04201D136
:1037B0000969016301214161F0BD0000002C014055
:1037C0000004004000400140004401400048014026
:1037D00070B5046A24F0010404628469056A0F4E1E
:1037E000B04208D0B0F1804F05D00D4EB04202D0AB
:1037F0000C4EB04203D124F00304144301E044F022
:1038000001041A0724F0F00444EA126225F00A03C6
:1038100001F00A0119438261016270BD002C014070
:10382000000400400040014030B5046A24F0100458
:1038300004628469056A24F4407444EA022222F492
:1038400070444FF6FF7202EA03322243A02425F0AF
:10385000A00304EA011119438261016230BD90F8AE
:103860002410C90706D001684A68836A22F400322E
:103870001A434A6090F82410890706D501684A68FF
:10388000C36A22F480321A434A6090F82410490730
:1038900006D501684A68036B22F480221A434A6005
:1038A00090F82410090706D501684A68436B22F492
:1038B00000421A434A6090F82410C90606D50168F0
:1038C0008A68836B22F480521A438A6090F824102D
:1038D000890606D501688A68C36B22F400521A4330
:1038E0008A6090F82410490611D501684A68036C73
:1038F00022F480121A434A60016CB1F5801F06D190
:1039000001684A68436C22F4C0021A434A6090F886
:103910002410090606D501684A68806C22F400224A
:1039200002434A607047F8B500260446C667FDF7B3
:10393000B9F80546206800686FF07E47000708D593
:103940002B4600224FF400112046009700F0DEF8CD
:1039500060B92068006840070AD52B4600224FF462
:1039600080012046009700F0D1F808B10320F8BD8F
:1039700020206067A06784F870600020F8BD10B553
:10398000406A0021A0F85A10A0F85210FEF762FC1D
:1039900010BD01680A6822F490720A6001688A68A2
:1039A00022F001028A6020218167002101667047B0
:1039B00070B5044680682169E269084361690025A1
:1039C0001143226808431168494B194001431160B3
:1039D00020684168E26821F4405111434160A169C7
:1039E000206A084321688A6822F4306202438A60B0
:1039F00040492068884210D13F48006B10F0030016
:103A000014D0012805D0022805D003280DD10220AA
:103A10000CE004200AE0082008E03849884202D07F
:103A20003749884201D1002000E01020E2694FF4BC
:103A300000414FF6EF768A422CD1092851D2DFE8B7
:103A400000F005081F50225050502500FDF7B2FC31
:103A500001E0FDF7C7FC4100D4F8040001EB500180
:103A6000B1FBF0F080B2A0F11001B14239D84FF6AD
:103A7000F0710140C0F3420001432068C16031E0B1
:103A800020496068EAE7FDF7C5FCE4E74FF48031C0
:103A90006068E3E7092824D2DFE800F0050817236F
:103AA0001A2323231D00FDF785FC01E0FDF79AFC96
:103AB000616800EB5100B0FBF1F080B2A0F11001A1
:103AC000B1420ED82168C8600CE00F49606803E07D
:103AD000FDF7A0FCECE7606801EB5001B1FBF0F0F2
:103AE000EBE70125002020666066284670BD0000D7
:103AF000F369FFEF0038014000100240004400402D
:103B0000004800400024F40000127A002DE9F0473C
:103B10009A4617460E4604464FF000094FF020081B
:103B2000089D39E0681C37D0FCF7BCFFA0EB0A0009
:103B3000A84222D80DB32068016849072CD5C06976
:103B4000C043000528D421684FF400600862206853
:103B5000016821F4D07101602068816821F00101C1
:103B60008160C4F87480C4F87880C4F87C8000BF99
:103B700084F870900320BDE8F0872068016821F484
:103B8000D07101602068816821F001018160C4F872
:103B90007480C4F87880EBE72068C06936EA0000DA
:103BA00004D00020B842BDD00020E4E70120F9E7AE
:103BB0000148FEF751BB000058010020FEE703B4A6
:103BC00001984100009850EAC12018BF04204A0D16
:103BD00018BF40F0010040F2FF72B2EB515F08BF26
:103BE00040F00200012808BF052002B07047090715
:103BF000090E002804DB00F1E02080F80014704773
:103C000000F00F0000F1E02080F8141D7047000064
:103C100070B5C1482DED020B2DED0E8B82B0119DBC
:103C200025F000449FEDBEDB9FEDBFEB84423EDB01
:103C3000A4F140511098A1F17F6108430FD0BC4816
:103C4000844202DC28D1109830B39DED100B02B0F5
:103C5000BDEC0E8B02B0BDE8704000F015BE9DEDCE
:103C6000100B53EC1D2B51EC100BFCF7A3FB9DED3F
:103C7000100B41EC180B53EC1E2B51EC100BFCF706
:103C800099FB53EC182BFCF7EEFA41EC100B02B049
:103C9000BDEC0E8B02B070BD012000F031FE02B011
:103CA000BDEC0E8B02B0BDE8704000F0F9BDA1483C
:103CB0009FEDA18B844256DA9DED100BB4F1795F34
:103CC0000ADA51EC100BFFF77AFF042808BF00F066
:103CD000F7FD9DED100BDAE753EC102B51EC100BB8
:103CE000FCF768FB41EC190B95480621B0EE490A38
:103CF000F0EE690A784400F0B3FC53EC192B51EC58
:103D0000100BFCF757FB41EC1A0B8E48B0EE490A3A
:103D1000F0EE690A0421784400F0A2FC53EC192B60
:103D200051EC100BFCF746FB53EC182BFCF79BFAFD
:103D300041EC100B51EC1A0B53EC102BFCF7ACFBC5
:103D4000CDE900019DED000B53EC102B9DED100B08
:103D500051EC100BFCF72EFB9DED101B53EC112BBF
:103D6000FCF781FAD2E09DED100B51EC100B00F046
:103D700023FE53EC182BFCF71AFB9FED730BCDE9D8
:103D8000000153EC102B9DED000B51EC100BFCF7D8
:103D900011FB41EC190B6E480621B0EE490AF0EE1A
:103DA000690A784400F05CFC53EC192B51EC100BC1
:103DB000FCF700FB41EC1B0B6648B0EE490AF0EE45
:103DC000690A0421784400F04BFC53EC192B51ECA8
:103DD000100BFCF7EFFA53EC182BFCF744FA41EC0C
:103DE0001C0B51EC190B00F08BFE41EC180B5A48E0
:103DF0009FED5BABA04222DC53EC1C2B51EC1B0B68
:103E0000FCF74AFBCDE900019DED000B51EC180BCE
:103E100053EC102BFCF7CEFA53EC182BFCF723FADB
:103E200053EC1A2BFCF7C6FA53EC1D2BFCF7BCFA2B
:103E300053EC1E2BFCF7BBFA41EC100B5FE08DED51
:103E4000008B002000909DED000B51EC180B53EC03
:103E5000102BFCF708FA9DED000B41EC1E0B53EC08
:103E6000102B51EC100BFCF7A5FA53EC192BFCF7B7
:103E70009EFA53EC1E2BFCF70FFB41EC190B53EC95
:103E80001C2B51EC1B0BFCF707FB41EC1B0B53EC01
:103E90001A2B51EC190BFCF78DFA53EC1D2BFCF788
:103EA00086FA41EC190B53EC1A2B51EC180BFCF76A
:103EB00081FA53EC1B2BFCF77DFA53EC192BFCF722
:103EC00073FA9DED000B41EC180B53EC1A2B51ECDF
:103ED000100BFCF76FFA9FED249B53EC192BFCF7AA
:103EE00066FA41EC100B51EC180B53EC102BFCF75D
:103EF0005BFA53EC192BFCF75AFA41EC100B002D2E
:103F00003FF7C5AE51EC100B81F0004141EC100BB6
:103F1000BDE60000000000000000F03F00000000CF
:103F2000075C143326A6913C182D4454FB21F93F1D
:103F30000000F07F0000E03F000000000000F03FC4
:103F4000100F00001E0F0000000000000000E03F06
:103F5000620E0000700E00003333EF3F00000000DF
:103F60000000000000000040182D4454FB21E93FF0
:103F700010B52F499FED2C1B2DED020B84B0059839
:103F800020F000408842DCBF00209DED040B32DDB4
:103F90002849884209D1049840B94FF0010000F047
:103FA000AFFC00F07DFC06B010BD05DB9DED040B01
:103FB00000F06AFC06B010BD68469DED040B00F0F1
:103FC0007BF810F0030011D0012818D09DED021BE2
:103FD0009DED000B02281AD000F08AFA51EC100B6C
:103FE00081F0004106B041EC100B10BD9DED021BAD
:103FF0009DED000B012000F0AFFB06B010BD9DED64
:10400000021B9DED000B00F073FA06B010BD0120FD
:1040100000F0A2FB51EC100B81F0004106B041EC26
:10402000100B10BD000000000000000000000000A8
:10403000FB21E93F0000F07F00B52DED048BB0EED1
:10404000409AF0EE609A83B051EC190BFCF7A7FB95
:1040500041EC180B18EE100A18EE901A8DED008B3B
:10406000002818BF0120084320F00040C0F17F6005
:1040700000F1E040C00F14D019EE101A19EE900AAA
:104080008DED009B002918BF0121084320F000405E
:10409000C0F17F6000F1E040C00F04BF012000F0DC
:1040A0002FFCB0EE480A03B0F0EE680ABDEC048BBA
:1040B00000BD0000000000002DE9F14F04462DED89
:1040C000020B2DED088B8AB09FEDE70B80ED020B04
:1040D000139EE74826F0004585420ADC9DED120B51
:1040E000002084ED000B0AB0BDEC088B03B0BDE8E6
:1040F000F08FE0489FEDE0AB9FEDE1BBA84247DDCC
:10410000E14F9FEDE39B9FEDE48B9DED120B53EC94
:104110001A2B51EC100B002E1CDDFCF745F941EC7D
:10412000100BBD4208D053EC1B2B51EC100BFCF7CD
:104130003BF9C4E900010BE053EC192B51EC100BD7
:10414000FCF732F953EC182BFCF72EF9C4E9000107
:104150000120C8E7FCF787F841EC100BBD4208D0FE
:1041600053EC1B2B51EC100BFCF77DF8C4E900015C
:104170000BE053EC192B51EC100BFCF774F853ECDB
:10418000182BFCF770F8C4E900014FF0FF30AAE7E4
:10419000C348A84279DB9DED120B51EC100B00F0E7
:1041A0000BFC41EC180B9FEDC00B53EC102BFCF7F4
:1041B00001F99FEDBF1B53EC112BFCF754F8FCF7F2
:1041C000EBF90746FCF7D7F941EC190B53EC1A2B26
:1041D000FCF7F0F853EC182BFCF7E9F841EC180B5E
:1041E00053EC1B2B51EC190BFCF7E4F8DFF8C8A2D9
:1041F00041EC100B4FEA15580125FA4453EC102BF3
:1042000051EC180BFCF7D0F8032DC4E900013DD0A8
:10421000C1F30A5005EB4511A8EB000011398142AA
:1042200034DA0AEB051BB0EE48AA9BED000BF0EE6A
:1042300068AA53EC102B51EC190BFCF7BBF841ECBE
:104240001B0B51EC1A0B53EC1B2BFCF7ADF841EC9C
:10425000180B51EC1A0B53EC182BFCF7A5F853EC88
:104260001B2BFCF7A1F89BED020B41EC1A0B53EC56
:10427000102B51EC190BFCF79DF853EC1A2BFCF7A3
:1042800093F841EC100B6D1CB8E70EE0002EA8BFB0
:104290003846BFF628AF94ED000B51EC100B81F0BF
:1042A0000041C4E9000178421DE7C6F3130040F461
:1042B000801EC6F30A50A0F2F530471100F01F052A
:1042C000C5F12000DDF848B0089000200690079066
:1042D0000520EC467949002D07EB0002794408BF20
:1042E00051F8221009D051F8223001EB8201AB4085
:1042F0004A68089922FA01F11943A1FB0E26A1FB95
:104300000B131A449A4234BF0123002303EB06081F
:104310000CEB8003D3E901A60E448E4234BF012189
:10432000002192448A4411B1924502D903E092459A
:1043300001D2012100E00021C3E901A641444CF86B
:104340002010011EA0F10100C4DC029800F1005011
:10435000850F0298DDE903678000DDF81480FCF723
:104360000AF941EC1A0B3046FCF77CFA9FED541B1E
:1043700053EC112BFCF71EF841EC1B0B3846FCF7F5
:1043800071FA9FED511B53EC112BFCF713F841EC24
:10439000180B4046FCF766FA9FED4D1B53EC112BB2
:1043A000FCF708F841EC190B51EC180B53EC192BE6
:1043B000FBF759FF53EC1B2BFBF755FF53EC1A2B64
:1043C000FBF751FFCDE90801002008909DED080B97
:1043D00053EC1A2B51EC100BFBF7E6FF53EC1B2BA5
:1043E000FBF7E2FF53EC182BFBF7DEFF53EC192B26
:1043F000FBF7DDFF9FED381B53EC112BFBF7DAFFCA
:104400009FED370B41EC180B53EC102B9DED080B77
:1044100051EC100BFBF7CEFF53EC182BFBF723FFEF
:104420009FED310B41EC180B53EC102B9DED080B5D
:1044300051EC100BFBF7BEFF53EC182BFBF713FFEF
:1044400041EC100B139810F0004F06D06D4251EC68
:10445000100B81F0004141EC100B284684ED000B5D
:1044600041E6000000000000000000000000000025
:10447000FB21E93F7CD9024000004054FB21F93F79
:104480003163621A61B4D03DFB21F93F00000000A6
:104490000000601A61B4D03D7370032E8A19A33BEB
:1044A000FB2139410000000083C8C96D305FE43F43
:1044B000000000000000E03F8A0A0000D809000068
:1044C000000000000000103E000000000000103C52
:1044D000000000000000103A182D4454FB21F93D63
:1044E0003326A611460B113C00000054FB21F93D78
:1044F00010B52DED040B2DED088B82B0B0EE419A76
:10450000F0EE619A0B9820F000449FED4BABB4F1B4
:10451000795F11DA9DED0A0B51EC100BFCF73CF8BA
:10452000002801BFB0EE4A0AF0EE6A0A02B0BDEC04
:10453000088B04BF04B010BD9DED0A0B53EC102B8B
:1045400051EC100BFBF736FF41EC180B3C480621F1
:10455000B0EE480AF0EE680A784400F081F853ECB7
:10456000182B51EC100BFBF725FF9DED0A0B41ECCE
:104570001B0B53EC192B51EC100BFBF71BFF41EC01
:10458000190B53EC1B2B51EC180BFBF713FF53ECDF
:10459000192BFBF709FF9FED2C0B41EC190B53EC8A
:1045A000102B51EC180BFBF705FF41EC100B2848C2
:1045B000844210DA53EC192B51EC100BFBF7F4FE8C
:1045C00053EC1A2BFBF7F3FE41EC100B02B0BDECE1
:1045D000088B04B010BD1F48A042BCBF9FED1E1B3E
:1045E0008DED001B06DBA4F500100190002000906B
:1045F0009DED001B51EC100B53EC112BFBF7D4FE7F
:104600009DED000B41EC180B53EC102B51EC1A0BE9
:10461000FBF7CAFE41EC1A0B53EC192B51EC180BAB
:10462000FBF7C2FE53EC1A2BFBF7C1FE41EC100B5B
:10463000CCE7000000000000000000000000F03F98
:10464000FC06000000000000000000000000E03F49
:104650003333D33F0000E93F000000000000D23FA9
:1046600070B504462DED028B4D1E00EBC500B0EE7B
:10467000408AF0EE608A90ED000B35F0060017D00E
:1046800053EC182B51EC100BFBF794FE41EC100B84
:104690006D1E04EBC50090ED001B51EC100B53ECAC
:1046A000112BFBF7E0FD41EC100B35F00600E7D1D4
:1046B000022D36D0042D1CD0062D1CBFBDEC028B64
:1046C00070BD53EC182B51EC100BFBF773FE94EDFF
:1046D0000A1B53EC112BFBF7C6FD53EC182BFBF711
:1046E00069FE94ED081B53EC112BFBF7BCFD41EC6C
:1046F000100B53EC182B51EC100BFBF75BFE94EDF9
:10470000061B53EC112BFBF7AEFD53EC182BFBF7FC
:1047100051FE94ED040B53EC102BFBF7A4FD41EC80
:10472000100B53EC182B51EC100BFBF743FE94EDE0
:10473000021B53EC112BFBF796FD53EC182BFBF7E8
:1047400039FE94ED001B53EC112BFBF78CFDBDECF7
:10475000028B41EC100B70BD31B504462DED040BFE
:104760002DED0A8BB0EE41BAF0EE61BA0B989DEDDB
:104770000A0B20F00040B0F1795F0DDA51EC100B1C
:10478000FFF71DFA042808BF00F09AF89DED0A0B08
:10479000BDEC0A8B05B030BD53EC102B51EC100B67
:1047A000FBF708FE41EC180B9DED0A0B53EC182BA0
:1047B00051EC100BFBF7FEFD41EC190B2C48B0EE51
:1047C000480AF0EE680A05217844FFF749FF9FED9B
:1047D0002ACBB0EE40AAF0EE60AA9CB353EC1C2B9F
:1047E00051EC190BFBF7E6FD41EC1C0B53EC1A2BBB
:1047F00051EC190BFBF7DEFD9FED210B41EC190B82
:1048000053EC102B51EC1B0BFBF7D4FD53EC192B85
:10481000FBF7CAFD53EC182BFBF7CCFD53EC1B2B1D
:10482000FBF7C2FD53EC1C2BFBF7BEFD9DED0A1BF5
:1048300053EC112BFBF7BBFDBDEC0A8B05B041EC33
:10484000100B30BDFFE753EC1A2B51EC180BFBF7A4
:10485000B1FD53EC1C2BFBF706FD53EC192BFBF7BA
:10486000A9FD9DED0A1B53EC112BFBF7FCFCE3E7C4
:104870008405000000000000495555555555C5BF39
:10488000000000000000E03F10B553EC102B51EC8D
:10489000100BFBF7E8FC41EC100B10BD0000000012
:1048A0009FED050B10B553EC102B51EC100BFBF7E3
:1048B000F3FD41EC100B10BD0000000000000000F3
:1048C0009FED050B10B553EC102B51EC100BFBF7C3
:1048D00071FD41EC100B10BD000000000000001045
:1048E00002E008C8121F08C1002AFAD170477047B9
:1048F000002001E001C1121F002AFBD17047000017
:1049000001490860704700002400002030B50446CB
:104910000120002122780B46D50700D0491C5208FF
:104920005B1C082BF8DB63780022DC0700D0491CF5
:104930005B08521C082AF8DBC90700D1002030BDF3
:1049400010B51B4CF02222700022627030B1012899
:1049500006D0022821D0032804D120E0F22000E074
:10496000F6202070480060701148FFF7CFFF18B1A3
:10497000607840F0010060704FF0904400221021F8
:104980002046FCF789F84FF0FF3302220849094816
:10499000FDF7E2F828B1012010BDFA20E1E7FE2082
:1049A000DFE7012210212046FCF776F8002010BD39
:1049B000050000207400002082B0CDE9000121F044
:1049C000004001909DED000B02B051EC100B7047C0
:1049D000FCF70AFBFEF765FEFEF788FCFEF7C4FC59
:1049E000FEF7E8FCFEF70CFDFEF74CFDFEF77EFD42
:1049F000012000F0BDF800211248FEF783F9124DA6
:104A0000012408B12C601AE000210E48FEF7ECF8F2
:104A10000028F7D1012210214FF09040FCF73CF81C
:104A200000202860022000F0A3F800210548FEF7CE
:104A30001FFA0028F9D005202C6000F007F8FBF7DA
:104A400021FF0000D8010020100000202DE9F041D6
:104A500029490A2305288A68A2F57A7248D2DFE834
:104A600000F003070D12160092FBF3F1002502E09F
:104A700092FBF3F500210024002610E092FBF3F4F2
:104A800000210D46F8E700210D460C4605E092FB9B
:104A9000F3F192FBF3F592FBF3F492FBF3F60020B3
:104AA000FFF74EFFDFF85480042718B1C8F80070F4
:104AB000FBF7E8FE29460120FFF742FF18B1C8F8CE
:104AC0000070FBF7DFFE21460220FFF739FF18B127
:104AD000C8F80070FBF7D6FE31460320FFF730FF21
:104AE000002807D0C8F80070BDE8F041FBF7CABE47
:104AF0000021BBE7BDE8F081C802002010000020C3
:104B000000B52DED048B83B041EC190BFBF747FE8C
:104B100041EC180B18EE100A18EE901A8DED008B70
:104B2000002818BF0120084320F00040C0F17F603A
:104B300000F1E040C00F14D019EE101A19EE900ADF
:104B40008DED009B002918BF0121084320F0004093
:104B5000C0F17F6000F1E040C00F04BF0120FFF70B
:104B6000CFFE51EC180B03B0BDEC048B00BD000070
:104B700010B5164CA0B1012819D0022824D1012269
:104B800008212046FBF788FF002210212046FBF772
:104B900083FF002220212046BDE81040FBF77CBFA8
:104BA00020212046FBF772FF0022102106E001229F
:104BB00010212046FBF770FF002220212046FBF742
:104BC0006BFF00220821E6E710BD0000000400484A
:104BD00002030405060708090A0B0C0D0E0F10103E
:104BE0000102030405060708090A0B0C0D0E0F103D
:104BF000000000000000000001020304060708098D
:104C00000000000001020304555555555555C53F98
:104C10007D6FEB0312D6D4BF5544880E55C1C93FF2
:104C20003B8F68B52882A4BF88B20175E0EF493F89
:104C300009F7FD0DE13D023F4B2D8A1C273A03C0C9
:104C4000C88A599CE52A004059018D1B6C06E6BFB5
:104C500082922EB1C5B8B33F4C5555555555A53F19
:104C60007751C1166CC156BF9015CB19A001FA3E01
:104C7000AD529C804F7E92BEC4B1B4BD9EEE213E2B
:104C8000D43888BEE9FAA8BD00004054FB21F93FA2
:104C90003163621A61B4D03D0000601A61B4D03D46
:104CA0007370032E8A19A33B0000002E8A19A33BC0
:104CB000C14920259A837B390000000000000000D4
:104CC0006E83F9A22915444ED15727FCC0DD34F577
:104CD000999562DB4190433CAB6351FE61C5BBDEFD
:104CE0003A6E24B7E0D24D42EA2E49061C92D10911
:104CF0001CEB1DFE3EA729B1F53582E88444BB2E8E
:104D000026709CE9417E5FB439D69139F4395383DA
:104D10008B5F849C3B28F9BDFF97F81F0F9805DE39
:104D20008B112FEF1F6D0A5ACF7E366DB709CB2737
:104D3000663F464F2DEA5F9EC7BA27757BF1E5EBCC
:104D4000F739073DEA92528AB15FFB6B085D8D1F10
:104D5000A6F810111111813FD561C119A0012ABF18
:104D60007DFEB157E31DC73EEB9C2B8AE6E55ABE9C
:104D70007CD5CF5A3AD9E53D984D00080000002077
:104D800028000000E0480008C04D0008280000206E
:104D9000B0060000F04800080100000000F000002C
:104DA0000000000000000000020000000100000000
:104DB000100000000000000000127A000000000057
:040000050800018965
:00000001FF
