:020000040800F2
:10000000A80500209D0100085B1A00082B150008B8
:10001000591A0008A9020008811C0008000000000D
:10002000000000000000000000000000D11B0008DC
:10003000AB020008000000005D1A0008D31B000896
:10004000B7010008B7010008B7010008B7010008B0
:10005000B7010008B7010008B7010008B7010008A0
:10006000B7010008B7010008B7010008B701000890
:10007000B7010008B7010008B7010008B701000880
:10008000B7010008B7010008B7010008B701000870
:10009000B7010008B7010008B7010008B701000860
:1000A000B7010008B7010008B7010008691C000883
:1000B000751C0008B7010008000000003915000891
:1000C0002D1500080000000000000000B701000826
:1000D00000000000B7010008B7010008B7010008E0
:1000E000B7010008B7010008000000000000000090
:1000F0000000000000000000000000000000000000
:1001000000000000000000000000000000000000EF
:100110000000000000000000B7010008B70100085F
:1001200000000000000000000000000000000000CF
:1001300000000000000000000000000000000000BF
:10014000B7010008B701000800000000000000002F
:10015000000000000000000000000000000000009F
:10016000000000000000000000000000000000008F
:10017000000000000000000000000000000000007F
:1001800000000000B7010008DFF80CD000F07AF89A
:10019000004800476D1D0008A8050020064880475C
:1001A00006480047FEE7FEE7FEE7FEE7FEE7FEE75C
:1001B000FEE7FEE7FEE7FEE74D1C000889010008A8
:1001C0002DE9F05F0546002092469B46884606468C
:1001D000814640241BE0284641464746224600F01F
:1001E00020F853465A46C01A914110D3114618467A
:1001F000224600F038F82D1A67EB01084F462246D8
:100200000120002100F02FF817EB00094E41201EBD
:10021000A4F10104DFDC484631462A464346BDE8E6
:10022000F09F202A04DB203A21FA02F000217047D7
:1002300021FA02F3D040C2F120029140084319464E
:100240007047D2B201E000F8012B491EFBD2704783
:100250000022F6E710B513460A4604461946FFF792
:10026000F0FF204610BD202A04DB203A00FA02F1FC
:10027000002070479140C2F1200320FA03F3194394
:1002800090407047064C074D06E0E06840F00103DF
:1002900094E8070098471034AC42F6D3FFF778FF94
:1002A000181E0008381E0008FEE7704710B590F8C9
:1002B00021100024022903D004218163012418E0C5
:1002C00001680A6822F00E020A6001680A6822F0DA
:1002D00001020A6090F84020C36B012101FA02F28A
:1002E0005A6080F82110002180F82010416B01B184
:1002F0008847204610BD000070B5044600F0D4F8D1
:100300000546601C02D004480078044400F0CCF894
:10031000401BA042FAD370BD040000202DE9F84F25
:10032000DFF860B100234FF0010C4FF0030A4FF0EB
:100330000F090BF1040E9DE00CFA03F63440220085
:100340007ED04C68022C01D0122C0ED1DC0800EBC0
:100350008408D8F820405D07EF0E09FA07F5AC4392
:100360000D69BD402543C8F8205007685D0091F82D
:1003700004800AFA05F408F00308A74308FA05F810
:1003800048EA0708C0F800804F68012F05D0022F07
:1003900003D0112F01D0122F11D18768D1F80C8012
:1003A000A74308FA05F848EA0708C0F80880476834
:1003B000B7430E79C6F300169E403E434660C668BA
:1003C000A6438C68AC403443C4604C68E40050D50C
:1003D0002D4CA56945F00105A561A46923F003052D
:1003E00004F001040094294C2E19B4689D072F0FC6
:1003F00009FA07F5AC43B0F1904F04D0244DA84260
:1004000003D101250CE000250AE0224DA84201D1CC
:10041000022505E0204DA84201D1032500E0052575
:10042000BD402543B560DBF800405D464E6894430F
:10043000F60300D514432C607546DEF8004000E05A
:1004400017E04E689443B60300D514432C600D4D5D
:1004500008352C684E689443F60200D514432C608E
:10046000084D0C352C684E689443B60200D51443F1
:100470002C605B1C0A681446DA407FF45DAFBDE86F
:10048000F88F00000004014000100240000001400D
:100490000004004800080048000C00480AB18161CF
:1004A0007047816270470000014880687047000013
:1004B000040000207047704730B403689A691968D7
:1004C000D243D40509D4CC43240606D4446C44F06A
:1004D000010444644FF48074DC6153050AD4CB43B7
:1004E0001B0607D4436C43F00803436404684FF4CD
:1004F0008063E36192050AD4C943090607D4416CBD
:1005000041F00201416402684FF40071D161416C15
:1005100011F00B0F02D030BC01F0A8B830BC70470E
:10052000026891691268436B002B00D0184770472E
:1005300070477047704770470248816802781144DD
:100540008160704704000020074810B5016841F041
:1005500010010160032000F05FF8002000F006F8B1
:1005600000F024F8002010BD0020024070B50D4DB1
:1005700004464FF47A712878B1FBF0F00A49096813
:10058000B1FBF0F000F019FE48B9102C07D20022A0
:100590002146501E00F020F800206C6070BD012044
:1005A00070BD00000400002010000020094808B5BC
:1005B000816941F001018161816901F001010091CE
:1005C000C16941F08051C161C06900F08050009064
:1005D00008BD000000100240F0B40E4B1B680C4632
:1005E000C3F30223C3F10705042D00D90425191D07
:1005F000072901D2002300E0DB1E012606FA05F1DF
:10060000491E214099409E40761E16403143F0BC61
:1006100001F037BB0CED00E0064900F00702086866
:100620004FF6FF03184040EA0220034A10430860D7
:10063000704700000CED00E00000FA052DE9F84FCE
:1006400004460068574DC0036FD5E8690026C00016
:1006500008D4E86940F08050E861E869012600F0BC
:100660008050009050480168C90512D40168804646
:1006700041F480710160FFF717FF074605E000BFF6
:10068000FFF712FFC01B642835D8D8F80000C0055A
:10069000F6D5286A10F4407053D0A18801F4407157
:1006A00081424ED0286A4FF4803191FAA1F2B2FA19
:1006B00082F297003D4A4FF00108174420F4407041
:1006C000C7F8008491FAA1F1B1FA81F102EB81013E
:1006D0000023C1F800342862C00732D0FFF7E4FEDF
:1006E000074641F2883A4FF0020907E0FFF7DCFEC7
:1006F000C11B514502D90320BDE8F88F99FAA9F131
:10070000B1FA81F141F040014846B8EB511F01D1E7
:1007100029680CE090FAA0F1B1FA81F141F04001B2
:10072000B0EB511F02D1296A01E015E0696A99FA1C
:10073000A9F0B0FA80F000F01F0008FA00F21142B0
:10074000D4D0286A616820F44070084328621EB142
:10075000E86920F08050E8612078C00705D0286B58
:10076000A16820F00300084328632078800605D59F
:10077000286BE16820F01000084328632078000609
:1007800005D5E86A216920F4F8700843E8622088FA
:10079000C00405D5286B616920F480700843286384
:1007A0000020A9E700100240007000400000424213
:1007B0002DE9F0470F46050069D04A4E306800F039
:1007C0000700B84209D2306820F007003843306093
:1007D000306800F00700B84259D12878424C8007B1
:1007E00005D56068A96820F0F000084360602878AB
:1007F000C0073DD06968012001290DD0022923D00E
:100800005FF0020393FAA3F2B2FA82F242F02002FE
:10081000520904D0226803E04FF40033F2E7626A21
:1008200093FAA3F3B3FA83F303F01F039840024251
:100830002DD0606820F0030008436060FFF734FEAD
:10084000804641F288390CE04FF00073DAE700BFD0
:10085000FFF72AFEA0EB0801494502D90320BDE8B5
:10086000F0876068696800F00C00B0EB810FEFD191
:10087000306800F00700B8420BD9306820F007005C
:1008800038433060306800F00700B84201D00120E2
:10089000E5E72878400705D56068E96820F4E0605E
:1008A000084360602878000706D56068296920F44D
:1008B000605040EAC100606000F01EF86168F022FC
:1008C00092FAA2F201F0F001B2FA82F2D140074AA4
:1008D000515CC8400649086006480068FFF746FEBC
:1008E0000020BCE70020024000100240081E000863
:1008F0001000002008000020164A10B55168164864
:1009000001F00C03042B20D0082B1ED14FF47014DF
:1009100094FAA4F401F47013B4FA84F4E3400F4C95
:10092000D26AE45C0F2393FAA3F302F00F02B3FA46
:1009300083F3DA40094B1033C9039A5C06D50023D0
:100940001946FFF73DFCA0FB040110BD0448A4FBC1
:10095000000110BD0010024000127A00E81D0008DE
:1009600000093D002DE9F84F050071D02878FC4EB4
:10097000C0074FF0010425D070686704C0F3810000
:10098000012807D07068C0F3810002281BD170686D
:10099000C00318D597FAA7F0B0FA80F040F0200015
:1009A000400901D0306800E0706A97FAA7F1B1FA07
:1009B00081F101F01F0104FA01F1084265D0686875
:1009C0000028D2D061E06868B0F5803F0BD010B14C
:1009D000B0F5A02F17D0306820F480303060306838
:1009E00020F4802002E0306840F480303060F06A0B
:1009F000A96820F00F000843F062686820B3FFF791
:100A000053FD80460AE0306840F480203060EAE719
:100A1000FFF74AFDA0EB0800642871D897FAA7F009
:100A2000B0FA80F040F02000400901D0306800E0CA
:100A3000706A97FAA7F1B1FA81F101F01F0104FA87
:100A400001F10842E4D020E0FFF72EFD804607E0E8
:100A5000C2E000BFFFF728FDA0EB08006428DCD847
:100A600097FAA7F0B0FA80F040F02000400901D0DA
:100A7000306800E0706A97FAA7F1B1FA81F101F0ED
:100A80001F0104FA01F10842E4D12878DFF8D4828A
:100A900080074FF0000A4FF0020730D570684FF022
:100AA000F80B10F00C0F07D07068C0F3810002281B
:100AB00027D17068C00324D497FAA7F0B0FA80F069
:100AC00040F02000400901D0306800E0706A97FAD9
:100AD000A7F1B1FA81F101F01F0104FA01F1084216
:100AE00002D02869012877D130689BFAABF220F058
:100AF000F8016869B2FA82F29040014331605AE02D
:100B000064E1286988B394FAA4F0B0FA80F048F858
:100B10002040FFF7C9FC814606E000BFFFF7C4FC98
:100B2000A0EB090002289AD897FAA7F0B0FA80F053
:100B300040F02000400901D0306800E0706A97FA68
:100B4000A7F1B1FA81F101F01F0104FA01F10842A5
:100B5000E4D030689BFAABF26969B2FA82F220F015
:100B6000F80091400843306025E0FFE794FAA4F0D4
:100B7000B0FA80F048F820A0FFF796FC814605E027
:100B8000FFF792FCA0EB09000228CCD897FAA7F057
:100B9000B0FA80F040F02000400901D0306800E059
:100BA000706A97FAA7F1B1FA81F101F01F0104FA16
:100BB00001F10842E4D1287800076CD5A869A8B3F0
:100BC00094FAA4F0B0FA80F008EB8000C0F88044FA
:100BD000FFF76AFC814607E0A4E100BFFFF764FC71
:100BE000A0EB090002289ED897FAA7F0B0FA80F08F
:100BF00040F06000B4EB501F01D130680BE097FA71
:100C0000A7F0B0FA80F040F06000B7EB501F01D1C0
:100C1000306A00E0706A97FAA7F1B1FA81F101F049
:100C20001F0104FA01F21042D8D034E0FFE794FA31
:100C3000A4F1B1FA81F108EB8101C1F880A4FFF7BA
:100C400033FC814606E000BFFFF72EFCA0EB090055
:100C500002289AD897FAA7F0B0FA80F040F0600026
:100C6000B4EB501F01D130680BE097FAA7F0B0FA4F
:100C700080F040F06000B7EB501F01D1306A00E017
:100C8000706A97FAA7F1B1FA81F101F01F0104FA35
:100C900001F21042D8D12878400768D5F0694FF0AA
:100CA0000009C00009D4F06940F08050F061F0699B
:100CB0004FF0010900F0805000902B480168C905F1
:100CC00012D4016841F480710160FFF7EDFB8346A7
:100CD00006E000BFFFF7E8FBA0EB0B00642875D827
:100CE00021480068C005F5D5E86801280AD008B198
:100CF000052811D0306A20F001003062306A20F0FF
:100D0000040002E0306A40F001003062E86868B335
:100D1000FFF7CAFB83460DE0306A40F00400306202
:100D2000F0E700BFFFF7C0FBA0EB0B0141F28830FA
:100D300081424BD897FAA7F0B0FA80F040F040001B
:100D4000B4EB501F01D1306813E097FAA7F0B0FA66
:100D500080F040F04000B7EB501F09D1306A08E046
:100D60000010024000004242007000400CE040E0F1
:100D7000706A97FAA7F1B1FA81F101F01F0104FA44
:100D800001F21042CED02DE0FFF78EFB834607E044
:100D9000FFF78AFBA0EB0B0141F28830814215D8A6
:100DA00097FAA7F0B0FA80F040F04000B4EB501F83
:100DB00001D130680CE097FAA7F0B0FA80F040F06B
:100DC0004000B7EB501F02D1306A01E083E0706A47
:100DD00097FAA7F1B1FA81F101F01F0104FA01F2CB
:100DE0001042D5D1B9F1000F03D0F06920F0805046
:100DF000F061E86980B37168C1F38101022977D09D
:100E00004FF080714F000228504609D091FAA1F1AD
:100E1000B1FA81F148F82100FFF746FB05465DE095
:100E2000894691FAA1F1B1FA81F1C24648F8210050
:100E3000FFF73AFB804605E0FFF736FBA0EB080022
:100E4000022848D897FAA7F0B0FA80F040F02000C6
:100E5000400902D0306801E066E0706A97FAA7F1B5
:100E6000B1FA81F101F01F0104FA01F10842E3D166
:100E7000D5E908100843716821F4741108437060C3
:100E800099FAA9F0B0FA80F04AF82040FFF70CFB7D
:100E9000054604E0FFF708FB401B02281BD897FA21
:100EA000A7F0B0FA80F040F02000400901D030688F
:100EB00000E0706A97FAA7F1B1FA81F101F01F0121
:100EC00004FA01F10842E5D02EE000BFFFF7ECFA8A
:100ED000401B022802D90320BDE8F88F97FAA7F03B
:100EE000B0FA80F040F02000400902D0306801E004
:100EF0000BE0706A97FAA7F1B1FA81F101F01F01D6
:100F000004FA01F10842E1D10EE00128E4D0706852
:100F10002A6A00F48031914204D1696A00F47010A9
:100F2000884201D00120D7E70020D5E72DE9F04124
:100F3000040005D00025A56294F85D0018B107E013
:100F40000120BDE8F08184F85C50204600F044F8B0
:100F5000022384F85D302068016821F040010160BF
:100F6000E0684FF4E066B04201D9002101E04FF49F
:100F70008051B0F5706F02D0B04200D0A562276BEF
:100F8000012227B9B04201D9236300E02263D4E9EA
:100F900001031843D4E9043633431843238B03F485
:100FA00000731843E3691843236A1843A36A18437C
:100FB00023681860636B606AA66918430427E368B6
:100FC00007EA1646334318430843216848602566FC
:100FD00084F85D200020B4E710B586B004461421E3
:100FE0006846FFF735F91349206888421FD1124837
:100FF000816941F480518161816901F480510591D9
:10100000416941F4003141614069694600F40030B2
:101010000590A02000900220019000200290032063
:101020000390052004904FF09040FFF777F906B049
:1010300010BD000000300140001002402DE9F84FC3
:10104000044690F85C0000271D4616468946012894
:101050000DD04FF0010B84F85CB0FFF725FA804605
:1010600094F85D00BA46012804D002279FE00220D0
:10107000BDE8F88FB9F1000F6FD0002E6DD00320BE
:1010800084F85D00C4F860A0C4F83890A687E687AD
:10109000C4F840A0A4F844A0A4F846A0C4F850A006
:1010A000C4F84CA0A068B0F5004F04D120680168D6
:1010B00041F48041016020680168490603D4016859
:1010C00041F040010160E068B0F5E06F606823D94D
:1010D00008B1012E1CD1A06B21680088C86006E011
:1010E00020688168890709D5A16B0988C160A06B58
:1010F000801CA063E08F401EE08709E0FFF7D4F971
:10110000A0EB0800A84202D3681C01D046E0ADB3B2
:10111000E08F0028E4D136E008B1012E30D1E08F15
:101120000128A06B03D921680088C8600FE02168FE
:101130000078087314E0E08722E02068816889075E
:1011400014D5E18F0129A16B08D90988C160A06B72
:10115000801CA063E08F801EEDE727E00978017313
:10116000A06B401CA063E08F401EE4E7FFF79CF9F2
:10117000A0EB0800A84202D3681C01D00EE06DB1BC
:10118000E08F0028D9D142462946204600F067FC6E
:1011900008B120202066A06810B105E0032706E012
:1011A0002068C16880680090206E00B1012784F833
:1011B0005DB084F85CA038465AE710B5401EB0F127
:1011C000807F01D3012010BD4FF0E02460610F212A
:1011D000601700F056FD0020A0610720206100206C
:1011E00010BD7047704770472DE9F0415F4B604973
:1011F0000268002501264FF6FF7701F148049A4264
:1012000076D1027F012A1AD0022A33D0042A4CD088
:10121000082A12D18846C96B00294FF00C015FD013
:1012200000F06DF9C8F82400D8F80C20801AE060AE
:1012300001D53844E060C8F83C50BDE8F0818846EC
:10124000096B00294FF000010DD000F058F9C8F8E3
:101250001800D8F80020801A206001D5384420609A
:10126000C8F83050E9E700F04AF9C8F83060C8F82B
:101270000000E2E78846496B00294FF004010DD0D9
:1012800000F03DF9C8F81C00D8F80420801A60600E
:1012900001D538446060C8F83450CEE700F02FF92B
:1012A000C8F83460C8F80400C7E78846896B00298D
:1012B0004FF008010DD000F022F9C8F82000D8F84E
:1012C0000820801AA06001D53844A060C8F83850C2
:1012D000B3E700F014F9C8F83860C8F80800ACE7C4
:1012E00000F00DF9C8F83C60C8F80C00A5E7FFE76E
:1012F000B2F1804FA1D1027F012A15D0022A9CD1E0
:101300008846496C00294FF0040128D000F0F7F816
:10131000C8F82C00D8F81420801A606101D5384430
:101320006061C8F8445088E78846096C00294FF08E
:1013300000010DD000F0E3F8C8F82800D8F810201C
:10134000801A206101D538442061C8F8405074E704
:1013500000F0D5F8C8F84060C8F810006DE700F05C
:10136000CEF8C8F84460C8F8140066E7002C0140C5
:10137000C400002070B50446006801694FF0000504
:10138000C943890715D4C168C943890711D4E91E27
:10139000016101202077206880698007204602D003
:1013A000FFF722FF04E000F0A7F8204600F0A5F8C0
:1013B000257720680169C943490717D4C168C94323
:1013C000490713D46FF004010161022020772068DF
:1013D000806910F4407F204602D0FFF705FF04E04B
:1013E00000F08AF8204600F088F825772068016927
:1013F000C943090716D4C168C943090712D46FF05D
:1014000008010161042020772068C0698007204618
:1014100002D0FFF7E9FE04E000F06EF8204600F08D
:101420006CF8257720680169C943C90617D4C168DB
:10143000C943C90613D46FF0100101610820207759
:101440002068C06910F4407F204602D0FFF7CCFE30
:1014500004E000F051F8204600F04FF825772068AE
:101460000169C943C90708D1C168C943C90704D183
:10147000891E0161204600F041F820680169C943D6
:10148000090609D4C168C943090605D46FF0800173
:1014900001612046FFF7A6FE20680169C943C9051E
:1014A00009D4C168C943090605D46FF4807101618C
:1014B0002046FFF796FE20680169C943490609D412
:1014C000C168C943490605D46FF040010161204657
:1014D00000F02AF820680169C94389060BD4C16865
:1014E000C943890607D46FF0200101612046BDE899
:1014F0007040FFF778BE70BD704770477047024676
:10150000002041B1042909D008290AD00C2901D1B1
:101510001068006C70471068406B70471068806BF3
:1015200070471068C06B70477047FEE70148FEF7D0
:10153000C3BF0000140000200148FEF7F1BF000007
:101540001400002010B5406A0021826B5163C26B09
:10155000516390F84110602902D0FEF7E9FF10BDF9
:10156000202180F84110FEF7A5FF10BD10B5002224
:10157000CC074FF0280306D090F84140422233EACE
:10158000040400D0F2228C0707D590F8414042F0C5
:101590004402A34301D042F0B0024B0701D542F010
:1015A000B80211238B4301D142F0900212238B43E6
:1015B00001D142F06002006801689143016010BDF2
:1015C00001688A69D243920701D400228A620068C6
:1015D0008169C943C90703D0816941F00101816173
:1015E00070472DE9F041044690F8410028218143DD
:1015F00020684FF000054FF0080304D0C36184F861
:101600004050BDE8F0818169C1F300478169FE2245
:1016100002EA11468168C1F30902C168D4F80CC01E
:1016200001F0FE01BCF1020F17D14FF0060C06F0DD
:1016300006060CEAD21C66450ED1A16C491CA164B9
:10164000A16C0229DDD1A564C36184F840503946FC
:101650002046FEF730FFD4E70E4604212046FFF770
:1016600085FF84F840503246F1E7000070B504462B
:1016700090F84100002584F84250314AE2626585C5
:10168000626C0A4362642026282825D0292823D0AA
:101690002A2821D007212046FFF768FF94F841004F
:1016A000602801D084F84160256365632068016883
:1016B0004A04244902681AD522F480420260A06BD1
:1016C000002833D0416384F84050A06BFEF7EEFD54
:1016D00000282BD0A06B1CE003212046FFF746FF1B
:1016E000282084F84100256317486063DEE7120470
:1016F00013D5026822F400420260E06B002815D086
:10170000416384F84050E06BFEF7D0FD00280DD017
:10171000E06B416BBDE87040084794F841006028D9
:1017200005D084F840502046FEF702FF70BD84F8D3
:10173000416084F840502046FEF7BCFE70BD0000BA
:101740000000FFFF45150008F118000870B50446B9
:101750001548E06200252563202084F8410084F8C4
:101760004250C8436563400711D42068406A616AEB
:101770000870606A401C6062208D40B1401E208568
:10178000608D401E6085606C40F00400606407213D
:101790002046FFF7EBFE21681020C86184F8405016
:1017A0002046FEF7C6FE70BD0000FFFF2DE9F041A8
:1017B00004460068056820270E46C76107212046B9
:1017C000FFF7D4FE2068416841F400414160206881
:1017D0004168304A114041602046FFF7F1FEE8437E
:1017E000410401D4A06B02E0000404D4E06B10B10A
:1017F000006840686085F04340070FD4206826F0F9
:101800000406406A616A0870606A401C6062208D4C
:1018100020B1401E2085608D401E6085608D18B10E
:10182000606C40F0040060640025256384F8425039
:101830006563606C68B1616C2046FFF717FF94F830
:101840004100282814D131462046BDE8F041FFF779
:101850007DBFE06A104EB0420CD0204600F01EF86A
:10186000E66284F8417084F840502046FEF761FE3D
:10187000BDE8F08194F8410084F84170222884F892
:101880004050204602D0FEF756FEF1E7FEF752FE2A
:10189000EEE7000000E800FE0000FFFF70B5002545
:1018A000044680F8425090F841102820292911D090
:1018B00094F841102A290CD184F841002220206399
:1018C00002212046FFF752FE84F840502046FEF7E2
:1018D00031FE70BD84F841002120206301212046A3
:1018E000FFF744FE84F840502046FEF724FE70BD0A
:1018F0002DE9F041C56A044690F840008846012869
:1019000026D0012084F840006FEA0807B8066FEA85
:10191000020605D4B00603D441462046FFF746FF31
:101920003A49F8064FF0807231D4F0062FD4638D17
:10193000102083B12168C861606C40F004006064CD
:101940000DB195425ED1616C2046FFF78FFE59E0E4
:101950000220BDE8F08194F84120282A02D1B5F197
:10196000007F04D094F84120292A05D00CE041469C
:101970002046FFF7EBFE45E08D4205D02168C861A7
:101980002046FFF71DFE3AE02168C8613AE078077B
:1019900015D4700713D4608D60B12068406A626A04
:1019A0001070606A401C6062208D401E2085608D32
:1019B000401E6085608D28BB8D4220D122E0380713
:1019C00006D4300704D441462046FFF70AFE19E04A
:1019D000B80717D4B00715D4608D68B1606A216864
:1019E00000788862606A401C6062608D401E60857D
:1019F000208D401E208505E0954200D015B9204677
:101A0000FFF74CFF002084F84000A2E70000FFFF32
:101A1000104810B50E4901604FF4827141600021F9
:101A20004FF4E062C0E902120122C0E9041252023E
:101A300082613822C0E9072107224162C0E90A1207
:101A400001634163FFF772FA002800D0FEE710BD82
:101A50000030014060000020FEE770477047F8B595
:101A600015460E460B460092044600224FF4C05124
:101A700000F019F888B933460022802120460095ED
:101A800000F05CF848B9334600224FF4C0612046AC
:101A9000009500F008F8002804D0206E40F02000E7
:101AA00020660320F8BD2DE9F0471D4617460E4677
:101AB00004464FF4C068DDF820900CE0464501D1A3
:101AC00007B9007B681C06D0FEF7EEFCA0EB09000E
:101AD000A84208D23DB1206881683140B942EDD1B9
:101AE0000020BDE8F0872068416821F0E0014160F6
:101AF0006068B0F5827F0BD1A068B0F5004F02D0CE
:101B0000B0F5806F04D12068016821F040010160C8
:101B1000A06AB0F5005F09D12068016821F4005186
:101B200001602068016841F400510160012084F8DF
:101B30005D00002084F85C000320D2E72DE9F0412D
:101B40001D4617460E460446DDF8188008E0681C5E
:101B500006D0FEF7A9FCA0EB0800A8420BD255B1B5
:101B60002068806836EA000030D00020B842EED10C
:101B70000020BDE8F0812068416821F0E00141606B
:101B80006068B0F5827F0BD1A068B0F5004F02D03D
:101B9000B0F5806F04D12068016821F04001016038
:101BA000A06AB0F5005F09D12068016821F40051F6
:101BB00001602068016841F400510160012084F84F
:101BC0005D00002084F85C000320D2E70120CDE70F
:101BD0007047FEF7B1BC30B595B028216846FEF7D6
:101BE00037FB14210AA8FEF733FB18210FA8FEF7D4
:101BF0002FFB022501200490009510200590002461
:101C00004FF46010CDE9084007956846FEF7AAFE3C
:101C100000B1FEE70F20CDE90A054FF48060CDE961
:101C20000C4002210AA80E94FEF7C2FD00B1FEE7A7
:101C30004FF4815014940F9012940FA8FEF7FEFCFD
:101C4000002800D0FEE715B030BD0000054801684F
:101C500041F47001016003494FF000608039086071
:101C60007047000088ED00E00148FFF783BB0000EB
:101C7000240100200148FFF77DBB00006401002023
:101C8000FEE70907090E002804DB00F1E02080F8D8
:101C90000014704700F00F0000F1E02080F8141DE0
:101CA000704702E008C8121F08C1002AFAD1704725
:101CB0007047002001E001C1121F002AFBD17047CC
:101CC00030B504460120002122780B46D50700D00C
:101CD000491C52085B1C082BF8DB63780022DC07E8
:101CE00000D0491C5B08521C082AF8DBC90700D148
:101CF000002030BD10B51B4CF02222700022627013
:101D000030B1012806D0022828D0032804D127E0CA
:101D1000F22000E0F7202070480060701148FFF7C3
:101D2000CFFF18B1607840F0010060704FF0904430
:101D3000002210212046FEF7B1FB4FF0FF330222B4
:101D400008490948FFF77AF9012210212046FEF7D9
:101D5000A5FBBDE810406420FEF7CEBAFB20DAE711
:101D6000FF20D8E7000000206000002086B0FEF7CA
:101D7000EBFBFFF730FF14216846FEF769FA1948BC
:101D8000416941F400314161416901F4003105913B
:101D9000416941F48021416140694FF0904400F471
:101DA00080200590002210212046FEF777FB1020AE
:101DB000009001200021CDE90101039169462046F0
:101DC000FEF7ACFAFFF724FE012210212046FEF7B1
:101DD00065FB05210020FFF78DFF14210020FFF790
:101DE00089FFFEE700100240020304050607080908
:101DF0000A0B0C0D0E0F1010010203040506070854
:101E0000090A0B0C0D0E0F1000000000000000006E
:101E10000102030406070809381E0008000000201C
:101E200014000000A21C00084C1E00081400002032
:101E300094050000B21C0008F00000000100000042
:0C1E4000100000000000000000127A00FA
:040000050800018965
:00000001FF
