:020000040800F2
:10000000800400209D010008DF150008D9120008B7
:10001000DD150008A9020008A9180008000000006A
:10002000000000000000000000000000E3150008D0
:10003000AB02000800000000E1150008E51500080B
:10004000B7010008B7010008B7010008B7010008B0
:10005000B7010008B7010008B7010008B7010008A0
:10006000B7010008B7010008B7010008B701000890
:10007000B7010008B7010008B7010008B701000880
:10008000B7010008B7010008B7010008B701000870
:10009000B7010008B7010008B7010008B701000860
:1000A000B7010008B7010008B7010008B701000850
:1000B000B7010008B701000800000000B701000800
:1000C000B70100080000000000000000B7010008B0
:1000D00000000000B7010008B7010008B7010008E0
:1000E000B7010008B7010008000000000000000090
:1000F0000000000000000000000000000000000000
:1001000000000000000000000000000000000000EF
:100110000000000000000000B7010008B70100085F
:1001200000000000000000000000000000000000CF
:1001300000000000000000000000000000000000BF
:10014000B7010008B701000800000000000000002F
:10015000000000000000000000000000000000009F
:10016000000000000000000000000000000000008F
:10017000000000000000000000000000000000007F
:1001800000000000B7010008DFF80CD000F07AF89A
:1001900000480047E918000880040020064880470E
:1001A00006480047FEE7FEE7FEE7FEE7FEE7FEE75C
:1001B000FEE7FEE7FEE7FEE74116000889010008BA
:1001C0002DE9F05F0546002092469B46884606468C
:1001D000814640241BE0284641464746224600F01F
:1001E00020F853465A46C01A914110D3114618467A
:1001F000224600F038F82D1A67EB01084F462246D8
:100200000120002100F02FF817EB00094E41201EBD
:10021000A4F10104DFDC484631462A464346BDE8E6
:10022000F09F202A04DB203A21FA02F000217047D7
:1002300021FA02F3D040C2F120029140084319464E
:100240007047D2B201E000F8012B491EFBD2704783
:100250000022F6E710B513460A4604461946FFF792
:10026000F0FF204610BD202A04DB203A00FA02F1FC
:10027000002070479140C2F1200320FA03F3194394
:1002800090407047064C074D06E0E06840F00103DF
:1002900094E8070098471034AC42F6D3FFF778FF94
:1002A0004019000860190008FEE770477047000019
:1002B0002DE9F84FDFF860B100234FF0010C4FF04B
:1002C000030A4FF00F090BF1040E9DE00CFA03F640
:1002D000344022007ED04C68022C01D0122C0ED16A
:1002E000DC0800EB8408D8F820405D07EF0E09FA1F
:1002F00007F5AC430D69BD402543C8F82050076899
:100300005D0091F804800AFA05F408F00308A74399
:1003100008FA05F848EA0708C0F800804F68012F7E
:1003200005D0022F03D0112F01D0122F11D18768D1
:10033000D1F80C80A74308FA05F848EA0708C0F886
:1003400008804768B7430E79C6F300169E403E43C7
:100350004660C668A6438C68AC403443C4604C68B1
:10036000E40050D52D4CA56945F00105A561A469AF
:1003700023F0030504F001040094294C2E19B468FD
:100380009D072F0F09FA07F5AC43B0F1904F04D049
:10039000244DA84203D101250CE000250AE0224D9E
:1003A000A84201D1022505E0204DA84201D1032534
:1003B00000E00525BD402543B560DBF800405D4603
:1003C0004E689443F60300D514432C607546DEF85E
:1003D000004000E017E04E689443B60300D5144394
:1003E0002C600D4D08352C684E689443F60200D5FC
:1003F00014432C60084D0C352C684E689443B602AB
:1004000000D514432C605B1C0A681446DA407FF464
:100410005DAFBDE8F88F000000040140001002400D
:10042000000001400004004800080048000C00489B
:1004300001488068704700000400002090F84120C7
:10044000202A24D190F84020012A20D0012280F8CF
:100450004020242280F841200268136823F0010321
:1004600013600268136823F48053136002681368F2
:100470000B43136001680A6842F001020A60202100
:1004800080F84110002180F8401008467047022093
:10049000704790F84120202A22D190F84020012A6C
:1004A0001ED0012280F84020242280F841200268DA
:1004B000136823F0010313600268136823F4706368
:1004C00043EA0121116001680A6842F001020A60F2
:1004D000202180F84110002180F840100846704724
:1004E0000220704770B5040004D094F84100002544
:1004F00010B106E0012070BD84F84050204600F0A5
:10050000ABF9242084F841002068016821F0010142
:1005100001606068216820F070600861206881686F
:1005200021F400418160E0680128A06807D040F410
:10053000044021688860E068022803D006E040F4A7
:100540000040F6E721684FF4006048602068416889
:10055000114A114341602068C16821F40041C16023
:10056000D4E904010843A16940EA01202168C86078
:10057000D4E907010843216808602068016841F058
:10058000010101606564202084F84100256384F83E
:100590004250002070BD0000008000022DE9FF4F96
:1005A00083B00446DDE9108790F84100DDF84890FB
:1005B0009A469346202874D15FEA080014D09FB170
:1005C00094F8400001286CD0012084F84000FFF727
:1005D0002FFF0646012200901923D103204600F088
:1005E00049FF002871D103E04FF4007060646CE0B3
:1005F000222084F84100402084F8420000256564F0
:10060000C4F8248067856563CDE9009653465A4651
:100610002046049900F0B4FE10B184F8405054E034
:10062000618D3548FF274FF080784FF0007AFF2921
:1006300004D927853A464346009005E0618D21851F
:10064000009094F8282053462046049900F0FCFEC0
:100650004B46002204212046009600F00BFFA0BB71
:100660002068406A616A0870606A401C6062208D80
:10067000401E81B22185608D401E6085608DD8B19D
:10068000D1B94B46002280212046009600F0F2FEB0
:10069000D8B9608DFF2805D927853A46434600958D
:1006A00006E026E0608D2085009594F828205346CA
:1006B0002046049900F0C8FE608D0028C8D132465B
:1006C0004946204600F002FF18B1012007B0BDE8FE
:1006D000F08F21682020C86121684A68074B1A40C2
:1006E0004A6084F8410084F8425084F84050002069
:1006F000ECE70220EAE700000024008000E800FEAA
:100700002DE9FF4F83B00446DDE9108790F84100E2
:10071000DDF848909A469346202871D15FEA080098
:1007200014D09FB194F84000012869D0012084F8CA
:100730004000FFF77DFE0646012200901923D103F9
:10074000204600F097FE00286ED103E04FF40070C1
:10075000606469E0212084F84100402084F8420070
:1007600000256564C4F8248067856563CDE900963B
:1007700053465A462046049900F034FE10B184F8DE
:10078000405051E0608DFF274FF080784FF0007AA5
:10079000FF2804D927853A464346009505E0608D39
:1007A0002085009594F8282053462046049900F0AF
:1007B0004BFE32464946204600F0AEFEA0BB606AC2
:1007C000216800788862606A401C6062608D401E0B
:1007D0006085208D401E80B22085618DD9B1D0B951
:1007E0004B46002280212046009600F043FED8B9F7
:1007F000608DFF2805D927853A464346009506E0D7
:1008000026E0608D2085009594F8282053462046E8
:10081000049900F019FE608D0028CAD1324649467D
:10082000204600F053FE18B1012007B0BDE8F08F5C
:1008300020682021C16120684268064B1A4042604E
:1008400084F8411084F8425084F840500020ECE7CE
:100850000220EAE700E800FE10B586B00446142145
:100860006846FFF7F5FC1249206888421ED1114CFA
:10087000606940F4802060616069694600F480200E
:100880000590C020009012200190012002900320CA
:100890000390042004900848FFF70AFDE06940F443
:1008A0000010E061E06900F40010059006B010BD92
:1008B00000540040001002400004004802488168D3
:1008C000027811448160704704000020074810B589
:1008D000016841F010010160032000F05FF8002082
:1008E00000F006F800F024F8002010BD00200240BF
:1008F00070B50D4D04464FF47A712878B1FBF0F0D5
:100900000A490968B1FBF0F000F0D2FC48B9102C9C
:1009100007D200222146501E00F020F800206C6013
:1009200070BD012070BD00000400002010000020F8
:10093000094808B5816941F001018161816901F0CF
:1009400001010091C16941F08051C161C06900F0AD
:100950008050009008BD000000100240F0B40E4B23
:100960001B680C46C3F30223C3F10705042D00D90D
:100970000425191D072901D2002300E0DB1E0126F2
:1009800006FA05F1491E214099409E40761E164008
:100990003143F0BC00F089BF0CED00E0064900F0E7
:1009A000070208684FF6FF03184040EA0220034A96
:1009B00010430860704700000CED00E00000FA05ED
:1009C0002DE9F84F04460068574DC0036FD5E8691C
:1009D0000026C00008D4E86940F08050E861E8696A
:1009E000012600F08050009050480168C90512D4DB
:1009F0000168804641F480710160FFF719FD0746E8
:100A000005E000BFFFF714FDC01B642835D8D8F8F7
:100A10000000C005F6D5286A10F4407053D0A188B4
:100A200001F4407181424ED0286A4FF4803191FA2E
:100A3000A1F2B2FA82F297003D4A4FF00108174442
:100A400020F44070C7F8008491FAA1F1B1FA81F165
:100A500002EB81010023C1F800342862C00732D0C4
:100A6000FFF7E6FC074641F2883A4FF0020907E03B
:100A7000FFF7DEFCC11B514502D90320BDE8F88F0A
:100A800099FAA9F1B1FA81F141F040014846B8EB79
:100A9000511F01D129680CE090FAA0F1B1FA81F15F
:100AA00041F04001B0EB511F02D1296A01E015E08D
:100AB000696A99FAA9F0B0FA80F000F01F0008FA0C
:100AC00000F21142D4D0286A616820F440700843D3
:100AD00028621EB1E86920F08050E8612078C007E4
:100AE00005D0286BA16820F0030008432863207814
:100AF000800605D5286BE16820F0100008432863C4
:100B00002078000605D5E86A216920F4F8700843CA
:100B1000E8622088C00405D5286B616920F48070E4
:100B2000084328630020A9E700100240007000403D
:100B3000000042422DE9F0470F46050069D04A4EB9
:100B4000306800F00700B84209D2306820F0070092
:100B500038433060306800F00700B84259D1287837
:100B6000424C800705D56068A96820F0F000084372
:100B700060602878C0073DD06968012001290DD048
:100B8000022923D05FF0020393FAA3F2B2FA82F2B1
:100B900042F02002520904D0226803E04FF40033EF
:100BA000F2E7626A93FAA3F3B3FA83F303F01F0345
:100BB000984002422DD0606820F003000843606036
:100BC000FFF736FC804641F288390CE04FF00073A5
:100BD000DAE700BFFFF72CFCA0EB0801494502D97A
:100BE0000320BDE8F0876068696800F00C00B0EB96
:100BF000810FEFD1306800F00700B8420BD93068A0
:100C000020F0070038433060306800F00700B84239
:100C100001D00120E5E72878400705D56068E9683C
:100C200020F4E060084360602878000706D560681B
:100C3000296920F4605040EAC100606000F01EF8AD
:100C40006168F02292FAA2F201F0F001B2FA82F2A7
:100C5000D140074A515CC840064908600648006810
:100C6000FFF746FE0020BCE70020024000100240D3
:100C7000301900081000002008000020164A10B5A6
:100C80005168164801F00C03042B20D0082B1ED10C
:100C90004FF4701494FAA4F401F47013B4FA84F4C9
:100CA000E3400F4CD26AE45C0F2393FAA3F302F003
:100CB0000F02B3FA83F3DA40094B1033C9039A5C8D
:100CC00006D500231946FFF77BFAA0FB040110BDEF
:100CD0000448A4FB000110BD0010024000127A007D
:100CE0001019000800093D002DE9F84F050071D0EA
:100CF0002878FC4EC0074FF0010425D070686704C7
:100D0000C0F38100012807D07068C0F38100022879
:100D10001BD17068C00318D597FAA7F0B0FA80F01D
:100D200040F02000400901D0306800E0706A97FA76
:100D3000A7F1B1FA81F101F01F0104FA01F10842B3
:100D400065D068680028D2D061E06868B0F5803F5F
:100D50000BD010B1B0F5A02F17D0306820F4803040
:100D60003060306820F4802002E0306840F4803049
:100D70003060F06AA96820F00F000843F0626868EC
:100D800020B3FFF755FB80460AE0306840F480202E
:100D90003060EAE7FFF74CFBA0EB0800642871D84D
:100DA00097FAA7F0B0FA80F040F02000400901D097
:100DB000306800E0706A97FAA7F1B1FA81F101F0AA
:100DC0001F0104FA01F10842E4D020E0FFF730FBF4
:100DD000804607E0C2E000BFFFF72AFBA0EB080057
:100DE0006428DCD897FAA7F0B0FA80F040F0200031
:100DF000400901D0306800E0706A97FAA7F1B1FAB3
:100E000081F101F01F0104FA01F10842E4D12878D0
:100E1000DFF8D48280074FF0000A4FF0020730D588
:100E200070684FF0F80B10F00C0F07D07068C0F32B
:100E30008100022827D17068C00324D497FAA7F054
:100E4000B0FA80F040F02000400901D0306800E0A6
:100E5000706A97FAA7F1B1FA81F101F01F0104FA63
:100E600001F1084202D02869012877D130689BFA45
:100E7000ABF220F0F8016869B2FA82F290400143C7
:100E800031605AE064E1286988B394FAA4F0B0FABA
:100E900080F048F82040FFF7CBFA814606E000BF1B
:100EA000FFF7C6FAA0EB090002289AD897FAA7F034
:100EB000B0FA80F040F02000400901D0306800E036
:100EC000706A97FAA7F1B1FA81F101F01F0104FAF3
:100ED00001F10842E4D030689BFAABF26969B2FADA
:100EE00082F220F0F80091400843306025E0FFE7EF
:100EF00094FAA4F0B0FA80F048F820A0FFF798FA2E
:100F0000814605E0FFF794FAA0EB09000228CCD84F
:100F100097FAA7F0B0FA80F040F02000400901D025
:100F2000306800E0706A97FAA7F1B1FA81F101F038
:100F30001F0104FA01F10842E4D1287800076CD5BA
:100F4000A869A8B394FAA4F0B0FA80F008EB800086
:100F5000C0F88044FFF76CFA814607E0A4E100BFC7
:100F6000FFF766FAA0EB090002289ED897FAA7F0CF
:100F7000B0FA80F040F06000B4EB501F01D130684F
:100F80000BE097FAA7F0B0FA80F040F06000B7EB02
:100F9000501F01D1306A00E0706A97FAA7F1B1FAE8
:100FA00081F101F01F0104FA01F21042D8D034E0BF
:100FB000FFE794FAA4F1B1FA81F108EB8101C1F8DD
:100FC00080A4FFF735FA814606E000BFFFF730FA4C
:100FD000A0EB090002289AD897FAA7F0B0FA80F09F
:100FE00040F06000B4EB501F01D130680BE097FA7D
:100FF000A7F0B0FA80F040F06000B7EB501F01D1CD
:10100000306A00E0706A97FAA7F1B1FA81F101F055
:101010001F0104FA01F21042D8D12878400768D5A0
:10102000F0694FF00009C00009D4F06940F0805029
:10103000F061F0694FF0010900F0805000902B48FA
:101040000168C90512D4016841F480710160FFF79D
:10105000EFF9834606E000BFFFF7EAF9A0EB0B00CB
:10106000642875D821480068C005F5D5E8680128CE
:101070000AD008B1052811D0306A20F00100306292
:10108000306A20F0040002E0306A40F00100306273
:10109000E86868B3FFF7CCF983460DE0306A40F0AA
:1010A00004003062F0E700BFFFF7C2F9A0EB0B01CC
:1010B00041F2883081424BD897FAA7F0B0FA80F01D
:1010C00040F04000B4EB501F01D1306813E097FAB4
:1010D000A7F0B0FA80F040F04000B7EB501F09D104
:1010E000306A08E0001002400000424200700040F8
:1010F0000CE040E0706A97FAA7F1B1FA81F101F0D3
:101100001F0104FA01F21042CED02DE0FFF790F952
:10111000834607E0FFF78CF9A0EB0B0141F2883022
:10112000814215D897FAA7F0B0FA80F040F040005D
:10113000B4EB501F01D130680CE097FAA7F0B0FA79
:1011400080F040F04000B7EB501F02D1306A01E060
:1011500083E0706A97FAA7F1B1FA81F101F01F01FB
:1011600004FA01F21042D5D1B9F1000F03D0F069B1
:1011700020F08050F061E86980B37168C1F38101AB
:10118000022977D04FF080714F000228504609D0D5
:1011900091FAA1F1B1FA81F148F82100FFF748F97D
:1011A00005465DE0894691FAA1F1B1FA81F1C246A6
:1011B00048F82100FFF73CF9804605E0FFF738F9D1
:1011C000A0EB0800022848D897FAA7F0B0FA80F000
:1011D00040F02000400902D0306801E066E0706A0B
:1011E00097FAA7F1B1FA81F101F01F0104FA01F1B8
:1011F0000842E3D1D5E908100843716821F474115D
:101200000843706099FAA9F0B0FA80F04AF82040DB
:10121000FFF70EF9054604E0FFF70AF9401B022824
:101220001BD897FAA7F0B0FA80F040F020004009F0
:1012300001D0306800E0706A97FAA7F1B1FA81F145
:1012400001F01F0104FA01F10842E5D02EE000BFD1
:10125000FFF7EEF8401B022802D90320BDE8F88F03
:1012600097FAA7F0B0FA80F040F02000400902D0D1
:10127000306801E00BE0706A97FAA7F1B1FA81F1EA
:1012800001F01F0104FA01F10842E1D10EE001284A
:10129000E4D070682A6A00F48031914204D1696A0E
:1012A00000F47010884201D00120D7E70020D5E774
:1012B00010B5401EB0F1807F01D3012010BD4FF06A
:1012C000E02460610F21601700F0EFFA0020A061B8
:1012D00007202061002010BDFEE701688A69D24323
:1012E000920701D400228A6200688169C943C90754
:1012F00003D0816941F00101816170472DE9F0411E
:101300000446006890460E468069C043C00633D448
:101310000025202720688069C043800615D5701CF1
:10132000F8D0FFF785F8A0EB0800B04201D8002EF6
:10133000F0D154F8440F40F0200044F804096770DD
:10134000A57025700120BDE8F08121681020C861DA
:101350002068C7612046FFF7C0FF54F8440B41687E
:10136000064A11404160206840F0040044F820091A
:101370006777A5772577E5E70020E4E700E800FE3A
:101380002DE9F84304461646DDE9089714489846C7
:10139000DAB200900023204600F056F83A4649465B
:1013A000204600F0B9F8B8B9F5B2B8F1010F08D08D
:1013B0002168300A88623A464946204600F0ACF877
:1013C00050B9206885624B46002240212046009794
:1013D00000F050F8002800D00120BDE8F88300009C
:1013E000002000802DE9F84304461646154898462B
:1013F000DDE90897DAB2C3020090204600F024F835
:101400003A464946204600F087F8B8B9F5B2B8F137
:10141000010F08D02168300A88623A4649462046C2
:1014200000F07AF850B9206885624B46002280218E
:101430002046009700F01EF8002800D00120BDE8EB
:10144000F883000000200080F0B50568059C6868FE
:101450004FF48066064FC1F3090106EA545641EA8B
:1014600002413E431943B043214308436860F0BD45
:10147000FF63FF032DE9F0411D4617460E46044663
:10148000DDF8188008E0681C06D0FEF7D1FFA0EB5D
:101490000800A8420BD855B12068806936EA0000E0
:1014A00012D00020B842EED00020BDE8F08154F800
:1014B000440F40F0200044F8040920206070002010
:1014C000A07020700120F0E70120EBE770B5164610
:1014D0000D4604460DE0324629462046FFF70EFF32
:1014E00008B1012070BDFEF7A3FF801BA84207D8FA
:1014F00035B120688069C0438006ECD4002070BDFF
:1015000054F8440F40F0200044F804092020607093
:101510000020A0702070E4E770B516460D46044622
:101520000FE0324629462046FFF7E8FE08B10120C9
:1015300070BD681C05D0FEF77BFF801BA84207D852
:1015400035B120688069C0438007EAD4002070BDAF
:1015500054F8440F40F0200044F804092020607043
:101560000020A0702070E2E7054808B5416941F409
:1015700080214161406900F48020009008BD000096
:1015800000100240144810B51249016040F20B21CE
:10159000416000210122C0E90212016141618161C3
:1015A000C1610162FEF79EFF08B1FEF77FFE0021D8
:1015B0000948FEF743FF08B1FEF778FE0021064810
:1015C000FEF767FF002803D0BDE81040FEF76EBEAF
:1015D00010BD00000054004030000020FEE77047BE
:1015E00070477047FFF76AB910B596B02821684672
:1015F000FEF72EFE14210AA8FEF72AFE18210FA8D6
:10160000FEF726FE02200090012004901020002406
:10161000059007946846FFF767FB0F20CDE90A04A1
:101620000C940D9400210AA80E94FFF783FA202051
:101630000F9012940FA8FFF7C3F916B010BD000069
:101640000548016841F47001016003494FF00060F2
:10165000803908607047000088ED00E02DE9FE4306
:1016600041F0D00101700126164F4FF47A750097B2
:10167000CDE901659846914604463346EA22124870
:10168000FEF78CFF3878682802D00320BDE8FE837F
:101690000020CDE9000602952078012341006B224D
:1016A0000948FFF72DF80721204600F09DF849462C
:1016B000204600F04FF84146204600F0ABF80020ED
:1016C000E4E70000000000203000002010B588B0E2
:1016D00004464FF47A720E2103A88DE807002078A3
:1016E000012341003B221848FEF758FFBDF80C00CB
:1016F0009FED161A40BAA081BDF80E0040BAE081F5
:10170000BDF8100040BA2082BDF8120040BA00B205
:1017100000EE100AB8EEC00AC0EE010A9FED0C0AF6
:1017200030EE800A84ED060ABDF8140040BA6082EB
:10173000BDF8160040BAA082BDF8180040BAE08299
:1017400008B0002010BD0000300000200000AA43B7
:10175000B81E12422DE9FF4101270DF10C08CDE919
:1017600000874FF47A760446029600780D464100D1
:101770003B461C221748FEF711FF9DF80C00CDF8E0
:10178000008000F0E70040EAC5008DF80C00CDE9CC
:1017900001762078012341001C220E48FEF7B0FF9D
:1017A00035B1012D07D0022D08D0032D0DD108E051
:1017B0009FED090A07E09FED090A04E09FED080A82
:1017C00001E09FED080A84ED020A04B00020BDE8A4
:1017D000F081000030000020000080380000003957
:1017E000000080390000003A03B583B04FF47A73EB
:1017F000012204A98DE80E00007813464100192249
:101800000348FEF77DFF002800D0012005B000BD91
:10181000300000202DE9FF4101270DF10C08CDE932
:1018200000874FF47A760446029600780D46410010
:101830003B461B221748FEF7B1FE9DF80C00CDF881
:10184000008000F0E70040EAC5008DF80C00CDE90B
:1018500001762078012341001B220E48FEF750FF3D
:1018600035B1012D07D0022D08D0032D0DD108E090
:101870009FED090A07E09FED090A04E09FED080AC1
:1018800001E09FED080A84ED010A04B00020BDE8E4
:10189000F0810000300000202D23FA3B2D237A3CFC
:1018A00090C1F93C90C1793DFEE70907090E002877
:1018B00004DB00F1E02080F80014704700F00F0016
:1018C00000F1E02080F8141D704702E008C8121FE4
:1018D00008C1002AFAD170477047002001E001C119
:1018E000121F002AFBD17047FEF7F0FFFFF77CFEC6
:1018F000FFF73AFEFFF746FE00230222194603488F
:10190000FFF7ACFE0148FFF7E1FEFBE71400002003
:1019100002030405060708090A0B0C0D0E0F101030
:101920000102030405060708090A0B0C0D0E0F102F
:10193000000000000000000001020304060708097F
:10194000601900080000002014000000CA180008F8
:1019500074190008140000206C040000DA18000854
:101960000000000001000000100000000000000066
:0419700000127A00E7
:040000050800018965
:00000001FF
